{
	"data": {
		"bytecode": {
			"linkReferences": {
				"contract/Stringcomparson.sol": {
					"Stringcomparson": [
						{
							"length": 20,
							"start": 290
						},
						{
							"length": 20,
							"start": 472
						}
					]
				}
			},
			"object": "6080604052348015600e575f80fd5b506107658061001c5f395ff3fe608060405234801561000f575f80fd5b5060043610610055575f3560e01c80632289b1551461005957806323753f2614610077578063c48dfed014610095578063d63a6ccd146100b3578063ee5bed2e146100d1575b5f80fd5b6100616100ed565b60405161006e91906102c0565b60405180910390f35b61007f6100f2565b60405161008c91906102c0565b60405180910390f35b61009d6100f8565b6040516100aa91906102c0565b60405180910390f35b6100bb6100fe565b6040516100c891906102c0565b60405180910390f35b6100eb60048036038101906100e69190610450565b610104565b005b5f5481565b60015481565b60025481565b60035481565b73__$9cffa97c5aed39c81e358dfa17a442d054$__637ad08ce7826040518263ffffffff1660e01b815260040161013b9190610554565b602060405180830381865af4158015610156573d5f803e3d5ffd5b505050506040513d601f19601f8201168201806040525081019061017a91906105bc565b156101ba57633b9aca008261018f9190610641565b600181905550670de0b6b3a7640000826101a99190610641565b600281905550815f819055506102a4565b73__$9cffa97c5aed39c81e358dfa17a442d054$__637ad08ce7826040518263ffffffff1660e01b81526004016101f191906106bb565b602060405180830381865af415801561020c573d5f803e3d5ffd5b505050506040513d601f19601f8201168201806040525081019061023091906105bc565b1561026c57633b9aca008261024591906106ee565b5f81905550633b9aca008261025a9190610641565b600281905550816001819055506102a3565b670de0b6b3a76400008261028091906106ee565b5f81905550633b9aca008261029591906106ee565b600181905550816002819055505b5b5050565b5f819050919050565b6102ba816102a8565b82525050565b5f6020820190506102d35f8301846102b1565b92915050565b5f604051905090565b5f80fd5b5f80fd5b6102f3816102a8565b81146102fd575f80fd5b50565b5f8135905061030e816102ea565b92915050565b5f80fd5b5f80fd5b5f601f19601f8301169050919050565b7f4e487b71000000000000000000000000000000000000000000000000000000005f52604160045260245ffd5b6103628261031c565b810181811067ffffffffffffffff821117156103815761038061032c565b5b80604052505050565b5f6103936102d9565b905061039f8282610359565b919050565b5f67ffffffffffffffff8211156103be576103bd61032c565b5b6103c78261031c565b9050602081019050919050565b828183375f83830152505050565b5f6103f46103ef846103a4565b61038a565b9050828152602081018484840111156104105761040f610318565b5b61041b8482856103d4565b509392505050565b5f82601f83011261043757610436610314565b5b81356104478482602086016103e2565b91505092915050565b5f8060408385031215610466576104656102e2565b5b5f61047385828601610300565b925050602083013567ffffffffffffffff811115610494576104936102e6565b5b6104a085828601610423565b9150509250929050565b5f81519050919050565b5f82825260208201905092915050565b8281835e5f83830152505050565b5f6104dc826104aa565b6104e681856104b4565b93506104f68185602086016104c4565b6104ff8161031c565b840191505092915050565b7f736d616c6c6573740000000000000000000000000000000000000000000000005f82015250565b5f61053e6008836104b4565b91506105498261050a565b602082019050919050565b5f6040820190508181035f83015261056c81846104d2565b9050818103602083015261057f81610532565b905092915050565b5f8115159050919050565b61059b81610587565b81146105a5575f80fd5b50565b5f815190506105b681610592565b92915050565b5f602082840312156105d1576105d06102e2565b5b5f6105de848285016105a8565b91505092915050565b7f4e487b71000000000000000000000000000000000000000000000000000000005f52601260045260245ffd5b7f4e487b71000000000000000000000000000000000000000000000000000000005f52601160045260245ffd5b5f61064b826102a8565b9150610656836102a8565b925082610666576106656105e7565b5b828204905092915050565b7f736d616c6c6572000000000000000000000000000000000000000000000000005f82015250565b5f6106a56007836104b4565b91506106b082610671565b602082019050919050565b5f6040820190508181035f8301526106d381846104d2565b905081810360208301526106e681610699565b905092915050565b5f6106f8826102a8565b9150610703836102a8565b9250828202610711816102a8565b9150828204841483151761072857610727610614565b5b509291505056fea2646970667358221220409dbe1d640734d3e832df3f4a3c454d32b07c698f0b138ac1021496ef1705bb64736f6c634300081a0033",
			"opcodes": "PUSH1 0x80 PUSH1 0x40 MSTORE CALLVALUE DUP1 ISZERO PUSH1 0xE JUMPI PUSH0 DUP1 REVERT JUMPDEST POP PUSH2 0x765 DUP1 PUSH2 0x1C PUSH0 CODECOPY PUSH0 RETURN INVALID PUSH1 0x80 PUSH1 0x40 MSTORE CALLVALUE DUP1 ISZERO PUSH2 0xF JUMPI PUSH0 DUP1 REVERT JUMPDEST POP PUSH1 0x4 CALLDATASIZE LT PUSH2 0x55 JUMPI PUSH0 CALLDATALOAD PUSH1 0xE0 SHR DUP1 PUSH4 0x2289B155 EQ PUSH2 0x59 JUMPI DUP1 PUSH4 0x23753F26 EQ PUSH2 0x77 JUMPI DUP1 PUSH4 0xC48DFED0 EQ PUSH2 0x95 JUMPI DUP1 PUSH4 0xD63A6CCD EQ PUSH2 0xB3 JUMPI DUP1 PUSH4 0xEE5BED2E EQ PUSH2 0xD1 JUMPI JUMPDEST PUSH0 DUP1 REVERT JUMPDEST PUSH2 0x61 PUSH2 0xED JUMP JUMPDEST PUSH1 0x40 MLOAD PUSH2 0x6E SWAP2 SWAP1 PUSH2 0x2C0 JUMP JUMPDEST PUSH1 0x40 MLOAD DUP1 SWAP2 SUB SWAP1 RETURN JUMPDEST PUSH2 0x7F PUSH2 0xF2 JUMP JUMPDEST PUSH1 0x40 MLOAD PUSH2 0x8C SWAP2 SWAP1 PUSH2 0x2C0 JUMP JUMPDEST PUSH1 0x40 MLOAD DUP1 SWAP2 SUB SWAP1 RETURN JUMPDEST PUSH2 0x9D PUSH2 0xF8 JUMP JUMPDEST PUSH1 0x40 MLOAD PUSH2 0xAA SWAP2 SWAP1 PUSH2 0x2C0 JUMP JUMPDEST PUSH1 0x40 MLOAD DUP1 SWAP2 SUB SWAP1 RETURN JUMPDEST PUSH2 0xBB PUSH2 0xFE JUMP JUMPDEST PUSH1 0x40 MLOAD PUSH2 0xC8 SWAP2 SWAP1 PUSH2 0x2C0 JUMP JUMPDEST PUSH1 0x40 MLOAD DUP1 SWAP2 SUB SWAP1 RETURN JUMPDEST PUSH2 0xEB PUSH1 0x4 DUP1 CALLDATASIZE SUB DUP2 ADD SWAP1 PUSH2 0xE6 SWAP2 SWAP1 PUSH2 0x450 JUMP JUMPDEST PUSH2 0x104 JUMP JUMPDEST STOP JUMPDEST PUSH0 SLOAD DUP2 JUMP JUMPDEST PUSH1 0x1 SLOAD DUP2 JUMP JUMPDEST PUSH1 0x2 SLOAD DUP2 JUMP JUMPDEST PUSH1 0x3 SLOAD DUP2 JUMP JUMPDEST PUSH20 0x0 PUSH4 0x7AD08CE7 DUP3 PUSH1 0x40 MLOAD DUP3 PUSH4 0xFFFFFFFF AND PUSH1 0xE0 SHL DUP2 MSTORE PUSH1 0x4 ADD PUSH2 0x13B SWAP2 SWAP1 PUSH2 0x554 JUMP JUMPDEST PUSH1 0x20 PUSH1 0x40 MLOAD DUP1 DUP4 SUB DUP2 DUP7 GAS DELEGATECALL ISZERO DUP1 ISZERO PUSH2 0x156 JUMPI RETURNDATASIZE PUSH0 DUP1 RETURNDATACOPY RETURNDATASIZE PUSH0 REVERT JUMPDEST POP POP POP POP PUSH1 0x40 MLOAD RETURNDATASIZE PUSH1 0x1F NOT PUSH1 0x1F DUP3 ADD AND DUP3 ADD DUP1 PUSH1 0x40 MSTORE POP DUP2 ADD SWAP1 PUSH2 0x17A SWAP2 SWAP1 PUSH2 0x5BC JUMP JUMPDEST ISZERO PUSH2 0x1BA JUMPI PUSH4 0x3B9ACA00 DUP3 PUSH2 0x18F SWAP2 SWAP1 PUSH2 0x641 JUMP JUMPDEST PUSH1 0x1 DUP2 SWAP1 SSTORE POP PUSH8 0xDE0B6B3A7640000 DUP3 PUSH2 0x1A9 SWAP2 SWAP1 PUSH2 0x641 JUMP JUMPDEST PUSH1 0x2 DUP2 SWAP1 SSTORE POP DUP2 PUSH0 DUP2 SWAP1 SSTORE POP PUSH2 0x2A4 JUMP JUMPDEST PUSH20 0x0 PUSH4 0x7AD08CE7 DUP3 PUSH1 0x40 MLOAD DUP3 PUSH4 0xFFFFFFFF AND PUSH1 0xE0 SHL DUP2 MSTORE PUSH1 0x4 ADD PUSH2 0x1F1 SWAP2 SWAP1 PUSH2 0x6BB JUMP JUMPDEST PUSH1 0x20 PUSH1 0x40 MLOAD DUP1 DUP4 SUB DUP2 DUP7 GAS DELEGATECALL ISZERO DUP1 ISZERO PUSH2 0x20C JUMPI RETURNDATASIZE PUSH0 DUP1 RETURNDATACOPY RETURNDATASIZE PUSH0 REVERT JUMPDEST POP POP POP POP PUSH1 0x40 MLOAD RETURNDATASIZE PUSH1 0x1F NOT PUSH1 0x1F DUP3 ADD AND DUP3 ADD DUP1 PUSH1 0x40 MSTORE POP DUP2 ADD SWAP1 PUSH2 0x230 SWAP2 SWAP1 PUSH2 0x5BC JUMP JUMPDEST ISZERO PUSH2 0x26C JUMPI PUSH4 0x3B9ACA00 DUP3 PUSH2 0x245 SWAP2 SWAP1 PUSH2 0x6EE JUMP JUMPDEST PUSH0 DUP2 SWAP1 SSTORE POP PUSH4 0x3B9ACA00 DUP3 PUSH2 0x25A SWAP2 SWAP1 PUSH2 0x641 JUMP JUMPDEST PUSH1 0x2 DUP2 SWAP1 SSTORE POP DUP2 PUSH1 0x1 DUP2 SWAP1 SSTORE POP PUSH2 0x2A3 JUMP JUMPDEST PUSH8 0xDE0B6B3A7640000 DUP3 PUSH2 0x280 SWAP2 SWAP1 PUSH2 0x6EE JUMP JUMPDEST PUSH0 DUP2 SWAP1 SSTORE POP PUSH4 0x3B9ACA00 DUP3 PUSH2 0x295 SWAP2 SWAP1 PUSH2 0x6EE JUMP JUMPDEST PUSH1 0x1 DUP2 SWAP1 SSTORE POP DUP2 PUSH1 0x2 DUP2 SWAP1 SSTORE POP JUMPDEST JUMPDEST POP POP JUMP JUMPDEST PUSH0 DUP2 SWAP1 POP SWAP2 SWAP1 POP JUMP JUMPDEST PUSH2 0x2BA DUP2 PUSH2 0x2A8 JUMP JUMPDEST DUP3 MSTORE POP POP JUMP JUMPDEST PUSH0 PUSH1 0x20 DUP3 ADD SWAP1 POP PUSH2 0x2D3 PUSH0 DUP4 ADD DUP5 PUSH2 0x2B1 JUMP JUMPDEST SWAP3 SWAP2 POP POP JUMP JUMPDEST PUSH0 PUSH1 0x40 MLOAD SWAP1 POP SWAP1 JUMP JUMPDEST PUSH0 DUP1 REVERT JUMPDEST PUSH0 DUP1 REVERT JUMPDEST PUSH2 0x2F3 DUP2 PUSH2 0x2A8 JUMP JUMPDEST DUP2 EQ PUSH2 0x2FD JUMPI PUSH0 DUP1 REVERT JUMPDEST POP JUMP JUMPDEST PUSH0 DUP2 CALLDATALOAD SWAP1 POP PUSH2 0x30E DUP2 PUSH2 0x2EA JUMP JUMPDEST SWAP3 SWAP2 POP POP JUMP JUMPDEST PUSH0 DUP1 REVERT JUMPDEST PUSH0 DUP1 REVERT JUMPDEST PUSH0 PUSH1 0x1F NOT PUSH1 0x1F DUP4 ADD AND SWAP1 POP SWAP2 SWAP1 POP JUMP JUMPDEST PUSH32 0x4E487B7100000000000000000000000000000000000000000000000000000000 PUSH0 MSTORE PUSH1 0x41 PUSH1 0x4 MSTORE PUSH1 0x24 PUSH0 REVERT JUMPDEST PUSH2 0x362 DUP3 PUSH2 0x31C JUMP JUMPDEST DUP2 ADD DUP2 DUP2 LT PUSH8 0xFFFFFFFFFFFFFFFF DUP3 GT OR ISZERO PUSH2 0x381 JUMPI PUSH2 0x380 PUSH2 0x32C JUMP JUMPDEST JUMPDEST DUP1 PUSH1 0x40 MSTORE POP POP POP JUMP JUMPDEST PUSH0 PUSH2 0x393 PUSH2 0x2D9 JUMP JUMPDEST SWAP1 POP PUSH2 0x39F DUP3 DUP3 PUSH2 0x359 JUMP JUMPDEST SWAP2 SWAP1 POP JUMP JUMPDEST PUSH0 PUSH8 0xFFFFFFFFFFFFFFFF DUP3 GT ISZERO PUSH2 0x3BE JUMPI PUSH2 0x3BD PUSH2 0x32C JUMP JUMPDEST JUMPDEST PUSH2 0x3C7 DUP3 PUSH2 0x31C JUMP JUMPDEST SWAP1 POP PUSH1 0x20 DUP2 ADD SWAP1 POP SWAP2 SWAP1 POP JUMP JUMPDEST DUP3 DUP2 DUP4 CALLDATACOPY PUSH0 DUP4 DUP4 ADD MSTORE POP POP POP JUMP JUMPDEST PUSH0 PUSH2 0x3F4 PUSH2 0x3EF DUP5 PUSH2 0x3A4 JUMP JUMPDEST PUSH2 0x38A JUMP JUMPDEST SWAP1 POP DUP3 DUP2 MSTORE PUSH1 0x20 DUP2 ADD DUP5 DUP5 DUP5 ADD GT ISZERO PUSH2 0x410 JUMPI PUSH2 0x40F PUSH2 0x318 JUMP JUMPDEST JUMPDEST PUSH2 0x41B DUP5 DUP3 DUP6 PUSH2 0x3D4 JUMP JUMPDEST POP SWAP4 SWAP3 POP POP POP JUMP JUMPDEST PUSH0 DUP3 PUSH1 0x1F DUP4 ADD SLT PUSH2 0x437 JUMPI PUSH2 0x436 PUSH2 0x314 JUMP JUMPDEST JUMPDEST DUP2 CALLDATALOAD PUSH2 0x447 DUP5 DUP3 PUSH1 0x20 DUP7 ADD PUSH2 0x3E2 JUMP JUMPDEST SWAP2 POP POP SWAP3 SWAP2 POP POP JUMP JUMPDEST PUSH0 DUP1 PUSH1 0x40 DUP4 DUP6 SUB SLT ISZERO PUSH2 0x466 JUMPI PUSH2 0x465 PUSH2 0x2E2 JUMP JUMPDEST JUMPDEST PUSH0 PUSH2 0x473 DUP6 DUP3 DUP7 ADD PUSH2 0x300 JUMP JUMPDEST SWAP3 POP POP PUSH1 0x20 DUP4 ADD CALLDATALOAD PUSH8 0xFFFFFFFFFFFFFFFF DUP2 GT ISZERO PUSH2 0x494 JUMPI PUSH2 0x493 PUSH2 0x2E6 JUMP JUMPDEST JUMPDEST PUSH2 0x4A0 DUP6 DUP3 DUP7 ADD PUSH2 0x423 JUMP JUMPDEST SWAP2 POP POP SWAP3 POP SWAP3 SWAP1 POP JUMP JUMPDEST PUSH0 DUP2 MLOAD SWAP1 POP SWAP2 SWAP1 POP JUMP JUMPDEST PUSH0 DUP3 DUP3 MSTORE PUSH1 0x20 DUP3 ADD SWAP1 POP SWAP3 SWAP2 POP POP JUMP JUMPDEST DUP3 DUP2 DUP4 MCOPY PUSH0 DUP4 DUP4 ADD MSTORE POP POP POP JUMP JUMPDEST PUSH0 PUSH2 0x4DC DUP3 PUSH2 0x4AA JUMP JUMPDEST PUSH2 0x4E6 DUP2 DUP6 PUSH2 0x4B4 JUMP JUMPDEST SWAP4 POP PUSH2 0x4F6 DUP2 DUP6 PUSH1 0x20 DUP7 ADD PUSH2 0x4C4 JUMP JUMPDEST PUSH2 0x4FF DUP2 PUSH2 0x31C JUMP JUMPDEST DUP5 ADD SWAP2 POP POP SWAP3 SWAP2 POP POP JUMP JUMPDEST PUSH32 0x736D616C6C657374000000000000000000000000000000000000000000000000 PUSH0 DUP3 ADD MSTORE POP JUMP JUMPDEST PUSH0 PUSH2 0x53E PUSH1 0x8 DUP4 PUSH2 0x4B4 JUMP JUMPDEST SWAP2 POP PUSH2 0x549 DUP3 PUSH2 0x50A JUMP JUMPDEST PUSH1 0x20 DUP3 ADD SWAP1 POP SWAP2 SWAP1 POP JUMP JUMPDEST PUSH0 PUSH1 0x40 DUP3 ADD SWAP1 POP DUP2 DUP2 SUB PUSH0 DUP4 ADD MSTORE PUSH2 0x56C DUP2 DUP5 PUSH2 0x4D2 JUMP JUMPDEST SWAP1 POP DUP2 DUP2 SUB PUSH1 0x20 DUP4 ADD MSTORE PUSH2 0x57F DUP2 PUSH2 0x532 JUMP JUMPDEST SWAP1 POP SWAP3 SWAP2 POP POP JUMP JUMPDEST PUSH0 DUP2 ISZERO ISZERO SWAP1 POP SWAP2 SWAP1 POP JUMP JUMPDEST PUSH2 0x59B DUP2 PUSH2 0x587 JUMP JUMPDEST DUP2 EQ PUSH2 0x5A5 JUMPI PUSH0 DUP1 REVERT JUMPDEST POP JUMP JUMPDEST PUSH0 DUP2 MLOAD SWAP1 POP PUSH2 0x5B6 DUP2 PUSH2 0x592 JUMP JUMPDEST SWAP3 SWAP2 POP POP JUMP JUMPDEST PUSH0 PUSH1 0x20 DUP3 DUP5 SUB SLT ISZERO PUSH2 0x5D1 JUMPI PUSH2 0x5D0 PUSH2 0x2E2 JUMP JUMPDEST JUMPDEST PUSH0 PUSH2 0x5DE DUP5 DUP3 DUP6 ADD PUSH2 0x5A8 JUMP JUMPDEST SWAP2 POP POP SWAP3 SWAP2 POP POP JUMP JUMPDEST PUSH32 0x4E487B7100000000000000000000000000000000000000000000000000000000 PUSH0 MSTORE PUSH1 0x12 PUSH1 0x4 MSTORE PUSH1 0x24 PUSH0 REVERT JUMPDEST PUSH32 0x4E487B7100000000000000000000000000000000000000000000000000000000 PUSH0 MSTORE PUSH1 0x11 PUSH1 0x4 MSTORE PUSH1 0x24 PUSH0 REVERT JUMPDEST PUSH0 PUSH2 0x64B DUP3 PUSH2 0x2A8 JUMP JUMPDEST SWAP2 POP PUSH2 0x656 DUP4 PUSH2 0x2A8 JUMP JUMPDEST SWAP3 POP DUP3 PUSH2 0x666 JUMPI PUSH2 0x665 PUSH2 0x5E7 JUMP JUMPDEST JUMPDEST DUP3 DUP3 DIV SWAP1 POP SWAP3 SWAP2 POP POP JUMP JUMPDEST PUSH32 0x736D616C6C657200000000000000000000000000000000000000000000000000 PUSH0 DUP3 ADD MSTORE POP JUMP JUMPDEST PUSH0 PUSH2 0x6A5 PUSH1 0x7 DUP4 PUSH2 0x4B4 JUMP JUMPDEST SWAP2 POP PUSH2 0x6B0 DUP3 PUSH2 0x671 JUMP JUMPDEST PUSH1 0x20 DUP3 ADD SWAP1 POP SWAP2 SWAP1 POP JUMP JUMPDEST PUSH0 PUSH1 0x40 DUP3 ADD SWAP1 POP DUP2 DUP2 SUB PUSH0 DUP4 ADD MSTORE PUSH2 0x6D3 DUP2 DUP5 PUSH2 0x4D2 JUMP JUMPDEST SWAP1 POP DUP2 DUP2 SUB PUSH1 0x20 DUP4 ADD MSTORE PUSH2 0x6E6 DUP2 PUSH2 0x699 JUMP JUMPDEST SWAP1 POP SWAP3 SWAP2 POP POP JUMP JUMPDEST PUSH0 PUSH2 0x6F8 DUP3 PUSH2 0x2A8 JUMP JUMPDEST SWAP2 POP PUSH2 0x703 DUP4 PUSH2 0x2A8 JUMP JUMPDEST SWAP3 POP DUP3 DUP3 MUL PUSH2 0x711 DUP2 PUSH2 0x2A8 JUMP JUMPDEST SWAP2 POP DUP3 DUP3 DIV DUP5 EQ DUP4 ISZERO OR PUSH2 0x728 JUMPI PUSH2 0x727 PUSH2 0x614 JUMP JUMPDEST JUMPDEST POP SWAP3 SWAP2 POP POP JUMP INVALID LOG2 PUSH5 0x6970667358 0x22 SLT KECCAK256 BLOCKHASH SWAP14 0xBE SAR PUSH5 0x734D3E832 0xDF EXTCODEHASH BLOBBASEFEE EXTCODECOPY GASLIMIT 0x4D ORIGIN 0xB0 PUSH29 0x698F0B138AC1021496EF1705BB64736F6C634300081A00330000000000 "
		},
		"gasEstimates": {
			"creation": {
				"codeDepositCost": "378600",
				"executionCost": "416",
				"totalCost": "379016"
			},
			"external": {
				"calculate(uint256,string)": "infinite",
				"ethValue()": "2447",
				"gweiValue()": "2425",
				"usd()": "2469",
				"weiValue()": "2402"
			}
		},
		"methodIdentifiers": {
			"calculate(uint256,string)": "ee5bed2e",
			"ethValue()": "c48dfed0",
			"gweiValue()": "23753f26",
			"usd()": "d63a6ccd",
			"weiValue()": "2289b155"
		}
	},
	"abi": [
		{
			"inputs": [
				{
					"internalType": "uint256",
					"name": "val",
					"type": "uint256"
				},
				{
					"internalType": "string",
					"name": "operation",
					"type": "string"
				}
			],
			"name": "calculate",
			"outputs": [],
			"stateMutability": "nonpayable",
			"type": "function"
		},
		{
			"inputs": [],
			"name": "ethValue",
			"outputs": [
				{
					"internalType": "uint256",
					"name": "",
					"type": "uint256"
				}
			],
			"stateMutability": "view",
			"type": "function"
		},
		{
			"inputs": [],
			"name": "gweiValue",
			"outputs": [
				{
					"internalType": "uint256",
					"name": "",
					"type": "uint256"
				}
			],
			"stateMutability": "view",
			"type": "function"
		},
		{
			"inputs": [],
			"name": "usd",
			"outputs": [
				{
					"internalType": "uint256",
					"name": "",
					"type": "uint256"
				}
			],
			"stateMutability": "view",
			"type": "function"
		},
		{
			"inputs": [],
			"name": "weiValue",
			"outputs": [
				{
					"internalType": "uint256",
					"name": "",
					"type": "uint256"
				}
			],
			"stateMutability": "view",
			"type": "function"
		}
	]
}