{
	"data": {
		"bytecode": {
			"linkReferences": {},
			"object": "60806040526802b5e3af16b18800005f55348015601a575f80fd5b50610671806100285f395ff3fe608060405260043610610049575f3560e01c80630d8e6e2c1461004d5780633430a88c1461007757806398d5fdca146100a1578063b60d4288146100cb578063d2d265f0146100d5575b5f80fd5b348015610058575f80fd5b50610061610111565b60405161006e91906102e8565b60405180910390f35b348015610082575f80fd5b5061008b61019d565b60405161009891906102e8565b60405180910390f35b3480156100ac575f80fd5b506100b56101a2565b6040516100c291906102e8565b60405180910390f35b6100d361024a565b005b3480156100e0575f80fd5b506100fb60048036038101906100f6919061032f565b610298565b60405161010891906102e8565b60405180910390f35b5f8073694aa1769357215de4fac081bf1f309adc32530690508073ffffffffffffffffffffffffffffffffffffffff166354fd4d506040518163ffffffff1660e01b8152600401602060405180830381865afa158015610173573d5f803e3d5ffd5b505050506040513d601f19601f82011682018060405250810190610197919061036e565b91505090565b5f5481565b5f8073694aa1769357215de4fac081bf1f309adc32530690505f8173ffffffffffffffffffffffffffffffffffffffff1663feaf968c6040518163ffffffff1660e01b815260040160a060405180830381865afa158015610205573d5f803e3d5ffd5b505050506040513d601f19601f82011682018060405250810190610229919061040b565b505050915050670de0b6b3a76400008161024391906104af565b9250505090565b5f5461025534610298565b1015610296576040517f08c379a000000000000000000000000000000000000000000000000000000000815260040161028d9061057f565b60405180910390fd5b565b5f806102a26101a2565b90505f670de0b6b3a764000084836102ba919061059d565b6102c4919061060b565b90508092505050919050565b5f819050919050565b6102e2816102d0565b82525050565b5f6020820190506102fb5f8301846102d9565b92915050565b5f80fd5b61030e816102d0565b8114610318575f80fd5b50565b5f8135905061032981610305565b92915050565b5f6020828403121561034457610343610301565b5b5f6103518482850161031b565b91505092915050565b5f8151905061036881610305565b92915050565b5f6020828403121561038357610382610301565b5b5f6103908482850161035a565b91505092915050565b5f69ffffffffffffffffffff82169050919050565b6103b781610399565b81146103c1575f80fd5b50565b5f815190506103d2816103ae565b92915050565b5f819050919050565b6103ea816103d8565b81146103f4575f80fd5b50565b5f81519050610405816103e1565b92915050565b5f805f805f60a0868803121561042457610423610301565b5b5f610431888289016103c4565b9550506020610442888289016103f7565b94505060406104538882890161035a565b93505060606104648882890161035a565b9250506080610475888289016103c4565b9150509295509295909350565b7f4e487b71000000000000000000000000000000000000000000000000000000005f52601160045260245ffd5b5f6104b9826103d8565b91506104c4836103d8565b92508282026104d2816103d8565b91507f800000000000000000000000000000000000000000000000000000000000000084145f8412161561050957610508610482565b5b828205841483151761051e5761051d610482565b5b5092915050565b5f82825260208201905092915050565b7f76616c7565206d7573742062652061746c6561737420312065746800000000005f82015250565b5f610569601b83610525565b915061057482610535565b602082019050919050565b5f6020820190508181035f8301526105968161055d565b9050919050565b5f6105a7826102d0565b91506105b2836102d0565b92508282026105c0816102d0565b915082820484148315176105d7576105d6610482565b5b5092915050565b7f4e487b71000000000000000000000000000000000000000000000000000000005f52601260045260245ffd5b5f610615826102d0565b9150610620836102d0565b9250826106305761062f6105de565b5b82820490509291505056fea26469706673582212205b85350b55f88734efce0499c6f2f4efcf1ae74b200ca687400456ceff8b419064736f6c634300081a0033",
			"opcodes": "PUSH1 0x80 PUSH1 0x40 MSTORE PUSH9 0x2B5E3AF16B1880000 PUSH0 SSTORE CALLVALUE DUP1 ISZERO PUSH1 0x1A JUMPI PUSH0 DUP1 REVERT JUMPDEST POP PUSH2 0x671 DUP1 PUSH2 0x28 PUSH0 CODECOPY PUSH0 RETURN INVALID PUSH1 0x80 PUSH1 0x40 MSTORE PUSH1 0x4 CALLDATASIZE LT PUSH2 0x49 JUMPI PUSH0 CALLDATALOAD PUSH1 0xE0 SHR DUP1 PUSH4 0xD8E6E2C EQ PUSH2 0x4D JUMPI DUP1 PUSH4 0x3430A88C EQ PUSH2 0x77 JUMPI DUP1 PUSH4 0x98D5FDCA EQ PUSH2 0xA1 JUMPI DUP1 PUSH4 0xB60D4288 EQ PUSH2 0xCB JUMPI DUP1 PUSH4 0xD2D265F0 EQ PUSH2 0xD5 JUMPI JUMPDEST PUSH0 DUP1 REVERT JUMPDEST CALLVALUE DUP1 ISZERO PUSH2 0x58 JUMPI PUSH0 DUP1 REVERT JUMPDEST POP PUSH2 0x61 PUSH2 0x111 JUMP JUMPDEST PUSH1 0x40 MLOAD PUSH2 0x6E SWAP2 SWAP1 PUSH2 0x2E8 JUMP JUMPDEST PUSH1 0x40 MLOAD DUP1 SWAP2 SUB SWAP1 RETURN JUMPDEST CALLVALUE DUP1 ISZERO PUSH2 0x82 JUMPI PUSH0 DUP1 REVERT JUMPDEST POP PUSH2 0x8B PUSH2 0x19D JUMP JUMPDEST PUSH1 0x40 MLOAD PUSH2 0x98 SWAP2 SWAP1 PUSH2 0x2E8 JUMP JUMPDEST PUSH1 0x40 MLOAD DUP1 SWAP2 SUB SWAP1 RETURN JUMPDEST CALLVALUE DUP1 ISZERO PUSH2 0xAC JUMPI PUSH0 DUP1 REVERT JUMPDEST POP PUSH2 0xB5 PUSH2 0x1A2 JUMP JUMPDEST PUSH1 0x40 MLOAD PUSH2 0xC2 SWAP2 SWAP1 PUSH2 0x2E8 JUMP JUMPDEST PUSH1 0x40 MLOAD DUP1 SWAP2 SUB SWAP1 RETURN JUMPDEST PUSH2 0xD3 PUSH2 0x24A JUMP JUMPDEST STOP JUMPDEST CALLVALUE DUP1 ISZERO PUSH2 0xE0 JUMPI PUSH0 DUP1 REVERT JUMPDEST POP PUSH2 0xFB PUSH1 0x4 DUP1 CALLDATASIZE SUB DUP2 ADD SWAP1 PUSH2 0xF6 SWAP2 SWAP1 PUSH2 0x32F JUMP JUMPDEST PUSH2 0x298 JUMP JUMPDEST PUSH1 0x40 MLOAD PUSH2 0x108 SWAP2 SWAP1 PUSH2 0x2E8 JUMP JUMPDEST PUSH1 0x40 MLOAD DUP1 SWAP2 SUB SWAP1 RETURN JUMPDEST PUSH0 DUP1 PUSH20 0x694AA1769357215DE4FAC081BF1F309ADC325306 SWAP1 POP DUP1 PUSH20 0xFFFFFFFFFFFFFFFFFFFFFFFFFFFFFFFFFFFFFFFF AND PUSH4 0x54FD4D50 PUSH1 0x40 MLOAD DUP2 PUSH4 0xFFFFFFFF AND PUSH1 0xE0 SHL DUP2 MSTORE PUSH1 0x4 ADD PUSH1 0x20 PUSH1 0x40 MLOAD DUP1 DUP4 SUB DUP2 DUP7 GAS STATICCALL ISZERO DUP1 ISZERO PUSH2 0x173 JUMPI RETURNDATASIZE PUSH0 DUP1 RETURNDATACOPY RETURNDATASIZE PUSH0 REVERT JUMPDEST POP POP POP POP PUSH1 0x40 MLOAD RETURNDATASIZE PUSH1 0x1F NOT PUSH1 0x1F DUP3 ADD AND DUP3 ADD DUP1 PUSH1 0x40 MSTORE POP DUP2 ADD SWAP1 PUSH2 0x197 SWAP2 SWAP1 PUSH2 0x36E JUMP JUMPDEST SWAP2 POP POP SWAP1 JUMP JUMPDEST PUSH0 SLOAD DUP2 JUMP JUMPDEST PUSH0 DUP1 PUSH20 0x694AA1769357215DE4FAC081BF1F309ADC325306 SWAP1 POP PUSH0 DUP2 PUSH20 0xFFFFFFFFFFFFFFFFFFFFFFFFFFFFFFFFFFFFFFFF AND PUSH4 0xFEAF968C PUSH1 0x40 MLOAD DUP2 PUSH4 0xFFFFFFFF AND PUSH1 0xE0 SHL DUP2 MSTORE PUSH1 0x4 ADD PUSH1 0xA0 PUSH1 0x40 MLOAD DUP1 DUP4 SUB DUP2 DUP7 GAS STATICCALL ISZERO DUP1 ISZERO PUSH2 0x205 JUMPI RETURNDATASIZE PUSH0 DUP1 RETURNDATACOPY RETURNDATASIZE PUSH0 REVERT JUMPDEST POP POP POP POP PUSH1 0x40 MLOAD RETURNDATASIZE PUSH1 0x1F NOT PUSH1 0x1F DUP3 ADD AND DUP3 ADD DUP1 PUSH1 0x40 MSTORE POP DUP2 ADD SWAP1 PUSH2 0x229 SWAP2 SWAP1 PUSH2 0x40B JUMP JUMPDEST POP POP POP SWAP2 POP POP PUSH8 0xDE0B6B3A7640000 DUP2 PUSH2 0x243 SWAP2 SWAP1 PUSH2 0x4AF JUMP JUMPDEST SWAP3 POP POP POP SWAP1 JUMP JUMPDEST PUSH0 SLOAD PUSH2 0x255 CALLVALUE PUSH2 0x298 JUMP JUMPDEST LT ISZERO PUSH2 0x296 JUMPI PUSH1 0x40 MLOAD PUSH32 0x8C379A000000000000000000000000000000000000000000000000000000000 DUP2 MSTORE PUSH1 0x4 ADD PUSH2 0x28D SWAP1 PUSH2 0x57F JUMP JUMPDEST PUSH1 0x40 MLOAD DUP1 SWAP2 SUB SWAP1 REVERT JUMPDEST JUMP JUMPDEST PUSH0 DUP1 PUSH2 0x2A2 PUSH2 0x1A2 JUMP JUMPDEST SWAP1 POP PUSH0 PUSH8 0xDE0B6B3A7640000 DUP5 DUP4 PUSH2 0x2BA SWAP2 SWAP1 PUSH2 0x59D JUMP JUMPDEST PUSH2 0x2C4 SWAP2 SWAP1 PUSH2 0x60B JUMP JUMPDEST SWAP1 POP DUP1 SWAP3 POP POP POP SWAP2 SWAP1 POP JUMP JUMPDEST PUSH0 DUP2 SWAP1 POP SWAP2 SWAP1 POP JUMP JUMPDEST PUSH2 0x2E2 DUP2 PUSH2 0x2D0 JUMP JUMPDEST DUP3 MSTORE POP POP JUMP JUMPDEST PUSH0 PUSH1 0x20 DUP3 ADD SWAP1 POP PUSH2 0x2FB PUSH0 DUP4 ADD DUP5 PUSH2 0x2D9 JUMP JUMPDEST SWAP3 SWAP2 POP POP JUMP JUMPDEST PUSH0 DUP1 REVERT JUMPDEST PUSH2 0x30E DUP2 PUSH2 0x2D0 JUMP JUMPDEST DUP2 EQ PUSH2 0x318 JUMPI PUSH0 DUP1 REVERT JUMPDEST POP JUMP JUMPDEST PUSH0 DUP2 CALLDATALOAD SWAP1 POP PUSH2 0x329 DUP2 PUSH2 0x305 JUMP JUMPDEST SWAP3 SWAP2 POP POP JUMP JUMPDEST PUSH0 PUSH1 0x20 DUP3 DUP5 SUB SLT ISZERO PUSH2 0x344 JUMPI PUSH2 0x343 PUSH2 0x301 JUMP JUMPDEST JUMPDEST PUSH0 PUSH2 0x351 DUP5 DUP3 DUP6 ADD PUSH2 0x31B JUMP JUMPDEST SWAP2 POP POP SWAP3 SWAP2 POP POP JUMP JUMPDEST PUSH0 DUP2 MLOAD SWAP1 POP PUSH2 0x368 DUP2 PUSH2 0x305 JUMP JUMPDEST SWAP3 SWAP2 POP POP JUMP JUMPDEST PUSH0 PUSH1 0x20 DUP3 DUP5 SUB SLT ISZERO PUSH2 0x383 JUMPI PUSH2 0x382 PUSH2 0x301 JUMP JUMPDEST JUMPDEST PUSH0 PUSH2 0x390 DUP5 DUP3 DUP6 ADD PUSH2 0x35A JUMP JUMPDEST SWAP2 POP POP SWAP3 SWAP2 POP POP JUMP JUMPDEST PUSH0 PUSH10 0xFFFFFFFFFFFFFFFFFFFF DUP3 AND SWAP1 POP SWAP2 SWAP1 POP JUMP JUMPDEST PUSH2 0x3B7 DUP2 PUSH2 0x399 JUMP JUMPDEST DUP2 EQ PUSH2 0x3C1 JUMPI PUSH0 DUP1 REVERT JUMPDEST POP JUMP JUMPDEST PUSH0 DUP2 MLOAD SWAP1 POP PUSH2 0x3D2 DUP2 PUSH2 0x3AE JUMP JUMPDEST SWAP3 SWAP2 POP POP JUMP JUMPDEST PUSH0 DUP2 SWAP1 POP SWAP2 SWAP1 POP JUMP JUMPDEST PUSH2 0x3EA DUP2 PUSH2 0x3D8 JUMP JUMPDEST DUP2 EQ PUSH2 0x3F4 JUMPI PUSH0 DUP1 REVERT JUMPDEST POP JUMP JUMPDEST PUSH0 DUP2 MLOAD SWAP1 POP PUSH2 0x405 DUP2 PUSH2 0x3E1 JUMP JUMPDEST SWAP3 SWAP2 POP POP JUMP JUMPDEST PUSH0 DUP1 PUSH0 DUP1 PUSH0 PUSH1 0xA0 DUP7 DUP9 SUB SLT ISZERO PUSH2 0x424 JUMPI PUSH2 0x423 PUSH2 0x301 JUMP JUMPDEST JUMPDEST PUSH0 PUSH2 0x431 DUP9 DUP3 DUP10 ADD PUSH2 0x3C4 JUMP JUMPDEST SWAP6 POP POP PUSH1 0x20 PUSH2 0x442 DUP9 DUP3 DUP10 ADD PUSH2 0x3F7 JUMP JUMPDEST SWAP5 POP POP PUSH1 0x40 PUSH2 0x453 DUP9 DUP3 DUP10 ADD PUSH2 0x35A JUMP JUMPDEST SWAP4 POP POP PUSH1 0x60 PUSH2 0x464 DUP9 DUP3 DUP10 ADD PUSH2 0x35A JUMP JUMPDEST SWAP3 POP POP PUSH1 0x80 PUSH2 0x475 DUP9 DUP3 DUP10 ADD PUSH2 0x3C4 JUMP JUMPDEST SWAP2 POP POP SWAP3 SWAP6 POP SWAP3 SWAP6 SWAP1 SWAP4 POP JUMP JUMPDEST PUSH32 0x4E487B7100000000000000000000000000000000000000000000000000000000 PUSH0 MSTORE PUSH1 0x11 PUSH1 0x4 MSTORE PUSH1 0x24 PUSH0 REVERT JUMPDEST PUSH0 PUSH2 0x4B9 DUP3 PUSH2 0x3D8 JUMP JUMPDEST SWAP2 POP PUSH2 0x4C4 DUP4 PUSH2 0x3D8 JUMP JUMPDEST SWAP3 POP DUP3 DUP3 MUL PUSH2 0x4D2 DUP2 PUSH2 0x3D8 JUMP JUMPDEST SWAP2 POP PUSH32 0x8000000000000000000000000000000000000000000000000000000000000000 DUP5 EQ PUSH0 DUP5 SLT AND ISZERO PUSH2 0x509 JUMPI PUSH2 0x508 PUSH2 0x482 JUMP JUMPDEST JUMPDEST DUP3 DUP3 SDIV DUP5 EQ DUP4 ISZERO OR PUSH2 0x51E JUMPI PUSH2 0x51D PUSH2 0x482 JUMP JUMPDEST JUMPDEST POP SWAP3 SWAP2 POP POP JUMP JUMPDEST PUSH0 DUP3 DUP3 MSTORE PUSH1 0x20 DUP3 ADD SWAP1 POP SWAP3 SWAP2 POP POP JUMP JUMPDEST PUSH32 0x76616C7565206D7573742062652061746C656173742031206574680000000000 PUSH0 DUP3 ADD MSTORE POP JUMP JUMPDEST PUSH0 PUSH2 0x569 PUSH1 0x1B DUP4 PUSH2 0x525 JUMP JUMPDEST SWAP2 POP PUSH2 0x574 DUP3 PUSH2 0x535 JUMP JUMPDEST PUSH1 0x20 DUP3 ADD SWAP1 POP SWAP2 SWAP1 POP JUMP JUMPDEST PUSH0 PUSH1 0x20 DUP3 ADD SWAP1 POP DUP2 DUP2 SUB PUSH0 DUP4 ADD MSTORE PUSH2 0x596 DUP2 PUSH2 0x55D JUMP JUMPDEST SWAP1 POP SWAP2 SWAP1 POP JUMP JUMPDEST PUSH0 PUSH2 0x5A7 DUP3 PUSH2 0x2D0 JUMP JUMPDEST SWAP2 POP PUSH2 0x5B2 DUP4 PUSH2 0x2D0 JUMP JUMPDEST SWAP3 POP DUP3 DUP3 MUL PUSH2 0x5C0 DUP2 PUSH2 0x2D0 JUMP JUMPDEST SWAP2 POP DUP3 DUP3 DIV DUP5 EQ DUP4 ISZERO OR PUSH2 0x5D7 JUMPI PUSH2 0x5D6 PUSH2 0x482 JUMP JUMPDEST JUMPDEST POP SWAP3 SWAP2 POP POP JUMP JUMPDEST PUSH32 0x4E487B7100000000000000000000000000000000000000000000000000000000 PUSH0 MSTORE PUSH1 0x12 PUSH1 0x4 MSTORE PUSH1 0x24 PUSH0 REVERT JUMPDEST PUSH0 PUSH2 0x615 DUP3 PUSH2 0x2D0 JUMP JUMPDEST SWAP2 POP PUSH2 0x620 DUP4 PUSH2 0x2D0 JUMP JUMPDEST SWAP3 POP DUP3 PUSH2 0x630 JUMPI PUSH2 0x62F PUSH2 0x5DE JUMP JUMPDEST JUMPDEST DUP3 DUP3 DIV SWAP1 POP SWAP3 SWAP2 POP POP JUMP INVALID LOG2 PUSH5 0x6970667358 0x22 SLT KECCAK256 JUMPDEST DUP6 CALLDATALOAD SIGNEXTEND SSTORE 0xF8 DUP8 CALLVALUE 0xEF 0xCE DIV SWAP10 0xC6 CALLCODE DELEGATECALL 0xEF 0xCF BYTE 0xE7 0x4B KECCAK256 0xC 0xA6 DUP8 BLOCKHASH DIV JUMP 0xCE SELFDESTRUCT DUP12 COINBASE SWAP1 PUSH5 0x736F6C6343 STOP ADDMOD BYTE STOP CALLER "
		},
		"gasEstimates": {
			"creation": {
				"codeDepositCost": "329800",
				"executionCost": "22471",
				"totalCost": "352271"
			},
			"external": {
				"convertPrice(uint256)": "infinite",
				"fund()": "infinite",
				"getPrice()": "infinite",
				"getVersion()": "infinite",
				"minimumUSD()": "2424"
			}
		},
		"methodIdentifiers": {
			"convertPrice(uint256)": "d2d265f0",
			"fund()": "b60d4288",
			"getPrice()": "98d5fdca",
			"getVersion()": "0d8e6e2c",
			"minimumUSD()": "3430a88c"
		}
	},
	"abi": [
		{
			"inputs": [
				{
					"internalType": "uint256",
					"name": "EthAmount",
					"type": "uint256"
				}
			],
			"name": "convertPrice",
			"outputs": [
				{
					"internalType": "uint256",
					"name": "",
					"type": "uint256"
				}
			],
			"stateMutability": "view",
			"type": "function"
		},
		{
			"inputs": [],
			"name": "fund",
			"outputs": [],
			"stateMutability": "payable",
			"type": "function"
		},
		{
			"inputs": [],
			"name": "getPrice",
			"outputs": [
				{
					"internalType": "uint256",
					"name": "",
					"type": "uint256"
				}
			],
			"stateMutability": "view",
			"type": "function"
		},
		{
			"inputs": [],
			"name": "getVersion",
			"outputs": [
				{
					"internalType": "uint256",
					"name": "",
					"type": "uint256"
				}
			],
			"stateMutability": "view",
			"type": "function"
		},
		{
			"inputs": [],
			"name": "minimumUSD",
			"outputs": [
				{
					"internalType": "uint256",
					"name": "",
					"type": "uint256"
				}
			],
			"stateMutability": "view",
			"type": "function"
		}
	]
}