{
	"data": {
		"bytecode": {
			"linkReferences": {},
			"object": "608060405234801561001057600080fd5b5033600560006101000a81548173ffffffffffffffffffffffffffffffffffffffff021916908373ffffffffffffffffffffffffffffffffffffffff16021790555061171b806100616000396000f3fe608060405234801561001057600080fd5b50600436106100935760003560e01c806381fbd3291161006657806381fbd32914610131578063a9a981a314610161578063a9bedae41461017f578063aae46bab146101af578063de292789146101df57610093565b806335b8e82014610098578063462e91ec146100c85780634c101149146100e457806379916eb414610100575b600080fd5b6100b260048036038101906100ad9190610a48565b6101fd565b6040516100bf9190610b51565b60405180910390f35b6100e260048036038101906100dd9190610ca8565b61030a565b005b6100fe60048036038101906100f99190610d27565b610403565b005b61011a60048036038101906101159190610d7a565b610622565b604051610128929190610e00565b60405180910390f35b61014b60048036038101906101469190610a48565b6106ce565b6040516101589190610e3f565b60405180910390f35b6101696106f2565b6040516101769190610e5a565b60405180910390f35b61019960048036038101906101949190610d7a565b6106f8565b6040516101a69190610b51565b60405180910390f35b6101c960048036038101906101c49190610d7a565b610821565b6040516101d69190610e90565b60405180910390f35b6101e7610841565b6040516101f49190610fb9565b60405180910390f35b6102056109c7565b6006548210610249576040517f08c379a000000000000000000000000000000000000000000000000000000000815260040161024090611027565b60405180910390fd5b6001600083815260200190815260200160002060405180604001604052908160008201805461027790611076565b80601f01602080910402602001604051908101604052809291908181526020018280546102a390611076565b80156102f05780601f106102c5576101008083540402835291602001916102f0565b820191906000526020600020905b8154815290600101906020018083116102d357829003601f168201915b505050505081526020016001820154815250509050919050565b600560009054906101000a900473ffffffffffffffffffffffffffffffffffffffff1673ffffffffffffffffffffffffffffffffffffffff163373ffffffffffffffffffffffffffffffffffffffff161461039a576040517f08c379a0000000000000000000000000000000000000000000000000000000008152600401610391906110f3565b60405180910390fd5b6040518060400160405280828152602001600081525060016000600654815260200190815260200160002060008201518160000190816103da91906112bf565b5060208201518160010155905050600660008154809291906103fb906113c0565b919050555050565b6002600084815260200190815260200160002060009054906101000a900460ff1615610464576040517f08c379a000000000000000000000000000000000000000000000000000000000815260040161045b90611454565b60405180910390fd5b600060016000838152602001908152602001600020600001805461048790611076565b9050116104c9576040517f08c379a00000000000000000000000000000000000000000000000000000000081526004016104c0906114c0565b60405180910390fd5b60008083815260200190815260200160002060009054906101000a900460ff1615610529576040517f08c379a00000000000000000000000000000000000000000000000000000000081526004016105209061152c565b60405180910390fd5b600160008084815260200190815260200160002060006101000a81548160ff02191690831515021790555060016002600085815260200190815260200160002060006101000a81548160ff0219169083151502179055506001600082815260200190815260200160002060010160008154809291906105a7906113c0565b91905055506001600082815260200190815260200160002060036000858152602001908152602001600020600082018160000190816105e69190611562565b50600182015481600101559050506004839080600181540180825580915050600190039060005260206000200160009091909190915055505050565b600360205280600052604060002060009150905080600001805461064590611076565b80601f016020809104026020016040519081016040528092919081815260200182805461067190611076565b80156106be5780601f10610693576101008083540402835291602001916106be565b820191906000526020600020905b8154815290600101906020018083116106a157829003601f168201915b5050505050908060010154905082565b600481815481106106de57600080fd5b906000526020600020016000915090505481565b60065481565b6107006109c7565b6002600083815260200190815260200160002060009054906101000a900460ff16610760576040517f08c379a000000000000000000000000000000000000000000000000000000000815260040161075790611696565b60405180910390fd5b6003600083815260200190815260200160002060405180604001604052908160008201805461078e90611076565b80601f01602080910402602001604051908101604052809291908181526020018280546107ba90611076565b80156108075780601f106107dc57610100808354040283529160200191610807565b820191906000526020600020905b8154815290600101906020018083116107ea57829003601f168201915b505050505081526020016001820154815250509050919050565b60026020528060005260406000206000915054906101000a900460ff1681565b60606000600480549050905060008167ffffffffffffffff81111561086957610868610b7d565b5b6040519080825280602002602001820160405280156108a257816020015b61088f6109e1565b8152602001906001900390816108875790505b50905060005b828110156109be576000600482815481106108c6576108c56116b6565b5b9060005260206000200154905060006003600083815260200190815260200160002060000180546108f690611076565b80601f016020809104026020016040519081016040528092919081815260200182805461092290611076565b801561096f5780601f106109445761010080835404028352916020019161096f565b820191906000526020600020905b81548152906001019060200180831161095257829003601f168201915b5050505050905060405180604001604052808381526020018281525084848151811061099e5761099d6116b6565b5b6020026020010181905250505080806109b6906113c0565b9150506108a8565b50809250505090565b604051806040016040528060608152602001600081525090565b604051806040016040528060008019168152602001606081525090565b6000604051905090565b600080fd5b600080fd5b6000819050919050565b610a2581610a12565b8114610a3057600080fd5b50565b600081359050610a4281610a1c565b92915050565b600060208284031215610a5e57610a5d610a08565b5b6000610a6c84828501610a33565b91505092915050565b600081519050919050565b600082825260208201905092915050565b60005b83811015610aaf578082015181840152602081019050610a94565b60008484015250505050565b6000601f19601f8301169050919050565b6000610ad782610a75565b610ae18185610a80565b9350610af1818560208601610a91565b610afa81610abb565b840191505092915050565b610b0e81610a12565b82525050565b60006040830160008301518482036000860152610b318282610acc565b9150506020830151610b466020860182610b05565b508091505092915050565b60006020820190508181036000830152610b6b8184610b14565b905092915050565b600080fd5b600080fd5b7f4e487b7100000000000000000000000000000000000000000000000000000000600052604160045260246000fd5b610bb582610abb565b810181811067ffffffffffffffff82111715610bd457610bd3610b7d565b5b80604052505050565b6000610be76109fe565b9050610bf38282610bac565b919050565b600067ffffffffffffffff821115610c1357610c12610b7d565b5b610c1c82610abb565b9050602081019050919050565b82818337600083830152505050565b6000610c4b610c4684610bf8565b610bdd565b905082815260208101848484011115610c6757610c66610b78565b5b610c72848285610c29565b509392505050565b600082601f830112610c8f57610c8e610b73565b5b8135610c9f848260208601610c38565b91505092915050565b600060208284031215610cbe57610cbd610a08565b5b600082013567ffffffffffffffff811115610cdc57610cdb610a0d565b5b610ce884828501610c7a565b91505092915050565b6000819050919050565b610d0481610cf1565b8114610d0f57600080fd5b50565b600081359050610d2181610cfb565b92915050565b600080600060608486031215610d4057610d3f610a08565b5b6000610d4e86828701610d12565b9350506020610d5f86828701610a33565b9250506040610d7086828701610a33565b9150509250925092565b600060208284031215610d9057610d8f610a08565b5b6000610d9e84828501610d12565b91505092915050565b600082825260208201905092915050565b6000610dc382610a75565b610dcd8185610da7565b9350610ddd818560208601610a91565b610de681610abb565b840191505092915050565b610dfa81610a12565b82525050565b60006040820190508181036000830152610e1a8185610db8565b9050610e296020830184610df1565b9392505050565b610e3981610cf1565b82525050565b6000602082019050610e546000830184610e30565b92915050565b6000602082019050610e6f6000830184610df1565b92915050565b60008115159050919050565b610e8a81610e75565b82525050565b6000602082019050610ea56000830184610e81565b92915050565b600081519050919050565b600082825260208201905092915050565b6000819050602082019050919050565b610ee081610cf1565b82525050565b6000604083016000830151610efe6000860182610ed7565b5060208301518482036020860152610f168282610acc565b9150508091505092915050565b6000610f2f8383610ee6565b905092915050565b6000602082019050919050565b6000610f4f82610eab565b610f598185610eb6565b935083602082028501610f6b85610ec7565b8060005b85811015610fa75784840389528151610f888582610f23565b9450610f9383610f37565b925060208a01995050600181019050610f6f565b50829750879550505050505092915050565b60006020820190508181036000830152610fd38184610f44565b905092915050565b7f43616e64696461746520646f6573206e6f742065786973740000000000000000600082015250565b6000611011601883610da7565b915061101c82610fdb565b602082019050919050565b6000602082019050818103600083015261104081611004565b9050919050565b7f4e487b7100000000000000000000000000000000000000000000000000000000600052602260045260246000fd5b6000600282049050600182168061108e57607f821691505b6020821081036110a1576110a0611047565b5b50919050565b7f596f752068617665206e6f20617574686f726974790000000000000000000000600082015250565b60006110dd601583610da7565b91506110e8826110a7565b602082019050919050565b6000602082019050818103600083015261110c816110d0565b9050919050565b60008190508160005260206000209050919050565b60006020601f8301049050919050565b600082821b905092915050565b6000600883026111757fffffffffffffffffffffffffffffffffffffffffffffffffffffffffffffffff82611138565b61117f8683611138565b95508019841693508086168417925050509392505050565b6000819050919050565b60006111bc6111b76111b284610a12565b611197565b610a12565b9050919050565b6000819050919050565b6111d6836111a1565b6111ea6111e2826111c3565b848454611145565b825550505050565b600090565b6111ff6111f2565b61120a8184846111cd565b505050565b5b8181101561122e576112236000826111f7565b600181019050611210565b5050565b601f8211156112735761124481611113565b61124d84611128565b8101602085101561125c578190505b61127061126885611128565b83018261120f565b50505b505050565b600082821c905092915050565b600061129660001984600802611278565b1980831691505092915050565b60006112af8383611285565b9150826002028217905092915050565b6112c882610a75565b67ffffffffffffffff8111156112e1576112e0610b7d565b5b6112eb8254611076565b6112f6828285611232565b600060209050601f8311600181146113295760008415611317578287015190505b61132185826112a3565b865550611389565b601f19841661133786611113565b60005b8281101561135f5784890151825560018201915060208501945060208101905061133a565b8683101561137c5784890151611378601f891682611285565b8355505b6001600288020188555050505b505050505050565b7f4e487b7100000000000000000000000000000000000000000000000000000000600052601160045260246000fd5b60006113cb82610a12565b91507fffffffffffffffffffffffffffffffffffffffffffffffffffffffffffffffff82036113fd576113fc611391565b5b600182019050919050565b7f53657269616c206e756d62657220616c72656164792075736564000000000000600082015250565b600061143e601a83610da7565b915061144982611408565b602082019050919050565b6000602082019050818103600083015261146d81611431565b9050919050565b7f496e76616c69642063616e64696461746520696e646578000000000000000000600082015250565b60006114aa601783610da7565b91506114b582611474565b602082019050919050565b600060208201905081810360008301526114d98161149d565b9050919050565b7f434e494320697320616c72656164792070726573656e742c20736f7272792e00600082015250565b6000611516601f83610da7565b9150611521826114e0565b602082019050919050565b6000602082019050818103600083015261154581611509565b9050919050565b60008154905061155b81611076565b9050919050565b818103611570575050611648565b6115798261154c565b67ffffffffffffffff81111561159257611591610b7d565b5b61159c8254611076565b6115a7828285611232565b6000601f8311600181146115d657600084156115c4578287015490505b6115ce85826112a3565b865550611641565b601f1984166115e487611113565b96506115ef86611113565b60005b82811015611617578489015482556001820191506001850194506020810190506115f2565b868310156116345784890154611630601f891682611285565b8355505b6001600288020188555050505b5050505050505b565b7f53657269616c206e756d62657220686173206e6f7420766f7465640000000000600082015250565b6000611680601b83610da7565b915061168b8261164a565b602082019050919050565b600060208201905081810360008301526116af81611673565b9050919050565b7f4e487b7100000000000000000000000000000000000000000000000000000000600052603260045260246000fdfea26469706673582212201672caaeb621056fae16239b46011395bf9091816c00a09eff69601a653daaac64736f6c63430008120033",
			"opcodes": "PUSH1 0x80 PUSH1 0x40 MSTORE CALLVALUE DUP1 ISZERO PUSH2 0x10 JUMPI PUSH1 0x0 DUP1 REVERT JUMPDEST POP CALLER PUSH1 0x5 PUSH1 0x0 PUSH2 0x100 EXP DUP2 SLOAD DUP2 PUSH20 0xFFFFFFFFFFFFFFFFFFFFFFFFFFFFFFFFFFFFFFFF MUL NOT AND SWAP1 DUP4 PUSH20 0xFFFFFFFFFFFFFFFFFFFFFFFFFFFFFFFFFFFFFFFF AND MUL OR SWAP1 SSTORE POP PUSH2 0x171B DUP1 PUSH2 0x61 PUSH1 0x0 CODECOPY PUSH1 0x0 RETURN INVALID PUSH1 0x80 PUSH1 0x40 MSTORE CALLVALUE DUP1 ISZERO PUSH2 0x10 JUMPI PUSH1 0x0 DUP1 REVERT JUMPDEST POP PUSH1 0x4 CALLDATASIZE LT PUSH2 0x93 JUMPI PUSH1 0x0 CALLDATALOAD PUSH1 0xE0 SHR DUP1 PUSH4 0x81FBD329 GT PUSH2 0x66 JUMPI DUP1 PUSH4 0x81FBD329 EQ PUSH2 0x131 JUMPI DUP1 PUSH4 0xA9A981A3 EQ PUSH2 0x161 JUMPI DUP1 PUSH4 0xA9BEDAE4 EQ PUSH2 0x17F JUMPI DUP1 PUSH4 0xAAE46BAB EQ PUSH2 0x1AF JUMPI DUP1 PUSH4 0xDE292789 EQ PUSH2 0x1DF JUMPI PUSH2 0x93 JUMP JUMPDEST DUP1 PUSH4 0x35B8E820 EQ PUSH2 0x98 JUMPI DUP1 PUSH4 0x462E91EC EQ PUSH2 0xC8 JUMPI DUP1 PUSH4 0x4C101149 EQ PUSH2 0xE4 JUMPI DUP1 PUSH4 0x79916EB4 EQ PUSH2 0x100 JUMPI JUMPDEST PUSH1 0x0 DUP1 REVERT JUMPDEST PUSH2 0xB2 PUSH1 0x4 DUP1 CALLDATASIZE SUB DUP2 ADD SWAP1 PUSH2 0xAD SWAP2 SWAP1 PUSH2 0xA48 JUMP JUMPDEST PUSH2 0x1FD JUMP JUMPDEST PUSH1 0x40 MLOAD PUSH2 0xBF SWAP2 SWAP1 PUSH2 0xB51 JUMP JUMPDEST PUSH1 0x40 MLOAD DUP1 SWAP2 SUB SWAP1 RETURN JUMPDEST PUSH2 0xE2 PUSH1 0x4 DUP1 CALLDATASIZE SUB DUP2 ADD SWAP1 PUSH2 0xDD SWAP2 SWAP1 PUSH2 0xCA8 JUMP JUMPDEST PUSH2 0x30A JUMP JUMPDEST STOP JUMPDEST PUSH2 0xFE PUSH1 0x4 DUP1 CALLDATASIZE SUB DUP2 ADD SWAP1 PUSH2 0xF9 SWAP2 SWAP1 PUSH2 0xD27 JUMP JUMPDEST PUSH2 0x403 JUMP JUMPDEST STOP JUMPDEST PUSH2 0x11A PUSH1 0x4 DUP1 CALLDATASIZE SUB DUP2 ADD SWAP1 PUSH2 0x115 SWAP2 SWAP1 PUSH2 0xD7A JUMP JUMPDEST PUSH2 0x622 JUMP JUMPDEST PUSH1 0x40 MLOAD PUSH2 0x128 SWAP3 SWAP2 SWAP1 PUSH2 0xE00 JUMP JUMPDEST PUSH1 0x40 MLOAD DUP1 SWAP2 SUB SWAP1 RETURN JUMPDEST PUSH2 0x14B PUSH1 0x4 DUP1 CALLDATASIZE SUB DUP2 ADD SWAP1 PUSH2 0x146 SWAP2 SWAP1 PUSH2 0xA48 JUMP JUMPDEST PUSH2 0x6CE JUMP JUMPDEST PUSH1 0x40 MLOAD PUSH2 0x158 SWAP2 SWAP1 PUSH2 0xE3F JUMP JUMPDEST PUSH1 0x40 MLOAD DUP1 SWAP2 SUB SWAP1 RETURN JUMPDEST PUSH2 0x169 PUSH2 0x6F2 JUMP JUMPDEST PUSH1 0x40 MLOAD PUSH2 0x176 SWAP2 SWAP1 PUSH2 0xE5A JUMP JUMPDEST PUSH1 0x40 MLOAD DUP1 SWAP2 SUB SWAP1 RETURN JUMPDEST PUSH2 0x199 PUSH1 0x4 DUP1 CALLDATASIZE SUB DUP2 ADD SWAP1 PUSH2 0x194 SWAP2 SWAP1 PUSH2 0xD7A JUMP JUMPDEST PUSH2 0x6F8 JUMP JUMPDEST PUSH1 0x40 MLOAD PUSH2 0x1A6 SWAP2 SWAP1 PUSH2 0xB51 JUMP JUMPDEST PUSH1 0x40 MLOAD DUP1 SWAP2 SUB SWAP1 RETURN JUMPDEST PUSH2 0x1C9 PUSH1 0x4 DUP1 CALLDATASIZE SUB DUP2 ADD SWAP1 PUSH2 0x1C4 SWAP2 SWAP1 PUSH2 0xD7A JUMP JUMPDEST PUSH2 0x821 JUMP JUMPDEST PUSH1 0x40 MLOAD PUSH2 0x1D6 SWAP2 SWAP1 PUSH2 0xE90 JUMP JUMPDEST PUSH1 0x40 MLOAD DUP1 SWAP2 SUB SWAP1 RETURN JUMPDEST PUSH2 0x1E7 PUSH2 0x841 JUMP JUMPDEST PUSH1 0x40 MLOAD PUSH2 0x1F4 SWAP2 SWAP1 PUSH2 0xFB9 JUMP JUMPDEST PUSH1 0x40 MLOAD DUP1 SWAP2 SUB SWAP1 RETURN JUMPDEST PUSH2 0x205 PUSH2 0x9C7 JUMP JUMPDEST PUSH1 0x6 SLOAD DUP3 LT PUSH2 0x249 JUMPI PUSH1 0x40 MLOAD PUSH32 0x8C379A000000000000000000000000000000000000000000000000000000000 DUP2 MSTORE PUSH1 0x4 ADD PUSH2 0x240 SWAP1 PUSH2 0x1027 JUMP JUMPDEST PUSH1 0x40 MLOAD DUP1 SWAP2 SUB SWAP1 REVERT JUMPDEST PUSH1 0x1 PUSH1 0x0 DUP4 DUP2 MSTORE PUSH1 0x20 ADD SWAP1 DUP2 MSTORE PUSH1 0x20 ADD PUSH1 0x0 KECCAK256 PUSH1 0x40 MLOAD DUP1 PUSH1 0x40 ADD PUSH1 0x40 MSTORE SWAP1 DUP2 PUSH1 0x0 DUP3 ADD DUP1 SLOAD PUSH2 0x277 SWAP1 PUSH2 0x1076 JUMP JUMPDEST DUP1 PUSH1 0x1F ADD PUSH1 0x20 DUP1 SWAP2 DIV MUL PUSH1 0x20 ADD PUSH1 0x40 MLOAD SWAP1 DUP2 ADD PUSH1 0x40 MSTORE DUP1 SWAP3 SWAP2 SWAP1 DUP2 DUP2 MSTORE PUSH1 0x20 ADD DUP3 DUP1 SLOAD PUSH2 0x2A3 SWAP1 PUSH2 0x1076 JUMP JUMPDEST DUP1 ISZERO PUSH2 0x2F0 JUMPI DUP1 PUSH1 0x1F LT PUSH2 0x2C5 JUMPI PUSH2 0x100 DUP1 DUP4 SLOAD DIV MUL DUP4 MSTORE SWAP2 PUSH1 0x20 ADD SWAP2 PUSH2 0x2F0 JUMP JUMPDEST DUP3 ADD SWAP2 SWAP1 PUSH1 0x0 MSTORE PUSH1 0x20 PUSH1 0x0 KECCAK256 SWAP1 JUMPDEST DUP2 SLOAD DUP2 MSTORE SWAP1 PUSH1 0x1 ADD SWAP1 PUSH1 0x20 ADD DUP1 DUP4 GT PUSH2 0x2D3 JUMPI DUP3 SWAP1 SUB PUSH1 0x1F AND DUP3 ADD SWAP2 JUMPDEST POP POP POP POP POP DUP2 MSTORE PUSH1 0x20 ADD PUSH1 0x1 DUP3 ADD SLOAD DUP2 MSTORE POP POP SWAP1 POP SWAP2 SWAP1 POP JUMP JUMPDEST PUSH1 0x5 PUSH1 0x0 SWAP1 SLOAD SWAP1 PUSH2 0x100 EXP SWAP1 DIV PUSH20 0xFFFFFFFFFFFFFFFFFFFFFFFFFFFFFFFFFFFFFFFF AND PUSH20 0xFFFFFFFFFFFFFFFFFFFFFFFFFFFFFFFFFFFFFFFF AND CALLER PUSH20 0xFFFFFFFFFFFFFFFFFFFFFFFFFFFFFFFFFFFFFFFF AND EQ PUSH2 0x39A JUMPI PUSH1 0x40 MLOAD PUSH32 0x8C379A000000000000000000000000000000000000000000000000000000000 DUP2 MSTORE PUSH1 0x4 ADD PUSH2 0x391 SWAP1 PUSH2 0x10F3 JUMP JUMPDEST PUSH1 0x40 MLOAD DUP1 SWAP2 SUB SWAP1 REVERT JUMPDEST PUSH1 0x40 MLOAD DUP1 PUSH1 0x40 ADD PUSH1 0x40 MSTORE DUP1 DUP3 DUP2 MSTORE PUSH1 0x20 ADD PUSH1 0x0 DUP2 MSTORE POP PUSH1 0x1 PUSH1 0x0 PUSH1 0x6 SLOAD DUP2 MSTORE PUSH1 0x20 ADD SWAP1 DUP2 MSTORE PUSH1 0x20 ADD PUSH1 0x0 KECCAK256 PUSH1 0x0 DUP3 ADD MLOAD DUP2 PUSH1 0x0 ADD SWAP1 DUP2 PUSH2 0x3DA SWAP2 SWAP1 PUSH2 0x12BF JUMP JUMPDEST POP PUSH1 0x20 DUP3 ADD MLOAD DUP2 PUSH1 0x1 ADD SSTORE SWAP1 POP POP PUSH1 0x6 PUSH1 0x0 DUP2 SLOAD DUP1 SWAP3 SWAP2 SWAP1 PUSH2 0x3FB SWAP1 PUSH2 0x13C0 JUMP JUMPDEST SWAP2 SWAP1 POP SSTORE POP POP JUMP JUMPDEST PUSH1 0x2 PUSH1 0x0 DUP5 DUP2 MSTORE PUSH1 0x20 ADD SWAP1 DUP2 MSTORE PUSH1 0x20 ADD PUSH1 0x0 KECCAK256 PUSH1 0x0 SWAP1 SLOAD SWAP1 PUSH2 0x100 EXP SWAP1 DIV PUSH1 0xFF AND ISZERO PUSH2 0x464 JUMPI PUSH1 0x40 MLOAD PUSH32 0x8C379A000000000000000000000000000000000000000000000000000000000 DUP2 MSTORE PUSH1 0x4 ADD PUSH2 0x45B SWAP1 PUSH2 0x1454 JUMP JUMPDEST PUSH1 0x40 MLOAD DUP1 SWAP2 SUB SWAP1 REVERT JUMPDEST PUSH1 0x0 PUSH1 0x1 PUSH1 0x0 DUP4 DUP2 MSTORE PUSH1 0x20 ADD SWAP1 DUP2 MSTORE PUSH1 0x20 ADD PUSH1 0x0 KECCAK256 PUSH1 0x0 ADD DUP1 SLOAD PUSH2 0x487 SWAP1 PUSH2 0x1076 JUMP JUMPDEST SWAP1 POP GT PUSH2 0x4C9 JUMPI PUSH1 0x40 MLOAD PUSH32 0x8C379A000000000000000000000000000000000000000000000000000000000 DUP2 MSTORE PUSH1 0x4 ADD PUSH2 0x4C0 SWAP1 PUSH2 0x14C0 JUMP JUMPDEST PUSH1 0x40 MLOAD DUP1 SWAP2 SUB SWAP1 REVERT JUMPDEST PUSH1 0x0 DUP1 DUP4 DUP2 MSTORE PUSH1 0x20 ADD SWAP1 DUP2 MSTORE PUSH1 0x20 ADD PUSH1 0x0 KECCAK256 PUSH1 0x0 SWAP1 SLOAD SWAP1 PUSH2 0x100 EXP SWAP1 DIV PUSH1 0xFF AND ISZERO PUSH2 0x529 JUMPI PUSH1 0x40 MLOAD PUSH32 0x8C379A000000000000000000000000000000000000000000000000000000000 DUP2 MSTORE PUSH1 0x4 ADD PUSH2 0x520 SWAP1 PUSH2 0x152C JUMP JUMPDEST PUSH1 0x40 MLOAD DUP1 SWAP2 SUB SWAP1 REVERT JUMPDEST PUSH1 0x1 PUSH1 0x0 DUP1 DUP5 DUP2 MSTORE PUSH1 0x20 ADD SWAP1 DUP2 MSTORE PUSH1 0x20 ADD PUSH1 0x0 KECCAK256 PUSH1 0x0 PUSH2 0x100 EXP DUP2 SLOAD DUP2 PUSH1 0xFF MUL NOT AND SWAP1 DUP4 ISZERO ISZERO MUL OR SWAP1 SSTORE POP PUSH1 0x1 PUSH1 0x2 PUSH1 0x0 DUP6 DUP2 MSTORE PUSH1 0x20 ADD SWAP1 DUP2 MSTORE PUSH1 0x20 ADD PUSH1 0x0 KECCAK256 PUSH1 0x0 PUSH2 0x100 EXP DUP2 SLOAD DUP2 PUSH1 0xFF MUL NOT AND SWAP1 DUP4 ISZERO ISZERO MUL OR SWAP1 SSTORE POP PUSH1 0x1 PUSH1 0x0 DUP3 DUP2 MSTORE PUSH1 0x20 ADD SWAP1 DUP2 MSTORE PUSH1 0x20 ADD PUSH1 0x0 KECCAK256 PUSH1 0x1 ADD PUSH1 0x0 DUP2 SLOAD DUP1 SWAP3 SWAP2 SWAP1 PUSH2 0x5A7 SWAP1 PUSH2 0x13C0 JUMP JUMPDEST SWAP2 SWAP1 POP SSTORE POP PUSH1 0x1 PUSH1 0x0 DUP3 DUP2 MSTORE PUSH1 0x20 ADD SWAP1 DUP2 MSTORE PUSH1 0x20 ADD PUSH1 0x0 KECCAK256 PUSH1 0x3 PUSH1 0x0 DUP6 DUP2 MSTORE PUSH1 0x20 ADD SWAP1 DUP2 MSTORE PUSH1 0x20 ADD PUSH1 0x0 KECCAK256 PUSH1 0x0 DUP3 ADD DUP2 PUSH1 0x0 ADD SWAP1 DUP2 PUSH2 0x5E6 SWAP2 SWAP1 PUSH2 0x1562 JUMP JUMPDEST POP PUSH1 0x1 DUP3 ADD SLOAD DUP2 PUSH1 0x1 ADD SSTORE SWAP1 POP POP PUSH1 0x4 DUP4 SWAP1 DUP1 PUSH1 0x1 DUP2 SLOAD ADD DUP1 DUP3 SSTORE DUP1 SWAP2 POP POP PUSH1 0x1 SWAP1 SUB SWAP1 PUSH1 0x0 MSTORE PUSH1 0x20 PUSH1 0x0 KECCAK256 ADD PUSH1 0x0 SWAP1 SWAP2 SWAP1 SWAP2 SWAP1 SWAP2 POP SSTORE POP POP POP JUMP JUMPDEST PUSH1 0x3 PUSH1 0x20 MSTORE DUP1 PUSH1 0x0 MSTORE PUSH1 0x40 PUSH1 0x0 KECCAK256 PUSH1 0x0 SWAP2 POP SWAP1 POP DUP1 PUSH1 0x0 ADD DUP1 SLOAD PUSH2 0x645 SWAP1 PUSH2 0x1076 JUMP JUMPDEST DUP1 PUSH1 0x1F ADD PUSH1 0x20 DUP1 SWAP2 DIV MUL PUSH1 0x20 ADD PUSH1 0x40 MLOAD SWAP1 DUP2 ADD PUSH1 0x40 MSTORE DUP1 SWAP3 SWAP2 SWAP1 DUP2 DUP2 MSTORE PUSH1 0x20 ADD DUP3 DUP1 SLOAD PUSH2 0x671 SWAP1 PUSH2 0x1076 JUMP JUMPDEST DUP1 ISZERO PUSH2 0x6BE JUMPI DUP1 PUSH1 0x1F LT PUSH2 0x693 JUMPI PUSH2 0x100 DUP1 DUP4 SLOAD DIV MUL DUP4 MSTORE SWAP2 PUSH1 0x20 ADD SWAP2 PUSH2 0x6BE JUMP JUMPDEST DUP3 ADD SWAP2 SWAP1 PUSH1 0x0 MSTORE PUSH1 0x20 PUSH1 0x0 KECCAK256 SWAP1 JUMPDEST DUP2 SLOAD DUP2 MSTORE SWAP1 PUSH1 0x1 ADD SWAP1 PUSH1 0x20 ADD DUP1 DUP4 GT PUSH2 0x6A1 JUMPI DUP3 SWAP1 SUB PUSH1 0x1F AND DUP3 ADD SWAP2 JUMPDEST POP POP POP POP POP SWAP1 DUP1 PUSH1 0x1 ADD SLOAD SWAP1 POP DUP3 JUMP JUMPDEST PUSH1 0x4 DUP2 DUP2 SLOAD DUP2 LT PUSH2 0x6DE JUMPI PUSH1 0x0 DUP1 REVERT JUMPDEST SWAP1 PUSH1 0x0 MSTORE PUSH1 0x20 PUSH1 0x0 KECCAK256 ADD PUSH1 0x0 SWAP2 POP SWAP1 POP SLOAD DUP2 JUMP JUMPDEST PUSH1 0x6 SLOAD DUP2 JUMP JUMPDEST PUSH2 0x700 PUSH2 0x9C7 JUMP JUMPDEST PUSH1 0x2 PUSH1 0x0 DUP4 DUP2 MSTORE PUSH1 0x20 ADD SWAP1 DUP2 MSTORE PUSH1 0x20 ADD PUSH1 0x0 KECCAK256 PUSH1 0x0 SWAP1 SLOAD SWAP1 PUSH2 0x100 EXP SWAP1 DIV PUSH1 0xFF AND PUSH2 0x760 JUMPI PUSH1 0x40 MLOAD PUSH32 0x8C379A000000000000000000000000000000000000000000000000000000000 DUP2 MSTORE PUSH1 0x4 ADD PUSH2 0x757 SWAP1 PUSH2 0x1696 JUMP JUMPDEST PUSH1 0x40 MLOAD DUP1 SWAP2 SUB SWAP1 REVERT JUMPDEST PUSH1 0x3 PUSH1 0x0 DUP4 DUP2 MSTORE PUSH1 0x20 ADD SWAP1 DUP2 MSTORE PUSH1 0x20 ADD PUSH1 0x0 KECCAK256 PUSH1 0x40 MLOAD DUP1 PUSH1 0x40 ADD PUSH1 0x40 MSTORE SWAP1 DUP2 PUSH1 0x0 DUP3 ADD DUP1 SLOAD PUSH2 0x78E SWAP1 PUSH2 0x1076 JUMP JUMPDEST DUP1 PUSH1 0x1F ADD PUSH1 0x20 DUP1 SWAP2 DIV MUL PUSH1 0x20 ADD PUSH1 0x40 MLOAD SWAP1 DUP2 ADD PUSH1 0x40 MSTORE DUP1 SWAP3 SWAP2 SWAP1 DUP2 DUP2 MSTORE PUSH1 0x20 ADD DUP3 DUP1 SLOAD PUSH2 0x7BA SWAP1 PUSH2 0x1076 JUMP JUMPDEST DUP1 ISZERO PUSH2 0x807 JUMPI DUP1 PUSH1 0x1F LT PUSH2 0x7DC JUMPI PUSH2 0x100 DUP1 DUP4 SLOAD DIV MUL DUP4 MSTORE SWAP2 PUSH1 0x20 ADD SWAP2 PUSH2 0x807 JUMP JUMPDEST DUP3 ADD SWAP2 SWAP1 PUSH1 0x0 MSTORE PUSH1 0x20 PUSH1 0x0 KECCAK256 SWAP1 JUMPDEST DUP2 SLOAD DUP2 MSTORE SWAP1 PUSH1 0x1 ADD SWAP1 PUSH1 0x20 ADD DUP1 DUP4 GT PUSH2 0x7EA JUMPI DUP3 SWAP1 SUB PUSH1 0x1F AND DUP3 ADD SWAP2 JUMPDEST POP POP POP POP POP DUP2 MSTORE PUSH1 0x20 ADD PUSH1 0x1 DUP3 ADD SLOAD DUP2 MSTORE POP POP SWAP1 POP SWAP2 SWAP1 POP JUMP JUMPDEST PUSH1 0x2 PUSH1 0x20 MSTORE DUP1 PUSH1 0x0 MSTORE PUSH1 0x40 PUSH1 0x0 KECCAK256 PUSH1 0x0 SWAP2 POP SLOAD SWAP1 PUSH2 0x100 EXP SWAP1 DIV PUSH1 0xFF AND DUP2 JUMP JUMPDEST PUSH1 0x60 PUSH1 0x0 PUSH1 0x4 DUP1 SLOAD SWAP1 POP SWAP1 POP PUSH1 0x0 DUP2 PUSH8 0xFFFFFFFFFFFFFFFF DUP2 GT ISZERO PUSH2 0x869 JUMPI PUSH2 0x868 PUSH2 0xB7D JUMP JUMPDEST JUMPDEST PUSH1 0x40 MLOAD SWAP1 DUP1 DUP3 MSTORE DUP1 PUSH1 0x20 MUL PUSH1 0x20 ADD DUP3 ADD PUSH1 0x40 MSTORE DUP1 ISZERO PUSH2 0x8A2 JUMPI DUP2 PUSH1 0x20 ADD JUMPDEST PUSH2 0x88F PUSH2 0x9E1 JUMP JUMPDEST DUP2 MSTORE PUSH1 0x20 ADD SWAP1 PUSH1 0x1 SWAP1 SUB SWAP1 DUP2 PUSH2 0x887 JUMPI SWAP1 POP JUMPDEST POP SWAP1 POP PUSH1 0x0 JUMPDEST DUP3 DUP2 LT ISZERO PUSH2 0x9BE JUMPI PUSH1 0x0 PUSH1 0x4 DUP3 DUP2 SLOAD DUP2 LT PUSH2 0x8C6 JUMPI PUSH2 0x8C5 PUSH2 0x16B6 JUMP JUMPDEST JUMPDEST SWAP1 PUSH1 0x0 MSTORE PUSH1 0x20 PUSH1 0x0 KECCAK256 ADD SLOAD SWAP1 POP PUSH1 0x0 PUSH1 0x3 PUSH1 0x0 DUP4 DUP2 MSTORE PUSH1 0x20 ADD SWAP1 DUP2 MSTORE PUSH1 0x20 ADD PUSH1 0x0 KECCAK256 PUSH1 0x0 ADD DUP1 SLOAD PUSH2 0x8F6 SWAP1 PUSH2 0x1076 JUMP JUMPDEST DUP1 PUSH1 0x1F ADD PUSH1 0x20 DUP1 SWAP2 DIV MUL PUSH1 0x20 ADD PUSH1 0x40 MLOAD SWAP1 DUP2 ADD PUSH1 0x40 MSTORE DUP1 SWAP3 SWAP2 SWAP1 DUP2 DUP2 MSTORE PUSH1 0x20 ADD DUP3 DUP1 SLOAD PUSH2 0x922 SWAP1 PUSH2 0x1076 JUMP JUMPDEST DUP1 ISZERO PUSH2 0x96F JUMPI DUP1 PUSH1 0x1F LT PUSH2 0x944 JUMPI PUSH2 0x100 DUP1 DUP4 SLOAD DIV MUL DUP4 MSTORE SWAP2 PUSH1 0x20 ADD SWAP2 PUSH2 0x96F JUMP JUMPDEST DUP3 ADD SWAP2 SWAP1 PUSH1 0x0 MSTORE PUSH1 0x20 PUSH1 0x0 KECCAK256 SWAP1 JUMPDEST DUP2 SLOAD DUP2 MSTORE SWAP1 PUSH1 0x1 ADD SWAP1 PUSH1 0x20 ADD DUP1 DUP4 GT PUSH2 0x952 JUMPI DUP3 SWAP1 SUB PUSH1 0x1F AND DUP3 ADD SWAP2 JUMPDEST POP POP POP POP POP SWAP1 POP PUSH1 0x40 MLOAD DUP1 PUSH1 0x40 ADD PUSH1 0x40 MSTORE DUP1 DUP4 DUP2 MSTORE PUSH1 0x20 ADD DUP3 DUP2 MSTORE POP DUP5 DUP5 DUP2 MLOAD DUP2 LT PUSH2 0x99E JUMPI PUSH2 0x99D PUSH2 0x16B6 JUMP JUMPDEST JUMPDEST PUSH1 0x20 MUL PUSH1 0x20 ADD ADD DUP2 SWAP1 MSTORE POP POP POP DUP1 DUP1 PUSH2 0x9B6 SWAP1 PUSH2 0x13C0 JUMP JUMPDEST SWAP2 POP POP PUSH2 0x8A8 JUMP JUMPDEST POP DUP1 SWAP3 POP POP POP SWAP1 JUMP JUMPDEST PUSH1 0x40 MLOAD DUP1 PUSH1 0x40 ADD PUSH1 0x40 MSTORE DUP1 PUSH1 0x60 DUP2 MSTORE PUSH1 0x20 ADD PUSH1 0x0 DUP2 MSTORE POP SWAP1 JUMP JUMPDEST PUSH1 0x40 MLOAD DUP1 PUSH1 0x40 ADD PUSH1 0x40 MSTORE DUP1 PUSH1 0x0 DUP1 NOT AND DUP2 MSTORE PUSH1 0x20 ADD PUSH1 0x60 DUP2 MSTORE POP SWAP1 JUMP JUMPDEST PUSH1 0x0 PUSH1 0x40 MLOAD SWAP1 POP SWAP1 JUMP JUMPDEST PUSH1 0x0 DUP1 REVERT JUMPDEST PUSH1 0x0 DUP1 REVERT JUMPDEST PUSH1 0x0 DUP2 SWAP1 POP SWAP2 SWAP1 POP JUMP JUMPDEST PUSH2 0xA25 DUP2 PUSH2 0xA12 JUMP JUMPDEST DUP2 EQ PUSH2 0xA30 JUMPI PUSH1 0x0 DUP1 REVERT JUMPDEST POP JUMP JUMPDEST PUSH1 0x0 DUP2 CALLDATALOAD SWAP1 POP PUSH2 0xA42 DUP2 PUSH2 0xA1C JUMP JUMPDEST SWAP3 SWAP2 POP POP JUMP JUMPDEST PUSH1 0x0 PUSH1 0x20 DUP3 DUP5 SUB SLT ISZERO PUSH2 0xA5E JUMPI PUSH2 0xA5D PUSH2 0xA08 JUMP JUMPDEST JUMPDEST PUSH1 0x0 PUSH2 0xA6C DUP5 DUP3 DUP6 ADD PUSH2 0xA33 JUMP JUMPDEST SWAP2 POP POP SWAP3 SWAP2 POP POP JUMP JUMPDEST PUSH1 0x0 DUP2 MLOAD SWAP1 POP SWAP2 SWAP1 POP JUMP JUMPDEST PUSH1 0x0 DUP3 DUP3 MSTORE PUSH1 0x20 DUP3 ADD SWAP1 POP SWAP3 SWAP2 POP POP JUMP JUMPDEST PUSH1 0x0 JUMPDEST DUP4 DUP2 LT ISZERO PUSH2 0xAAF JUMPI DUP1 DUP3 ADD MLOAD DUP2 DUP5 ADD MSTORE PUSH1 0x20 DUP2 ADD SWAP1 POP PUSH2 0xA94 JUMP JUMPDEST PUSH1 0x0 DUP5 DUP5 ADD MSTORE POP POP POP POP JUMP JUMPDEST PUSH1 0x0 PUSH1 0x1F NOT PUSH1 0x1F DUP4 ADD AND SWAP1 POP SWAP2 SWAP1 POP JUMP JUMPDEST PUSH1 0x0 PUSH2 0xAD7 DUP3 PUSH2 0xA75 JUMP JUMPDEST PUSH2 0xAE1 DUP2 DUP6 PUSH2 0xA80 JUMP JUMPDEST SWAP4 POP PUSH2 0xAF1 DUP2 DUP6 PUSH1 0x20 DUP7 ADD PUSH2 0xA91 JUMP JUMPDEST PUSH2 0xAFA DUP2 PUSH2 0xABB JUMP JUMPDEST DUP5 ADD SWAP2 POP POP SWAP3 SWAP2 POP POP JUMP JUMPDEST PUSH2 0xB0E DUP2 PUSH2 0xA12 JUMP JUMPDEST DUP3 MSTORE POP POP JUMP JUMPDEST PUSH1 0x0 PUSH1 0x40 DUP4 ADD PUSH1 0x0 DUP4 ADD MLOAD DUP5 DUP3 SUB PUSH1 0x0 DUP7 ADD MSTORE PUSH2 0xB31 DUP3 DUP3 PUSH2 0xACC JUMP JUMPDEST SWAP2 POP POP PUSH1 0x20 DUP4 ADD MLOAD PUSH2 0xB46 PUSH1 0x20 DUP7 ADD DUP3 PUSH2 0xB05 JUMP JUMPDEST POP DUP1 SWAP2 POP POP SWAP3 SWAP2 POP POP JUMP JUMPDEST PUSH1 0x0 PUSH1 0x20 DUP3 ADD SWAP1 POP DUP2 DUP2 SUB PUSH1 0x0 DUP4 ADD MSTORE PUSH2 0xB6B DUP2 DUP5 PUSH2 0xB14 JUMP JUMPDEST SWAP1 POP SWAP3 SWAP2 POP POP JUMP JUMPDEST PUSH1 0x0 DUP1 REVERT JUMPDEST PUSH1 0x0 DUP1 REVERT JUMPDEST PUSH32 0x4E487B7100000000000000000000000000000000000000000000000000000000 PUSH1 0x0 MSTORE PUSH1 0x41 PUSH1 0x4 MSTORE PUSH1 0x24 PUSH1 0x0 REVERT JUMPDEST PUSH2 0xBB5 DUP3 PUSH2 0xABB JUMP JUMPDEST DUP2 ADD DUP2 DUP2 LT PUSH8 0xFFFFFFFFFFFFFFFF DUP3 GT OR ISZERO PUSH2 0xBD4 JUMPI PUSH2 0xBD3 PUSH2 0xB7D JUMP JUMPDEST JUMPDEST DUP1 PUSH1 0x40 MSTORE POP POP POP JUMP JUMPDEST PUSH1 0x0 PUSH2 0xBE7 PUSH2 0x9FE JUMP JUMPDEST SWAP1 POP PUSH2 0xBF3 DUP3 DUP3 PUSH2 0xBAC JUMP JUMPDEST SWAP2 SWAP1 POP JUMP JUMPDEST PUSH1 0x0 PUSH8 0xFFFFFFFFFFFFFFFF DUP3 GT ISZERO PUSH2 0xC13 JUMPI PUSH2 0xC12 PUSH2 0xB7D JUMP JUMPDEST JUMPDEST PUSH2 0xC1C DUP3 PUSH2 0xABB JUMP JUMPDEST SWAP1 POP PUSH1 0x20 DUP2 ADD SWAP1 POP SWAP2 SWAP1 POP JUMP JUMPDEST DUP3 DUP2 DUP4 CALLDATACOPY PUSH1 0x0 DUP4 DUP4 ADD MSTORE POP POP POP JUMP JUMPDEST PUSH1 0x0 PUSH2 0xC4B PUSH2 0xC46 DUP5 PUSH2 0xBF8 JUMP JUMPDEST PUSH2 0xBDD JUMP JUMPDEST SWAP1 POP DUP3 DUP2 MSTORE PUSH1 0x20 DUP2 ADD DUP5 DUP5 DUP5 ADD GT ISZERO PUSH2 0xC67 JUMPI PUSH2 0xC66 PUSH2 0xB78 JUMP JUMPDEST JUMPDEST PUSH2 0xC72 DUP5 DUP3 DUP6 PUSH2 0xC29 JUMP JUMPDEST POP SWAP4 SWAP3 POP POP POP JUMP JUMPDEST PUSH1 0x0 DUP3 PUSH1 0x1F DUP4 ADD SLT PUSH2 0xC8F JUMPI PUSH2 0xC8E PUSH2 0xB73 JUMP JUMPDEST JUMPDEST DUP2 CALLDATALOAD PUSH2 0xC9F DUP5 DUP3 PUSH1 0x20 DUP7 ADD PUSH2 0xC38 JUMP JUMPDEST SWAP2 POP POP SWAP3 SWAP2 POP POP JUMP JUMPDEST PUSH1 0x0 PUSH1 0x20 DUP3 DUP5 SUB SLT ISZERO PUSH2 0xCBE JUMPI PUSH2 0xCBD PUSH2 0xA08 JUMP JUMPDEST JUMPDEST PUSH1 0x0 DUP3 ADD CALLDATALOAD PUSH8 0xFFFFFFFFFFFFFFFF DUP2 GT ISZERO PUSH2 0xCDC JUMPI PUSH2 0xCDB PUSH2 0xA0D JUMP JUMPDEST JUMPDEST PUSH2 0xCE8 DUP5 DUP3 DUP6 ADD PUSH2 0xC7A JUMP JUMPDEST SWAP2 POP POP SWAP3 SWAP2 POP POP JUMP JUMPDEST PUSH1 0x0 DUP2 SWAP1 POP SWAP2 SWAP1 POP JUMP JUMPDEST PUSH2 0xD04 DUP2 PUSH2 0xCF1 JUMP JUMPDEST DUP2 EQ PUSH2 0xD0F JUMPI PUSH1 0x0 DUP1 REVERT JUMPDEST POP JUMP JUMPDEST PUSH1 0x0 DUP2 CALLDATALOAD SWAP1 POP PUSH2 0xD21 DUP2 PUSH2 0xCFB JUMP JUMPDEST SWAP3 SWAP2 POP POP JUMP JUMPDEST PUSH1 0x0 DUP1 PUSH1 0x0 PUSH1 0x60 DUP5 DUP7 SUB SLT ISZERO PUSH2 0xD40 JUMPI PUSH2 0xD3F PUSH2 0xA08 JUMP JUMPDEST JUMPDEST PUSH1 0x0 PUSH2 0xD4E DUP7 DUP3 DUP8 ADD PUSH2 0xD12 JUMP JUMPDEST SWAP4 POP POP PUSH1 0x20 PUSH2 0xD5F DUP7 DUP3 DUP8 ADD PUSH2 0xA33 JUMP JUMPDEST SWAP3 POP POP PUSH1 0x40 PUSH2 0xD70 DUP7 DUP3 DUP8 ADD PUSH2 0xA33 JUMP JUMPDEST SWAP2 POP POP SWAP3 POP SWAP3 POP SWAP3 JUMP JUMPDEST PUSH1 0x0 PUSH1 0x20 DUP3 DUP5 SUB SLT ISZERO PUSH2 0xD90 JUMPI PUSH2 0xD8F PUSH2 0xA08 JUMP JUMPDEST JUMPDEST PUSH1 0x0 PUSH2 0xD9E DUP5 DUP3 DUP6 ADD PUSH2 0xD12 JUMP JUMPDEST SWAP2 POP POP SWAP3 SWAP2 POP POP JUMP JUMPDEST PUSH1 0x0 DUP3 DUP3 MSTORE PUSH1 0x20 DUP3 ADD SWAP1 POP SWAP3 SWAP2 POP POP JUMP JUMPDEST PUSH1 0x0 PUSH2 0xDC3 DUP3 PUSH2 0xA75 JUMP JUMPDEST PUSH2 0xDCD DUP2 DUP6 PUSH2 0xDA7 JUMP JUMPDEST SWAP4 POP PUSH2 0xDDD DUP2 DUP6 PUSH1 0x20 DUP7 ADD PUSH2 0xA91 JUMP JUMPDEST PUSH2 0xDE6 DUP2 PUSH2 0xABB JUMP JUMPDEST DUP5 ADD SWAP2 POP POP SWAP3 SWAP2 POP POP JUMP JUMPDEST PUSH2 0xDFA DUP2 PUSH2 0xA12 JUMP JUMPDEST DUP3 MSTORE POP POP JUMP JUMPDEST PUSH1 0x0 PUSH1 0x40 DUP3 ADD SWAP1 POP DUP2 DUP2 SUB PUSH1 0x0 DUP4 ADD MSTORE PUSH2 0xE1A DUP2 DUP6 PUSH2 0xDB8 JUMP JUMPDEST SWAP1 POP PUSH2 0xE29 PUSH1 0x20 DUP4 ADD DUP5 PUSH2 0xDF1 JUMP JUMPDEST SWAP4 SWAP3 POP POP POP JUMP JUMPDEST PUSH2 0xE39 DUP2 PUSH2 0xCF1 JUMP JUMPDEST DUP3 MSTORE POP POP JUMP JUMPDEST PUSH1 0x0 PUSH1 0x20 DUP3 ADD SWAP1 POP PUSH2 0xE54 PUSH1 0x0 DUP4 ADD DUP5 PUSH2 0xE30 JUMP JUMPDEST SWAP3 SWAP2 POP POP JUMP JUMPDEST PUSH1 0x0 PUSH1 0x20 DUP3 ADD SWAP1 POP PUSH2 0xE6F PUSH1 0x0 DUP4 ADD DUP5 PUSH2 0xDF1 JUMP JUMPDEST SWAP3 SWAP2 POP POP JUMP JUMPDEST PUSH1 0x0 DUP2 ISZERO ISZERO SWAP1 POP SWAP2 SWAP1 POP JUMP JUMPDEST PUSH2 0xE8A DUP2 PUSH2 0xE75 JUMP JUMPDEST DUP3 MSTORE POP POP JUMP JUMPDEST PUSH1 0x0 PUSH1 0x20 DUP3 ADD SWAP1 POP PUSH2 0xEA5 PUSH1 0x0 DUP4 ADD DUP5 PUSH2 0xE81 JUMP JUMPDEST SWAP3 SWAP2 POP POP JUMP JUMPDEST PUSH1 0x0 DUP2 MLOAD SWAP1 POP SWAP2 SWAP1 POP JUMP JUMPDEST PUSH1 0x0 DUP3 DUP3 MSTORE PUSH1 0x20 DUP3 ADD SWAP1 POP SWAP3 SWAP2 POP POP JUMP JUMPDEST PUSH1 0x0 DUP2 SWAP1 POP PUSH1 0x20 DUP3 ADD SWAP1 POP SWAP2 SWAP1 POP JUMP JUMPDEST PUSH2 0xEE0 DUP2 PUSH2 0xCF1 JUMP JUMPDEST DUP3 MSTORE POP POP JUMP JUMPDEST PUSH1 0x0 PUSH1 0x40 DUP4 ADD PUSH1 0x0 DUP4 ADD MLOAD PUSH2 0xEFE PUSH1 0x0 DUP7 ADD DUP3 PUSH2 0xED7 JUMP JUMPDEST POP PUSH1 0x20 DUP4 ADD MLOAD DUP5 DUP3 SUB PUSH1 0x20 DUP7 ADD MSTORE PUSH2 0xF16 DUP3 DUP3 PUSH2 0xACC JUMP JUMPDEST SWAP2 POP POP DUP1 SWAP2 POP POP SWAP3 SWAP2 POP POP JUMP JUMPDEST PUSH1 0x0 PUSH2 0xF2F DUP4 DUP4 PUSH2 0xEE6 JUMP JUMPDEST SWAP1 POP SWAP3 SWAP2 POP POP JUMP JUMPDEST PUSH1 0x0 PUSH1 0x20 DUP3 ADD SWAP1 POP SWAP2 SWAP1 POP JUMP JUMPDEST PUSH1 0x0 PUSH2 0xF4F DUP3 PUSH2 0xEAB JUMP JUMPDEST PUSH2 0xF59 DUP2 DUP6 PUSH2 0xEB6 JUMP JUMPDEST SWAP4 POP DUP4 PUSH1 0x20 DUP3 MUL DUP6 ADD PUSH2 0xF6B DUP6 PUSH2 0xEC7 JUMP JUMPDEST DUP1 PUSH1 0x0 JUMPDEST DUP6 DUP2 LT ISZERO PUSH2 0xFA7 JUMPI DUP5 DUP5 SUB DUP10 MSTORE DUP2 MLOAD PUSH2 0xF88 DUP6 DUP3 PUSH2 0xF23 JUMP JUMPDEST SWAP5 POP PUSH2 0xF93 DUP4 PUSH2 0xF37 JUMP JUMPDEST SWAP3 POP PUSH1 0x20 DUP11 ADD SWAP10 POP POP PUSH1 0x1 DUP2 ADD SWAP1 POP PUSH2 0xF6F JUMP JUMPDEST POP DUP3 SWAP8 POP DUP8 SWAP6 POP POP POP POP POP POP SWAP3 SWAP2 POP POP JUMP JUMPDEST PUSH1 0x0 PUSH1 0x20 DUP3 ADD SWAP1 POP DUP2 DUP2 SUB PUSH1 0x0 DUP4 ADD MSTORE PUSH2 0xFD3 DUP2 DUP5 PUSH2 0xF44 JUMP JUMPDEST SWAP1 POP SWAP3 SWAP2 POP POP JUMP JUMPDEST PUSH32 0x43616E64696461746520646F6573206E6F742065786973740000000000000000 PUSH1 0x0 DUP3 ADD MSTORE POP JUMP JUMPDEST PUSH1 0x0 PUSH2 0x1011 PUSH1 0x18 DUP4 PUSH2 0xDA7 JUMP JUMPDEST SWAP2 POP PUSH2 0x101C DUP3 PUSH2 0xFDB JUMP JUMPDEST PUSH1 0x20 DUP3 ADD SWAP1 POP SWAP2 SWAP1 POP JUMP JUMPDEST PUSH1 0x0 PUSH1 0x20 DUP3 ADD SWAP1 POP DUP2 DUP2 SUB PUSH1 0x0 DUP4 ADD MSTORE PUSH2 0x1040 DUP2 PUSH2 0x1004 JUMP JUMPDEST SWAP1 POP SWAP2 SWAP1 POP JUMP JUMPDEST PUSH32 0x4E487B7100000000000000000000000000000000000000000000000000000000 PUSH1 0x0 MSTORE PUSH1 0x22 PUSH1 0x4 MSTORE PUSH1 0x24 PUSH1 0x0 REVERT JUMPDEST PUSH1 0x0 PUSH1 0x2 DUP3 DIV SWAP1 POP PUSH1 0x1 DUP3 AND DUP1 PUSH2 0x108E JUMPI PUSH1 0x7F DUP3 AND SWAP2 POP JUMPDEST PUSH1 0x20 DUP3 LT DUP2 SUB PUSH2 0x10A1 JUMPI PUSH2 0x10A0 PUSH2 0x1047 JUMP JUMPDEST JUMPDEST POP SWAP2 SWAP1 POP JUMP JUMPDEST PUSH32 0x596F752068617665206E6F20617574686F726974790000000000000000000000 PUSH1 0x0 DUP3 ADD MSTORE POP JUMP JUMPDEST PUSH1 0x0 PUSH2 0x10DD PUSH1 0x15 DUP4 PUSH2 0xDA7 JUMP JUMPDEST SWAP2 POP PUSH2 0x10E8 DUP3 PUSH2 0x10A7 JUMP JUMPDEST PUSH1 0x20 DUP3 ADD SWAP1 POP SWAP2 SWAP1 POP JUMP JUMPDEST PUSH1 0x0 PUSH1 0x20 DUP3 ADD SWAP1 POP DUP2 DUP2 SUB PUSH1 0x0 DUP4 ADD MSTORE PUSH2 0x110C DUP2 PUSH2 0x10D0 JUMP JUMPDEST SWAP1 POP SWAP2 SWAP1 POP JUMP JUMPDEST PUSH1 0x0 DUP2 SWAP1 POP DUP2 PUSH1 0x0 MSTORE PUSH1 0x20 PUSH1 0x0 KECCAK256 SWAP1 POP SWAP2 SWAP1 POP JUMP JUMPDEST PUSH1 0x0 PUSH1 0x20 PUSH1 0x1F DUP4 ADD DIV SWAP1 POP SWAP2 SWAP1 POP JUMP JUMPDEST PUSH1 0x0 DUP3 DUP3 SHL SWAP1 POP SWAP3 SWAP2 POP POP JUMP JUMPDEST PUSH1 0x0 PUSH1 0x8 DUP4 MUL PUSH2 0x1175 PUSH32 0xFFFFFFFFFFFFFFFFFFFFFFFFFFFFFFFFFFFFFFFFFFFFFFFFFFFFFFFFFFFFFFFF DUP3 PUSH2 0x1138 JUMP JUMPDEST PUSH2 0x117F DUP7 DUP4 PUSH2 0x1138 JUMP JUMPDEST SWAP6 POP DUP1 NOT DUP5 AND SWAP4 POP DUP1 DUP7 AND DUP5 OR SWAP3 POP POP POP SWAP4 SWAP3 POP POP POP JUMP JUMPDEST PUSH1 0x0 DUP2 SWAP1 POP SWAP2 SWAP1 POP JUMP JUMPDEST PUSH1 0x0 PUSH2 0x11BC PUSH2 0x11B7 PUSH2 0x11B2 DUP5 PUSH2 0xA12 JUMP JUMPDEST PUSH2 0x1197 JUMP JUMPDEST PUSH2 0xA12 JUMP JUMPDEST SWAP1 POP SWAP2 SWAP1 POP JUMP JUMPDEST PUSH1 0x0 DUP2 SWAP1 POP SWAP2 SWAP1 POP JUMP JUMPDEST PUSH2 0x11D6 DUP4 PUSH2 0x11A1 JUMP JUMPDEST PUSH2 0x11EA PUSH2 0x11E2 DUP3 PUSH2 0x11C3 JUMP JUMPDEST DUP5 DUP5 SLOAD PUSH2 0x1145 JUMP JUMPDEST DUP3 SSTORE POP POP POP POP JUMP JUMPDEST PUSH1 0x0 SWAP1 JUMP JUMPDEST PUSH2 0x11FF PUSH2 0x11F2 JUMP JUMPDEST PUSH2 0x120A DUP2 DUP5 DUP5 PUSH2 0x11CD JUMP JUMPDEST POP POP POP JUMP JUMPDEST JUMPDEST DUP2 DUP2 LT ISZERO PUSH2 0x122E JUMPI PUSH2 0x1223 PUSH1 0x0 DUP3 PUSH2 0x11F7 JUMP JUMPDEST PUSH1 0x1 DUP2 ADD SWAP1 POP PUSH2 0x1210 JUMP JUMPDEST POP POP JUMP JUMPDEST PUSH1 0x1F DUP3 GT ISZERO PUSH2 0x1273 JUMPI PUSH2 0x1244 DUP2 PUSH2 0x1113 JUMP JUMPDEST PUSH2 0x124D DUP5 PUSH2 0x1128 JUMP JUMPDEST DUP2 ADD PUSH1 0x20 DUP6 LT ISZERO PUSH2 0x125C JUMPI DUP2 SWAP1 POP JUMPDEST PUSH2 0x1270 PUSH2 0x1268 DUP6 PUSH2 0x1128 JUMP JUMPDEST DUP4 ADD DUP3 PUSH2 0x120F JUMP JUMPDEST POP POP JUMPDEST POP POP POP JUMP JUMPDEST PUSH1 0x0 DUP3 DUP3 SHR SWAP1 POP SWAP3 SWAP2 POP POP JUMP JUMPDEST PUSH1 0x0 PUSH2 0x1296 PUSH1 0x0 NOT DUP5 PUSH1 0x8 MUL PUSH2 0x1278 JUMP JUMPDEST NOT DUP1 DUP4 AND SWAP2 POP POP SWAP3 SWAP2 POP POP JUMP JUMPDEST PUSH1 0x0 PUSH2 0x12AF DUP4 DUP4 PUSH2 0x1285 JUMP JUMPDEST SWAP2 POP DUP3 PUSH1 0x2 MUL DUP3 OR SWAP1 POP SWAP3 SWAP2 POP POP JUMP JUMPDEST PUSH2 0x12C8 DUP3 PUSH2 0xA75 JUMP JUMPDEST PUSH8 0xFFFFFFFFFFFFFFFF DUP2 GT ISZERO PUSH2 0x12E1 JUMPI PUSH2 0x12E0 PUSH2 0xB7D JUMP JUMPDEST JUMPDEST PUSH2 0x12EB DUP3 SLOAD PUSH2 0x1076 JUMP JUMPDEST PUSH2 0x12F6 DUP3 DUP3 DUP6 PUSH2 0x1232 JUMP JUMPDEST PUSH1 0x0 PUSH1 0x20 SWAP1 POP PUSH1 0x1F DUP4 GT PUSH1 0x1 DUP2 EQ PUSH2 0x1329 JUMPI PUSH1 0x0 DUP5 ISZERO PUSH2 0x1317 JUMPI DUP3 DUP8 ADD MLOAD SWAP1 POP JUMPDEST PUSH2 0x1321 DUP6 DUP3 PUSH2 0x12A3 JUMP JUMPDEST DUP7 SSTORE POP PUSH2 0x1389 JUMP JUMPDEST PUSH1 0x1F NOT DUP5 AND PUSH2 0x1337 DUP7 PUSH2 0x1113 JUMP JUMPDEST PUSH1 0x0 JUMPDEST DUP3 DUP2 LT ISZERO PUSH2 0x135F JUMPI DUP5 DUP10 ADD MLOAD DUP3 SSTORE PUSH1 0x1 DUP3 ADD SWAP2 POP PUSH1 0x20 DUP6 ADD SWAP5 POP PUSH1 0x20 DUP2 ADD SWAP1 POP PUSH2 0x133A JUMP JUMPDEST DUP7 DUP4 LT ISZERO PUSH2 0x137C JUMPI DUP5 DUP10 ADD MLOAD PUSH2 0x1378 PUSH1 0x1F DUP10 AND DUP3 PUSH2 0x1285 JUMP JUMPDEST DUP4 SSTORE POP JUMPDEST PUSH1 0x1 PUSH1 0x2 DUP9 MUL ADD DUP9 SSTORE POP POP POP JUMPDEST POP POP POP POP POP POP JUMP JUMPDEST PUSH32 0x4E487B7100000000000000000000000000000000000000000000000000000000 PUSH1 0x0 MSTORE PUSH1 0x11 PUSH1 0x4 MSTORE PUSH1 0x24 PUSH1 0x0 REVERT JUMPDEST PUSH1 0x0 PUSH2 0x13CB DUP3 PUSH2 0xA12 JUMP JUMPDEST SWAP2 POP PUSH32 0xFFFFFFFFFFFFFFFFFFFFFFFFFFFFFFFFFFFFFFFFFFFFFFFFFFFFFFFFFFFFFFFF DUP3 SUB PUSH2 0x13FD JUMPI PUSH2 0x13FC PUSH2 0x1391 JUMP JUMPDEST JUMPDEST PUSH1 0x1 DUP3 ADD SWAP1 POP SWAP2 SWAP1 POP JUMP JUMPDEST PUSH32 0x53657269616C206E756D62657220616C72656164792075736564000000000000 PUSH1 0x0 DUP3 ADD MSTORE POP JUMP JUMPDEST PUSH1 0x0 PUSH2 0x143E PUSH1 0x1A DUP4 PUSH2 0xDA7 JUMP JUMPDEST SWAP2 POP PUSH2 0x1449 DUP3 PUSH2 0x1408 JUMP JUMPDEST PUSH1 0x20 DUP3 ADD SWAP1 POP SWAP2 SWAP1 POP JUMP JUMPDEST PUSH1 0x0 PUSH1 0x20 DUP3 ADD SWAP1 POP DUP2 DUP2 SUB PUSH1 0x0 DUP4 ADD MSTORE PUSH2 0x146D DUP2 PUSH2 0x1431 JUMP JUMPDEST SWAP1 POP SWAP2 SWAP1 POP JUMP JUMPDEST PUSH32 0x496E76616C69642063616E64696461746520696E646578000000000000000000 PUSH1 0x0 DUP3 ADD MSTORE POP JUMP JUMPDEST PUSH1 0x0 PUSH2 0x14AA PUSH1 0x17 DUP4 PUSH2 0xDA7 JUMP JUMPDEST SWAP2 POP PUSH2 0x14B5 DUP3 PUSH2 0x1474 JUMP JUMPDEST PUSH1 0x20 DUP3 ADD SWAP1 POP SWAP2 SWAP1 POP JUMP JUMPDEST PUSH1 0x0 PUSH1 0x20 DUP3 ADD SWAP1 POP DUP2 DUP2 SUB PUSH1 0x0 DUP4 ADD MSTORE PUSH2 0x14D9 DUP2 PUSH2 0x149D JUMP JUMPDEST SWAP1 POP SWAP2 SWAP1 POP JUMP JUMPDEST PUSH32 0x434E494320697320616C72656164792070726573656E742C20736F7272792E00 PUSH1 0x0 DUP3 ADD MSTORE POP JUMP JUMPDEST PUSH1 0x0 PUSH2 0x1516 PUSH1 0x1F DUP4 PUSH2 0xDA7 JUMP JUMPDEST SWAP2 POP PUSH2 0x1521 DUP3 PUSH2 0x14E0 JUMP JUMPDEST PUSH1 0x20 DUP3 ADD SWAP1 POP SWAP2 SWAP1 POP JUMP JUMPDEST PUSH1 0x0 PUSH1 0x20 DUP3 ADD SWAP1 POP DUP2 DUP2 SUB PUSH1 0x0 DUP4 ADD MSTORE PUSH2 0x1545 DUP2 PUSH2 0x1509 JUMP JUMPDEST SWAP1 POP SWAP2 SWAP1 POP JUMP JUMPDEST PUSH1 0x0 DUP2 SLOAD SWAP1 POP PUSH2 0x155B DUP2 PUSH2 0x1076 JUMP JUMPDEST SWAP1 POP SWAP2 SWAP1 POP JUMP JUMPDEST DUP2 DUP2 SUB PUSH2 0x1570 JUMPI POP POP PUSH2 0x1648 JUMP JUMPDEST PUSH2 0x1579 DUP3 PUSH2 0x154C JUMP JUMPDEST PUSH8 0xFFFFFFFFFFFFFFFF DUP2 GT ISZERO PUSH2 0x1592 JUMPI PUSH2 0x1591 PUSH2 0xB7D JUMP JUMPDEST JUMPDEST PUSH2 0x159C DUP3 SLOAD PUSH2 0x1076 JUMP JUMPDEST PUSH2 0x15A7 DUP3 DUP3 DUP6 PUSH2 0x1232 JUMP JUMPDEST PUSH1 0x0 PUSH1 0x1F DUP4 GT PUSH1 0x1 DUP2 EQ PUSH2 0x15D6 JUMPI PUSH1 0x0 DUP5 ISZERO PUSH2 0x15C4 JUMPI DUP3 DUP8 ADD SLOAD SWAP1 POP JUMPDEST PUSH2 0x15CE DUP6 DUP3 PUSH2 0x12A3 JUMP JUMPDEST DUP7 SSTORE POP PUSH2 0x1641 JUMP JUMPDEST PUSH1 0x1F NOT DUP5 AND PUSH2 0x15E4 DUP8 PUSH2 0x1113 JUMP JUMPDEST SWAP7 POP PUSH2 0x15EF DUP7 PUSH2 0x1113 JUMP JUMPDEST PUSH1 0x0 JUMPDEST DUP3 DUP2 LT ISZERO PUSH2 0x1617 JUMPI DUP5 DUP10 ADD SLOAD DUP3 SSTORE PUSH1 0x1 DUP3 ADD SWAP2 POP PUSH1 0x1 DUP6 ADD SWAP5 POP PUSH1 0x20 DUP2 ADD SWAP1 POP PUSH2 0x15F2 JUMP JUMPDEST DUP7 DUP4 LT ISZERO PUSH2 0x1634 JUMPI DUP5 DUP10 ADD SLOAD PUSH2 0x1630 PUSH1 0x1F DUP10 AND DUP3 PUSH2 0x1285 JUMP JUMPDEST DUP4 SSTORE POP JUMPDEST PUSH1 0x1 PUSH1 0x2 DUP9 MUL ADD DUP9 SSTORE POP POP POP JUMPDEST POP POP POP POP POP POP JUMPDEST JUMP JUMPDEST PUSH32 0x53657269616C206E756D62657220686173206E6F7420766F7465640000000000 PUSH1 0x0 DUP3 ADD MSTORE POP JUMP JUMPDEST PUSH1 0x0 PUSH2 0x1680 PUSH1 0x1B DUP4 PUSH2 0xDA7 JUMP JUMPDEST SWAP2 POP PUSH2 0x168B DUP3 PUSH2 0x164A JUMP JUMPDEST PUSH1 0x20 DUP3 ADD SWAP1 POP SWAP2 SWAP1 POP JUMP JUMPDEST PUSH1 0x0 PUSH1 0x20 DUP3 ADD SWAP1 POP DUP2 DUP2 SUB PUSH1 0x0 DUP4 ADD MSTORE PUSH2 0x16AF DUP2 PUSH2 0x1673 JUMP JUMPDEST SWAP1 POP SWAP2 SWAP1 POP JUMP JUMPDEST PUSH32 0x4E487B7100000000000000000000000000000000000000000000000000000000 PUSH1 0x0 MSTORE PUSH1 0x32 PUSH1 0x4 MSTORE PUSH1 0x24 PUSH1 0x0 REVERT INVALID LOG2 PUSH5 0x6970667358 0x22 SLT KECCAK256 AND PUSH19 0xCAAEB621056FAE16239B46011395BF9091816C STOP LOG0 SWAP15 SELFDESTRUCT PUSH10 0x601A653DAAAC64736F6C PUSH4 0x43000812 STOP CALLER "
		},
		"gasEstimates": {
			"creation": {
				"codeDepositCost": "1183000",
				"executionCost": "25493",
				"totalCost": "1208493"
			},
			"external": {
				"addCandidate(string)": "infinite",
				"balletPaper(bytes32,uint256,uint256)": "infinite",
				"candidateCount()": "2451",
				"getCandidate(uint256)": "infinite",
				"getResult()": "infinite",
				"getVoteRecord(bytes32)": "infinite",
				"serialNumbers(uint256)": "4882",
				"voteRecords(bytes32)": "infinite",
				"votesCount(bytes32)": "2862"
			}
		},
		"methodIdentifiers": {
			"addCandidate(string)": "462e91ec",
			"balletPaper(bytes32,uint256,uint256)": "4c101149",
			"candidateCount()": "a9a981a3",
			"getCandidate(uint256)": "35b8e820",
			"getResult()": "de292789",
			"getVoteRecord(bytes32)": "a9bedae4",
			"serialNumbers(uint256)": "81fbd329",
			"voteRecords(bytes32)": "79916eb4",
			"votesCount(bytes32)": "aae46bab"
		}
	},
	"abi": [
		{
			"inputs": [],
			"stateMutability": "nonpayable",
			"type": "constructor"
		},
		{
			"inputs": [
				{
					"internalType": "string",
					"name": "_name",
					"type": "string"
				}
			],
			"name": "addCandidate",
			"outputs": [],
			"stateMutability": "nonpayable",
			"type": "function"
		},
		{
			"inputs": [
				{
					"internalType": "bytes32",
					"name": "_serialno",
					"type": "bytes32"
				},
				{
					"internalType": "uint256",
					"name": "_cnic",
					"type": "uint256"
				},
				{
					"internalType": "uint256",
					"name": "_i",
					"type": "uint256"
				}
			],
			"name": "balletPaper",
			"outputs": [],
			"stateMutability": "nonpayable",
			"type": "function"
		},
		{
			"inputs": [],
			"name": "candidateCount",
			"outputs": [
				{
					"internalType": "uint256",
					"name": "",
					"type": "uint256"
				}
			],
			"stateMutability": "view",
			"type": "function"
		},
		{
			"inputs": [
				{
					"internalType": "uint256",
					"name": "_index",
					"type": "uint256"
				}
			],
			"name": "getCandidate",
			"outputs": [
				{
					"components": [
						{
							"internalType": "string",
							"name": "name",
							"type": "string"
						},
						{
							"internalType": "uint256",
							"name": "votesCount",
							"type": "uint256"
						}
					],
					"internalType": "struct HandleVote.CandidateDetail",
					"name": "",
					"type": "tuple"
				}
			],
			"stateMutability": "view",
			"type": "function"
		},
		{
			"inputs": [],
			"name": "getResult",
			"outputs": [
				{
					"components": [
						{
							"internalType": "bytes32",
							"name": "serialNo",
							"type": "bytes32"
						},
						{
							"internalType": "string",
							"name": "candidateName",
							"type": "string"
						}
					],
					"internalType": "struct HandleVote.VoteResult[]",
					"name": "",
					"type": "tuple[]"
				}
			],
			"stateMutability": "view",
			"type": "function"
		},
		{
			"inputs": [
				{
					"internalType": "bytes32",
					"name": "_serialno",
					"type": "bytes32"
				}
			],
			"name": "getVoteRecord",
			"outputs": [
				{
					"components": [
						{
							"internalType": "string",
							"name": "name",
							"type": "string"
						},
						{
							"internalType": "uint256",
							"name": "votesCount",
							"type": "uint256"
						}
					],
					"internalType": "struct HandleVote.CandidateDetail",
					"name": "",
					"type": "tuple"
				}
			],
			"stateMutability": "view",
			"type": "function"
		},
		{
			"inputs": [
				{
					"internalType": "uint256",
					"name": "",
					"type": "uint256"
				}
			],
			"name": "serialNumbers",
			"outputs": [
				{
					"internalType": "bytes32",
					"name": "",
					"type": "bytes32"
				}
			],
			"stateMutability": "view",
			"type": "function"
		},
		{
			"inputs": [
				{
					"internalType": "bytes32",
					"name": "",
					"type": "bytes32"
				}
			],
			"name": "voteRecords",
			"outputs": [
				{
					"internalType": "string",
					"name": "name",
					"type": "string"
				},
				{
					"internalType": "uint256",
					"name": "votesCount",
					"type": "uint256"
				}
			],
			"stateMutability": "view",
			"type": "function"
		},
		{
			"inputs": [
				{
					"internalType": "bytes32",
					"name": "",
					"type": "bytes32"
				}
			],
			"name": "votesCount",
			"outputs": [
				{
					"internalType": "bool",
					"name": "",
					"type": "bool"
				}
			],
			"stateMutability": "view",
			"type": "function"
		}
	]
}