{
	"contract/Vt.sol": {
		"VotingSystem": {
			"abi": [
				{
					"inputs": [],
					"stateMutability": "nonpayable",
					"type": "constructor"
				},
				{
					"inputs": [
						{
							"internalType": "uint256",
							"name": "_id",
							"type": "uint256"
						}
					],
					"name": "Seecandidatedetail",
					"outputs": [
						{
							"internalType": "string",
							"name": "name",
							"type": "string"
						}
					],
					"stateMutability": "view",
					"type": "function"
				},
				{
					"inputs": [
						{
							"internalType": "string",
							"name": "_name",
							"type": "string"
						}
					],
					"name": "addCandidates",
					"outputs": [],
					"stateMutability": "nonpayable",
					"type": "function"
				},
				{
					"inputs": [],
					"name": "candidatesCount",
					"outputs": [
						{
							"internalType": "uint256",
							"name": "",
							"type": "uint256"
						}
					],
					"stateMutability": "view",
					"type": "function"
				},
				{
					"inputs": [],
					"name": "owner",
					"outputs": [
						{
							"internalType": "address",
							"name": "",
							"type": "address"
						}
					],
					"stateMutability": "view",
					"type": "function"
				},
				{
					"inputs": [],
					"name": "seewhoWon",
					"outputs": [
						{
							"internalType": "string",
							"name": "winnerName",
							"type": "string"
						},
						{
							"internalType": "uint256",
							"name": "winnerVoteCount",
							"type": "uint256"
						}
					],
					"stateMutability": "view",
					"type": "function"
				},
				{
					"inputs": [
						{
							"internalType": "uint256",
							"name": "_idofCandidate",
							"type": "uint256"
						}
					],
					"name": "vote",
					"outputs": [],
					"stateMutability": "nonpayable",
					"type": "function"
				}
			],
			"devdoc": {
				"kind": "dev",
				"methods": {},
				"version": 1
			},
			"evm": {
				"assembly": "    /* \"contract/Vt.sol\":60:1889  contract VotingSystem {... */\n  mstore(0x40, 0x80)\n    /* \"contract/Vt.sol\":251:302  constructor() {... */\n  callvalue\n  dup1\n  iszero\n  tag_1\n  jumpi\n  0x00\n  dup1\n  revert\ntag_1:\n  pop\n    /* \"contract/Vt.sol\":284:294  msg.sender */\n  caller\n    /* \"contract/Vt.sol\":276:281  owner */\n  0x00\n  dup1\n    /* \"contract/Vt.sol\":276:294  owner = msg.sender */\n  0x0100\n  exp\n  dup2\n  sload\n  dup2\n  0xffffffffffffffffffffffffffffffffffffffff\n  mul\n  not\n  and\n  swap1\n  dup4\n  0xffffffffffffffffffffffffffffffffffffffff\n  and\n  mul\n  or\n  swap1\n  sstore\n  pop\n    /* \"contract/Vt.sol\":60:1889  contract VotingSystem {... */\n  dataSize(sub_0)\n  dup1\n  dataOffset(sub_0)\n  0x00\n  codecopy\n  0x00\n  return\nstop\n\nsub_0: assembly {\n        /* \"contract/Vt.sol\":60:1889  contract VotingSystem {... */\n      mstore(0x40, 0x80)\n      callvalue\n      dup1\n      iszero\n      tag_1\n      jumpi\n      0x00\n      dup1\n      revert\n    tag_1:\n      pop\n      jumpi(tag_2, lt(calldatasize, 0x04))\n      shr(0xe0, calldataload(0x00))\n      dup1\n      0x0121b93f\n      eq\n      tag_3\n      jumpi\n      dup1\n      0x2d35a8a2\n      eq\n      tag_4\n      jumpi\n      dup1\n      0x322a0318\n      eq\n      tag_5\n      jumpi\n      dup1\n      0x4b9c0967\n      eq\n      tag_6\n      jumpi\n      dup1\n      0x62604e96\n      eq\n      tag_7\n      jumpi\n      dup1\n      0x8da5cb5b\n      eq\n      tag_8\n      jumpi\n    tag_2:\n      0x00\n      dup1\n      revert\n        /* \"contract/Vt.sol\":995:1195  function vote(uint _idofCandidate) public hasVoted {... */\n    tag_3:\n      tag_9\n      0x04\n      dup1\n      calldatasize\n      sub\n      dup2\n      add\n      swap1\n      tag_10\n      swap2\n      swap1\n      tag_11\n      jump\t// in\n    tag_10:\n      tag_12\n      jump\t// in\n    tag_9:\n      stop\n        /* \"contract/Vt.sol\":596:623  uint public candidatesCount */\n    tag_4:\n      tag_13\n      tag_14\n      jump\t// in\n    tag_13:\n      mload(0x40)\n      tag_15\n      swap2\n      swap1\n      tag_16\n      jump\t// in\n    tag_15:\n      mload(0x40)\n      dup1\n      swap2\n      sub\n      swap1\n      return\n        /* \"contract/Vt.sol\":797:987  function Seecandidatedetail(... */\n    tag_5:\n      tag_17\n      0x04\n      dup1\n      calldatasize\n      sub\n      dup2\n      add\n      swap1\n      tag_18\n      swap2\n      swap1\n      tag_11\n      jump\t// in\n    tag_18:\n      tag_19\n      jump\t// in\n    tag_17:\n      mload(0x40)\n      tag_20\n      swap2\n      swap1\n      tag_21\n      jump\t// in\n    tag_20:\n      mload(0x40)\n      dup1\n      swap2\n      sub\n      swap1\n      return\n        /* \"contract/Vt.sol\":1203:1886  function seewhoWon()... */\n    tag_6:\n      tag_22\n      tag_23\n      jump\t// in\n    tag_22:\n      mload(0x40)\n      tag_24\n      swap3\n      swap2\n      swap1\n      tag_25\n      jump\t// in\n    tag_24:\n      mload(0x40)\n      dup1\n      swap2\n      sub\n      swap1\n      return\n        /* \"contract/Vt.sol\":632:789  function addCandidates(string memory _name) public onlyOwner {... */\n    tag_7:\n      tag_26\n      0x04\n      dup1\n      calldatasize\n      sub\n      dup2\n      add\n      swap1\n      tag_27\n      swap2\n      swap1\n      tag_28\n      jump\t// in\n    tag_27:\n      tag_29\n      jump\t// in\n    tag_26:\n      stop\n        /* \"contract/Vt.sol\":89:109  address public owner */\n    tag_8:\n      tag_30\n      tag_31\n      jump\t// in\n    tag_30:\n      mload(0x40)\n      tag_32\n      swap2\n      swap1\n      tag_33\n      jump\t// in\n    tag_32:\n      mload(0x40)\n      dup1\n      swap2\n      sub\n      swap1\n      return\n        /* \"contract/Vt.sol\":995:1195  function vote(uint _idofCandidate) public hasVoted {... */\n    tag_12:\n        /* \"contract/Vt.sol\":350:362  alreadyVoted */\n      0x01\n        /* \"contract/Vt.sol\":350:374  alreadyVoted[msg.sender] */\n      0x00\n        /* \"contract/Vt.sol\":363:373  msg.sender */\n      caller\n        /* \"contract/Vt.sol\":350:374  alreadyVoted[msg.sender] */\n      0xffffffffffffffffffffffffffffffffffffffff\n      and\n      0xffffffffffffffffffffffffffffffffffffffff\n      and\n      dup2\n      mstore\n      0x20\n      add\n      swap1\n      dup2\n      mstore\n      0x20\n      add\n      0x00\n      keccak256\n      0x00\n      swap1\n      sload\n      swap1\n      0x0100\n      exp\n      swap1\n      div\n      0xff\n      and\n        /* \"contract/Vt.sol\":349:374  !alreadyVoted[msg.sender] */\n      iszero\n        /* \"contract/Vt.sol\":341:402  require(!alreadyVoted[msg.sender], \"You have already voted.\") */\n      tag_35\n      jumpi\n      mload(0x40)\n      0x08c379a000000000000000000000000000000000000000000000000000000000\n      dup2\n      mstore\n      0x04\n      add\n      tag_36\n      swap1\n      tag_37\n      jump\t// in\n    tag_36:\n      mload(0x40)\n      dup1\n      swap2\n      sub\n      swap1\n      revert\n    tag_35:\n        /* \"contract/Vt.sol\":1084:1088  true */\n      0x01\n        /* \"contract/Vt.sol\":1057:1069  alreadyVoted */\n      dup1\n        /* \"contract/Vt.sol\":1057:1081  alreadyVoted[msg.sender] */\n      0x00\n        /* \"contract/Vt.sol\":1070:1080  msg.sender */\n      caller\n        /* \"contract/Vt.sol\":1057:1081  alreadyVoted[msg.sender] */\n      0xffffffffffffffffffffffffffffffffffffffff\n      and\n      0xffffffffffffffffffffffffffffffffffffffff\n      and\n      dup2\n      mstore\n      0x20\n      add\n      swap1\n      dup2\n      mstore\n      0x20\n      add\n      0x00\n      keccak256\n      0x00\n        /* \"contract/Vt.sol\":1057:1088  alreadyVoted[msg.sender] = true */\n      0x0100\n      exp\n      dup2\n      sload\n      dup2\n      0xff\n      mul\n      not\n      and\n      swap1\n      dup4\n      iszero\n      iszero\n      mul\n      or\n      swap1\n      sstore\n      pop\n        /* \"contract/Vt.sol\":1099:1126  Candidate storage candidate */\n      0x00\n        /* \"contract/Vt.sol\":1129:1139  candidates */\n      0x02\n        /* \"contract/Vt.sol\":1129:1155  candidates[_idofCandidate] */\n      0x00\n        /* \"contract/Vt.sol\":1140:1154  _idofCandidate */\n      dup4\n        /* \"contract/Vt.sol\":1129:1155  candidates[_idofCandidate] */\n      dup2\n      mstore\n      0x20\n      add\n      swap1\n      dup2\n      mstore\n      0x20\n      add\n      0x00\n      keccak256\n        /* \"contract/Vt.sol\":1099:1155  Candidate storage candidate = candidates[_idofCandidate] */\n      swap1\n      pop\n        /* \"contract/Vt.sol\":1166:1175  candidate */\n      dup1\n        /* \"contract/Vt.sol\":1166:1185  candidate.voteCount */\n      0x01\n      add\n      0x00\n        /* \"contract/Vt.sol\":1166:1187  candidate.voteCount++ */\n      dup2\n      sload\n      dup1\n      swap3\n      swap2\n      swap1\n      tag_39\n      swap1\n      tag_40\n      jump\t// in\n    tag_39:\n      swap2\n      swap1\n      pop\n      sstore\n      pop\n        /* \"contract/Vt.sol\":1046:1195  {... */\n      pop\n        /* \"contract/Vt.sol\":995:1195  function vote(uint _idofCandidate) public hasVoted {... */\n      pop\n      jump\t// out\n        /* \"contract/Vt.sol\":596:623  uint public candidatesCount */\n    tag_14:\n      sload(0x03)\n      dup2\n      jump\t// out\n        /* \"contract/Vt.sol\":797:987  function Seecandidatedetail(... */\n    tag_19:\n        /* \"contract/Vt.sol\":872:890  string memory name */\n      0x60\n        /* \"contract/Vt.sol\":903:929  Candidate memory candidate */\n      0x00\n        /* \"contract/Vt.sol\":932:942  candidates */\n      0x02\n        /* \"contract/Vt.sol\":932:947  candidates[_id] */\n      0x00\n        /* \"contract/Vt.sol\":943:946  _id */\n      dup5\n        /* \"contract/Vt.sol\":932:947  candidates[_id] */\n      dup2\n      mstore\n      0x20\n      add\n      swap1\n      dup2\n      mstore\n      0x20\n      add\n      0x00\n      keccak256\n        /* \"contract/Vt.sol\":903:947  Candidate memory candidate = candidates[_id] */\n      mload(0x40)\n      dup1\n      0x40\n      add\n      0x40\n      mstore\n      swap1\n      dup2\n      0x00\n      dup3\n      add\n      dup1\n      sload\n      tag_42\n      swap1\n      tag_43\n      jump\t// in\n    tag_42:\n      dup1\n      0x1f\n      add\n      0x20\n      dup1\n      swap2\n      div\n      mul\n      0x20\n      add\n      mload(0x40)\n      swap1\n      dup2\n      add\n      0x40\n      mstore\n      dup1\n      swap3\n      swap2\n      swap1\n      dup2\n      dup2\n      mstore\n      0x20\n      add\n      dup3\n      dup1\n      sload\n      tag_44\n      swap1\n      tag_43\n      jump\t// in\n    tag_44:\n      dup1\n      iszero\n      tag_45\n      jumpi\n      dup1\n      0x1f\n      lt\n      tag_46\n      jumpi\n      0x0100\n      dup1\n      dup4\n      sload\n      div\n      mul\n      dup4\n      mstore\n      swap2\n      0x20\n      add\n      swap2\n      jump(tag_45)\n    tag_46:\n      dup3\n      add\n      swap2\n      swap1\n      0x00\n      mstore\n      keccak256(0x00, 0x20)\n      swap1\n    tag_47:\n      dup2\n      sload\n      dup2\n      mstore\n      swap1\n      0x01\n      add\n      swap1\n      0x20\n      add\n      dup1\n      dup4\n      gt\n      tag_47\n      jumpi\n      dup3\n      swap1\n      sub\n      0x1f\n      and\n      dup3\n      add\n      swap2\n    tag_45:\n      pop\n      pop\n      pop\n      pop\n      pop\n      dup2\n      mstore\n      0x20\n      add\n      0x01\n      dup3\n      add\n      sload\n      dup2\n      mstore\n      pop\n      pop\n      swap1\n      pop\n        /* \"contract/Vt.sol\":965:974  candidate */\n      dup1\n        /* \"contract/Vt.sol\":965:979  candidate.name */\n      0x00\n      add\n      mload\n        /* \"contract/Vt.sol\":958:979  return candidate.name */\n      swap2\n      pop\n      pop\n        /* \"contract/Vt.sol\":797:987  function Seecandidatedetail(... */\n      swap2\n      swap1\n      pop\n      jump\t// out\n        /* \"contract/Vt.sol\":1203:1886  function seewhoWon()... */\n    tag_23:\n        /* \"contract/Vt.sol\":1272:1296  string memory winnerName */\n      0x60\n        /* \"contract/Vt.sol\":1298:1318  uint winnerVoteCount */\n      0x00\n        /* \"contract/Vt.sol\":1336:1357  uint winningVoteCount */\n      dup1\n        /* \"contract/Vt.sol\":1360:1361  0 */\n      0x00\n        /* \"contract/Vt.sol\":1336:1361  uint winningVoteCount = 0 */\n      swap1\n      pop\n        /* \"contract/Vt.sol\":1372:1395  uint winningCandidateId */\n      0x00\n        /* \"contract/Vt.sol\":1417:1423  uint i */\n      dup1\n        /* \"contract/Vt.sol\":1426:1427  1 */\n      0x01\n        /* \"contract/Vt.sol\":1417:1427  uint i = 1 */\n      swap1\n      pop\n        /* \"contract/Vt.sol\":1412:1648  for (uint i = 1; i <= candidatesCount; i++) {... */\n    tag_49:\n        /* \"contract/Vt.sol\":1434:1449  candidatesCount */\n      sload(0x03)\n        /* \"contract/Vt.sol\":1429:1430  i */\n      dup2\n        /* \"contract/Vt.sol\":1429:1449  i <= candidatesCount */\n      gt\n        /* \"contract/Vt.sol\":1412:1648  for (uint i = 1; i <= candidatesCount; i++) {... */\n      tag_50\n      jumpi\n        /* \"contract/Vt.sol\":1501:1517  winningVoteCount */\n      dup3\n        /* \"contract/Vt.sol\":1475:1485  candidates */\n      0x02\n        /* \"contract/Vt.sol\":1475:1488  candidates[i] */\n      0x00\n        /* \"contract/Vt.sol\":1486:1487  i */\n      dup4\n        /* \"contract/Vt.sol\":1475:1488  candidates[i] */\n      dup2\n      mstore\n      0x20\n      add\n      swap1\n      dup2\n      mstore\n      0x20\n      add\n      0x00\n      keccak256\n        /* \"contract/Vt.sol\":1475:1498  candidates[i].voteCount */\n      0x01\n      add\n      sload\n        /* \"contract/Vt.sol\":1475:1517  candidates[i].voteCount > winningVoteCount */\n      gt\n        /* \"contract/Vt.sol\":1471:1637  if (candidates[i].voteCount > winningVoteCount) {... */\n      iszero\n      tag_52\n      jumpi\n        /* \"contract/Vt.sol\":1557:1567  candidates */\n      0x02\n        /* \"contract/Vt.sol\":1557:1570  candidates[i] */\n      0x00\n        /* \"contract/Vt.sol\":1568:1569  i */\n      dup3\n        /* \"contract/Vt.sol\":1557:1570  candidates[i] */\n      dup2\n      mstore\n      0x20\n      add\n      swap1\n      dup2\n      mstore\n      0x20\n      add\n      0x00\n      keccak256\n        /* \"contract/Vt.sol\":1557:1580  candidates[i].voteCount */\n      0x01\n      add\n      sload\n        /* \"contract/Vt.sol\":1538:1580  winningVoteCount = candidates[i].voteCount */\n      swap3\n      pop\n        /* \"contract/Vt.sol\":1620:1621  i */\n      dup1\n        /* \"contract/Vt.sol\":1599:1621  winningCandidateId = i */\n      swap2\n      pop\n        /* \"contract/Vt.sol\":1471:1637  if (candidates[i].voteCount > winningVoteCount) {... */\n    tag_52:\n        /* \"contract/Vt.sol\":1451:1454  i++ */\n      dup1\n      dup1\n      tag_53\n      swap1\n      tag_40\n      jump\t// in\n    tag_53:\n      swap2\n      pop\n      pop\n        /* \"contract/Vt.sol\":1412:1648  for (uint i = 1; i <= candidatesCount; i++) {... */\n      jump(tag_49)\n    tag_50:\n      pop\n        /* \"contract/Vt.sol\":1686:1687  0 */\n      0x00\n        /* \"contract/Vt.sol\":1664:1682  winningCandidateId */\n      dup2\n        /* \"contract/Vt.sol\":1664:1687  winningCandidateId == 0 */\n      sub\n        /* \"contract/Vt.sol\":1660:1743  if (winningCandidateId == 0) {... */\n      tag_54\n      jumpi\n        /* \"contract/Vt.sol\":1729:1730  0 */\n      0x00\n        /* \"contract/Vt.sol\":1704:1731  return (\"No candidates\", 0) */\n      mload(0x40)\n      dup1\n      0x40\n      add\n      0x40\n      mstore\n      dup1\n      0x0d\n      dup2\n      mstore\n      0x20\n      add\n      0x4e6f2063616e6469646174657300000000000000000000000000000000000000\n      dup2\n      mstore\n      pop\n      swap1\n      swap4\n      pop\n      swap4\n      pop\n      pop\n      pop\n      jump(tag_48)\n        /* \"contract/Vt.sol\":1660:1743  if (winningCandidateId == 0) {... */\n    tag_54:\n        /* \"contract/Vt.sol\":1777:1787  candidates */\n      0x02\n        /* \"contract/Vt.sol\":1777:1807  candidates[winningCandidateId] */\n      0x00\n        /* \"contract/Vt.sol\":1788:1806  winningCandidateId */\n      dup3\n        /* \"contract/Vt.sol\":1777:1807  candidates[winningCandidateId] */\n      dup2\n      mstore\n      0x20\n      add\n      swap1\n      dup2\n      mstore\n      0x20\n      add\n      0x00\n      keccak256\n        /* \"contract/Vt.sol\":1777:1812  candidates[winningCandidateId].name */\n      0x00\n      add\n        /* \"contract/Vt.sol\":1827:1837  candidates */\n      0x02\n        /* \"contract/Vt.sol\":1827:1857  candidates[winningCandidateId] */\n      0x00\n        /* \"contract/Vt.sol\":1838:1856  winningCandidateId */\n      dup4\n        /* \"contract/Vt.sol\":1827:1857  candidates[winningCandidateId] */\n      dup2\n      mstore\n      0x20\n      add\n      swap1\n      dup2\n      mstore\n      0x20\n      add\n      0x00\n      keccak256\n        /* \"contract/Vt.sol\":1827:1867  candidates[winningCandidateId].voteCount */\n      0x01\n      add\n      sload\n        /* \"contract/Vt.sol\":1755:1878  return (... */\n      dup2\n      dup1\n      sload\n      tag_55\n      swap1\n      tag_43\n      jump\t// in\n    tag_55:\n      dup1\n      0x1f\n      add\n      0x20\n      dup1\n      swap2\n      div\n      mul\n      0x20\n      add\n      mload(0x40)\n      swap1\n      dup2\n      add\n      0x40\n      mstore\n      dup1\n      swap3\n      swap2\n      swap1\n      dup2\n      dup2\n      mstore\n      0x20\n      add\n      dup3\n      dup1\n      sload\n      tag_56\n      swap1\n      tag_43\n      jump\t// in\n    tag_56:\n      dup1\n      iszero\n      tag_57\n      jumpi\n      dup1\n      0x1f\n      lt\n      tag_58\n      jumpi\n      0x0100\n      dup1\n      dup4\n      sload\n      div\n      mul\n      dup4\n      mstore\n      swap2\n      0x20\n      add\n      swap2\n      jump(tag_57)\n    tag_58:\n      dup3\n      add\n      swap2\n      swap1\n      0x00\n      mstore\n      keccak256(0x00, 0x20)\n      swap1\n    tag_59:\n      dup2\n      sload\n      dup2\n      mstore\n      swap1\n      0x01\n      add\n      swap1\n      0x20\n      add\n      dup1\n      dup4\n      gt\n      tag_59\n      jumpi\n      dup3\n      swap1\n      sub\n      0x1f\n      and\n      dup3\n      add\n      swap2\n    tag_57:\n      pop\n      pop\n      pop\n      pop\n      pop\n      swap2\n      pop\n      swap4\n      pop\n      swap4\n      pop\n      pop\n      pop\n        /* \"contract/Vt.sol\":1203:1886  function seewhoWon()... */\n    tag_48:\n      swap1\n      swap2\n      jump\t// out\n        /* \"contract/Vt.sol\":632:789  function addCandidates(string memory _name) public onlyOwner {... */\n    tag_29:\n        /* \"contract/Vt.sol\":484:489  owner */\n      0x00\n      dup1\n      sload\n      swap1\n      0x0100\n      exp\n      swap1\n      div\n      0xffffffffffffffffffffffffffffffffffffffff\n      and\n        /* \"contract/Vt.sol\":470:489  msg.sender == owner */\n      0xffffffffffffffffffffffffffffffffffffffff\n      and\n        /* \"contract/Vt.sol\":470:480  msg.sender */\n      caller\n        /* \"contract/Vt.sol\":470:489  msg.sender == owner */\n      0xffffffffffffffffffffffffffffffffffffffff\n      and\n      eq\n        /* \"contract/Vt.sol\":462:515  require(msg.sender == owner, \"You have no authority\") */\n      tag_61\n      jumpi\n      mload(0x40)\n      0x08c379a000000000000000000000000000000000000000000000000000000000\n      dup2\n      mstore\n      0x04\n      add\n      tag_62\n      swap1\n      tag_63\n      jump\t// in\n    tag_62:\n      mload(0x40)\n      dup1\n      swap2\n      sub\n      swap1\n      revert\n    tag_61:\n        /* \"contract/Vt.sol\":704:719  candidatesCount */\n      0x03\n      0x00\n        /* \"contract/Vt.sol\":704:721  candidatesCount++ */\n      dup2\n      sload\n      dup1\n      swap3\n      swap2\n      swap1\n      tag_65\n      swap1\n      tag_40\n      jump\t// in\n    tag_65:\n      swap2\n      swap1\n      pop\n      sstore\n      pop\n        /* \"contract/Vt.sol\":762:781  Candidate(_name, 0) */\n      mload(0x40)\n      dup1\n      0x40\n      add\n      0x40\n      mstore\n      dup1\n        /* \"contract/Vt.sol\":772:777  _name */\n      dup3\n        /* \"contract/Vt.sol\":762:781  Candidate(_name, 0) */\n      dup2\n      mstore\n      0x20\n      add\n        /* \"contract/Vt.sol\":779:780  0 */\n      0x00\n        /* \"contract/Vt.sol\":762:781  Candidate(_name, 0) */\n      dup2\n      mstore\n      pop\n        /* \"contract/Vt.sol\":732:742  candidates */\n      0x02\n        /* \"contract/Vt.sol\":732:759  candidates[candidatesCount] */\n      0x00\n        /* \"contract/Vt.sol\":743:758  candidatesCount */\n      sload(0x03)\n        /* \"contract/Vt.sol\":732:759  candidates[candidatesCount] */\n      dup2\n      mstore\n      0x20\n      add\n      swap1\n      dup2\n      mstore\n      0x20\n      add\n      0x00\n      keccak256\n        /* \"contract/Vt.sol\":732:781  candidates[candidatesCount] = Candidate(_name, 0) */\n      0x00\n      dup3\n      add\n      mload\n      dup2\n      0x00\n      add\n      swap1\n      dup2\n      tag_66\n      swap2\n      swap1\n      tag_67\n      jump\t// in\n    tag_66:\n      pop\n      0x20\n      dup3\n      add\n      mload\n      dup2\n      0x01\n      add\n      sstore\n      swap1\n      pop\n      pop\n        /* \"contract/Vt.sol\":632:789  function addCandidates(string memory _name) public onlyOwner {... */\n      pop\n      jump\t// out\n        /* \"contract/Vt.sol\":89:109  address public owner */\n    tag_31:\n      0x00\n      dup1\n      sload\n      swap1\n      0x0100\n      exp\n      swap1\n      div\n      0xffffffffffffffffffffffffffffffffffffffff\n      and\n      dup2\n      jump\t// out\n        /* \"#utility.yul\":7:82   */\n    tag_68:\n        /* \"#utility.yul\":40:46   */\n      0x00\n        /* \"#utility.yul\":73:75   */\n      0x40\n        /* \"#utility.yul\":67:76   */\n      mload\n        /* \"#utility.yul\":57:76   */\n      swap1\n      pop\n        /* \"#utility.yul\":7:82   */\n      swap1\n      jump\t// out\n        /* \"#utility.yul\":88:205   */\n    tag_69:\n        /* \"#utility.yul\":197:198   */\n      0x00\n        /* \"#utility.yul\":194:195   */\n      dup1\n        /* \"#utility.yul\":187:199   */\n      revert\n        /* \"#utility.yul\":211:328   */\n    tag_70:\n        /* \"#utility.yul\":320:321   */\n      0x00\n        /* \"#utility.yul\":317:318   */\n      dup1\n        /* \"#utility.yul\":310:322   */\n      revert\n        /* \"#utility.yul\":334:411   */\n    tag_71:\n        /* \"#utility.yul\":371:378   */\n      0x00\n        /* \"#utility.yul\":400:405   */\n      dup2\n        /* \"#utility.yul\":389:405   */\n      swap1\n      pop\n        /* \"#utility.yul\":334:411   */\n      swap2\n      swap1\n      pop\n      jump\t// out\n        /* \"#utility.yul\":417:539   */\n    tag_72:\n        /* \"#utility.yul\":490:514   */\n      tag_119\n        /* \"#utility.yul\":508:513   */\n      dup2\n        /* \"#utility.yul\":490:514   */\n      tag_71\n      jump\t// in\n    tag_119:\n        /* \"#utility.yul\":483:488   */\n      dup2\n        /* \"#utility.yul\":480:515   */\n      eq\n        /* \"#utility.yul\":470:533   */\n      tag_120\n      jumpi\n        /* \"#utility.yul\":529:530   */\n      0x00\n        /* \"#utility.yul\":526:527   */\n      dup1\n        /* \"#utility.yul\":519:531   */\n      revert\n        /* \"#utility.yul\":470:533   */\n    tag_120:\n        /* \"#utility.yul\":417:539   */\n      pop\n      jump\t// out\n        /* \"#utility.yul\":545:684   */\n    tag_73:\n        /* \"#utility.yul\":591:596   */\n      0x00\n        /* \"#utility.yul\":629:635   */\n      dup2\n        /* \"#utility.yul\":616:636   */\n      calldataload\n        /* \"#utility.yul\":607:636   */\n      swap1\n      pop\n        /* \"#utility.yul\":645:678   */\n      tag_122\n        /* \"#utility.yul\":672:677   */\n      dup2\n        /* \"#utility.yul\":645:678   */\n      tag_72\n      jump\t// in\n    tag_122:\n        /* \"#utility.yul\":545:684   */\n      swap3\n      swap2\n      pop\n      pop\n      jump\t// out\n        /* \"#utility.yul\":690:1019   */\n    tag_11:\n        /* \"#utility.yul\":749:755   */\n      0x00\n        /* \"#utility.yul\":798:800   */\n      0x20\n        /* \"#utility.yul\":786:795   */\n      dup3\n        /* \"#utility.yul\":777:784   */\n      dup5\n        /* \"#utility.yul\":773:796   */\n      sub\n        /* \"#utility.yul\":769:801   */\n      slt\n        /* \"#utility.yul\":766:885   */\n      iszero\n      tag_124\n      jumpi\n        /* \"#utility.yul\":804:883   */\n      tag_125\n      tag_69\n      jump\t// in\n    tag_125:\n        /* \"#utility.yul\":766:885   */\n    tag_124:\n        /* \"#utility.yul\":924:925   */\n      0x00\n        /* \"#utility.yul\":949:1002   */\n      tag_126\n        /* \"#utility.yul\":994:1001   */\n      dup5\n        /* \"#utility.yul\":985:991   */\n      dup3\n        /* \"#utility.yul\":974:983   */\n      dup6\n        /* \"#utility.yul\":970:992   */\n      add\n        /* \"#utility.yul\":949:1002   */\n      tag_73\n      jump\t// in\n    tag_126:\n        /* \"#utility.yul\":939:1002   */\n      swap2\n      pop\n        /* \"#utility.yul\":895:1012   */\n      pop\n        /* \"#utility.yul\":690:1019   */\n      swap3\n      swap2\n      pop\n      pop\n      jump\t// out\n        /* \"#utility.yul\":1025:1143   */\n    tag_74:\n        /* \"#utility.yul\":1112:1136   */\n      tag_128\n        /* \"#utility.yul\":1130:1135   */\n      dup2\n        /* \"#utility.yul\":1112:1136   */\n      tag_71\n      jump\t// in\n    tag_128:\n        /* \"#utility.yul\":1107:1110   */\n      dup3\n        /* \"#utility.yul\":1100:1137   */\n      mstore\n        /* \"#utility.yul\":1025:1143   */\n      pop\n      pop\n      jump\t// out\n        /* \"#utility.yul\":1149:1371   */\n    tag_16:\n        /* \"#utility.yul\":1242:1246   */\n      0x00\n        /* \"#utility.yul\":1280:1282   */\n      0x20\n        /* \"#utility.yul\":1269:1278   */\n      dup3\n        /* \"#utility.yul\":1265:1283   */\n      add\n        /* \"#utility.yul\":1257:1283   */\n      swap1\n      pop\n        /* \"#utility.yul\":1293:1364   */\n      tag_130\n        /* \"#utility.yul\":1361:1362   */\n      0x00\n        /* \"#utility.yul\":1350:1359   */\n      dup4\n        /* \"#utility.yul\":1346:1363   */\n      add\n        /* \"#utility.yul\":1337:1343   */\n      dup5\n        /* \"#utility.yul\":1293:1364   */\n      tag_74\n      jump\t// in\n    tag_130:\n        /* \"#utility.yul\":1149:1371   */\n      swap3\n      swap2\n      pop\n      pop\n      jump\t// out\n        /* \"#utility.yul\":1377:1476   */\n    tag_75:\n        /* \"#utility.yul\":1429:1435   */\n      0x00\n        /* \"#utility.yul\":1463:1468   */\n      dup2\n        /* \"#utility.yul\":1457:1469   */\n      mload\n        /* \"#utility.yul\":1447:1469   */\n      swap1\n      pop\n        /* \"#utility.yul\":1377:1476   */\n      swap2\n      swap1\n      pop\n      jump\t// out\n        /* \"#utility.yul\":1482:1651   */\n    tag_76:\n        /* \"#utility.yul\":1566:1577   */\n      0x00\n        /* \"#utility.yul\":1600:1606   */\n      dup3\n        /* \"#utility.yul\":1595:1598   */\n      dup3\n        /* \"#utility.yul\":1588:1607   */\n      mstore\n        /* \"#utility.yul\":1640:1644   */\n      0x20\n        /* \"#utility.yul\":1635:1638   */\n      dup3\n        /* \"#utility.yul\":1631:1645   */\n      add\n        /* \"#utility.yul\":1616:1645   */\n      swap1\n      pop\n        /* \"#utility.yul\":1482:1651   */\n      swap3\n      swap2\n      pop\n      pop\n      jump\t// out\n        /* \"#utility.yul\":1657:1903   */\n    tag_77:\n        /* \"#utility.yul\":1738:1739   */\n      0x00\n        /* \"#utility.yul\":1748:1861   */\n    tag_134:\n        /* \"#utility.yul\":1762:1768   */\n      dup4\n        /* \"#utility.yul\":1759:1760   */\n      dup2\n        /* \"#utility.yul\":1756:1769   */\n      lt\n        /* \"#utility.yul\":1748:1861   */\n      iszero\n      tag_136\n      jumpi\n        /* \"#utility.yul\":1847:1848   */\n      dup1\n        /* \"#utility.yul\":1842:1845   */\n      dup3\n        /* \"#utility.yul\":1838:1849   */\n      add\n        /* \"#utility.yul\":1832:1850   */\n      mload\n        /* \"#utility.yul\":1828:1829   */\n      dup2\n        /* \"#utility.yul\":1823:1826   */\n      dup5\n        /* \"#utility.yul\":1819:1830   */\n      add\n        /* \"#utility.yul\":1812:1851   */\n      mstore\n        /* \"#utility.yul\":1784:1786   */\n      0x20\n        /* \"#utility.yul\":1781:1782   */\n      dup2\n        /* \"#utility.yul\":1777:1787   */\n      add\n        /* \"#utility.yul\":1772:1787   */\n      swap1\n      pop\n        /* \"#utility.yul\":1748:1861   */\n      jump(tag_134)\n    tag_136:\n        /* \"#utility.yul\":1895:1896   */\n      0x00\n        /* \"#utility.yul\":1886:1892   */\n      dup5\n        /* \"#utility.yul\":1881:1884   */\n      dup5\n        /* \"#utility.yul\":1877:1893   */\n      add\n        /* \"#utility.yul\":1870:1897   */\n      mstore\n        /* \"#utility.yul\":1719:1903   */\n      pop\n        /* \"#utility.yul\":1657:1903   */\n      pop\n      pop\n      pop\n      jump\t// out\n        /* \"#utility.yul\":1909:2011   */\n    tag_78:\n        /* \"#utility.yul\":1950:1956   */\n      0x00\n        /* \"#utility.yul\":2001:2003   */\n      0x1f\n        /* \"#utility.yul\":1997:2004   */\n      not\n        /* \"#utility.yul\":1992:1994   */\n      0x1f\n        /* \"#utility.yul\":1985:1990   */\n      dup4\n        /* \"#utility.yul\":1981:1995   */\n      add\n        /* \"#utility.yul\":1977:2005   */\n      and\n        /* \"#utility.yul\":1967:2005   */\n      swap1\n      pop\n        /* \"#utility.yul\":1909:2011   */\n      swap2\n      swap1\n      pop\n      jump\t// out\n        /* \"#utility.yul\":2017:2394   */\n    tag_79:\n        /* \"#utility.yul\":2105:2108   */\n      0x00\n        /* \"#utility.yul\":2133:2172   */\n      tag_139\n        /* \"#utility.yul\":2166:2171   */\n      dup3\n        /* \"#utility.yul\":2133:2172   */\n      tag_75\n      jump\t// in\n    tag_139:\n        /* \"#utility.yul\":2188:2259   */\n      tag_140\n        /* \"#utility.yul\":2252:2258   */\n      dup2\n        /* \"#utility.yul\":2247:2250   */\n      dup6\n        /* \"#utility.yul\":2188:2259   */\n      tag_76\n      jump\t// in\n    tag_140:\n        /* \"#utility.yul\":2181:2259   */\n      swap4\n      pop\n        /* \"#utility.yul\":2268:2333   */\n      tag_141\n        /* \"#utility.yul\":2326:2332   */\n      dup2\n        /* \"#utility.yul\":2321:2324   */\n      dup6\n        /* \"#utility.yul\":2314:2318   */\n      0x20\n        /* \"#utility.yul\":2307:2312   */\n      dup7\n        /* \"#utility.yul\":2303:2319   */\n      add\n        /* \"#utility.yul\":2268:2333   */\n      tag_77\n      jump\t// in\n    tag_141:\n        /* \"#utility.yul\":2358:2387   */\n      tag_142\n        /* \"#utility.yul\":2380:2386   */\n      dup2\n        /* \"#utility.yul\":2358:2387   */\n      tag_78\n      jump\t// in\n    tag_142:\n        /* \"#utility.yul\":2353:2356   */\n      dup5\n        /* \"#utility.yul\":2349:2388   */\n      add\n        /* \"#utility.yul\":2342:2388   */\n      swap2\n      pop\n        /* \"#utility.yul\":2109:2394   */\n      pop\n        /* \"#utility.yul\":2017:2394   */\n      swap3\n      swap2\n      pop\n      pop\n      jump\t// out\n        /* \"#utility.yul\":2400:2713   */\n    tag_21:\n        /* \"#utility.yul\":2513:2517   */\n      0x00\n        /* \"#utility.yul\":2551:2553   */\n      0x20\n        /* \"#utility.yul\":2540:2549   */\n      dup3\n        /* \"#utility.yul\":2536:2554   */\n      add\n        /* \"#utility.yul\":2528:2554   */\n      swap1\n      pop\n        /* \"#utility.yul\":2600:2609   */\n      dup2\n        /* \"#utility.yul\":2594:2598   */\n      dup2\n        /* \"#utility.yul\":2590:2610   */\n      sub\n        /* \"#utility.yul\":2586:2587   */\n      0x00\n        /* \"#utility.yul\":2575:2584   */\n      dup4\n        /* \"#utility.yul\":2571:2588   */\n      add\n        /* \"#utility.yul\":2564:2611   */\n      mstore\n        /* \"#utility.yul\":2628:2706   */\n      tag_144\n        /* \"#utility.yul\":2701:2705   */\n      dup2\n        /* \"#utility.yul\":2692:2698   */\n      dup5\n        /* \"#utility.yul\":2628:2706   */\n      tag_79\n      jump\t// in\n    tag_144:\n        /* \"#utility.yul\":2620:2706   */\n      swap1\n      pop\n        /* \"#utility.yul\":2400:2713   */\n      swap3\n      swap2\n      pop\n      pop\n      jump\t// out\n        /* \"#utility.yul\":2719:3142   */\n    tag_25:\n        /* \"#utility.yul\":2860:2864   */\n      0x00\n        /* \"#utility.yul\":2898:2900   */\n      0x40\n        /* \"#utility.yul\":2887:2896   */\n      dup3\n        /* \"#utility.yul\":2883:2901   */\n      add\n        /* \"#utility.yul\":2875:2901   */\n      swap1\n      pop\n        /* \"#utility.yul\":2947:2956   */\n      dup2\n        /* \"#utility.yul\":2941:2945   */\n      dup2\n        /* \"#utility.yul\":2937:2957   */\n      sub\n        /* \"#utility.yul\":2933:2934   */\n      0x00\n        /* \"#utility.yul\":2922:2931   */\n      dup4\n        /* \"#utility.yul\":2918:2935   */\n      add\n        /* \"#utility.yul\":2911:2958   */\n      mstore\n        /* \"#utility.yul\":2975:3053   */\n      tag_146\n        /* \"#utility.yul\":3048:3052   */\n      dup2\n        /* \"#utility.yul\":3039:3045   */\n      dup6\n        /* \"#utility.yul\":2975:3053   */\n      tag_79\n      jump\t// in\n    tag_146:\n        /* \"#utility.yul\":2967:3053   */\n      swap1\n      pop\n        /* \"#utility.yul\":3063:3135   */\n      tag_147\n        /* \"#utility.yul\":3131:3133   */\n      0x20\n        /* \"#utility.yul\":3120:3129   */\n      dup4\n        /* \"#utility.yul\":3116:3134   */\n      add\n        /* \"#utility.yul\":3107:3113   */\n      dup5\n        /* \"#utility.yul\":3063:3135   */\n      tag_74\n      jump\t// in\n    tag_147:\n        /* \"#utility.yul\":2719:3142   */\n      swap4\n      swap3\n      pop\n      pop\n      pop\n      jump\t// out\n        /* \"#utility.yul\":3148:3265   */\n    tag_80:\n        /* \"#utility.yul\":3257:3258   */\n      0x00\n        /* \"#utility.yul\":3254:3255   */\n      dup1\n        /* \"#utility.yul\":3247:3259   */\n      revert\n        /* \"#utility.yul\":3271:3388   */\n    tag_81:\n        /* \"#utility.yul\":3380:3381   */\n      0x00\n        /* \"#utility.yul\":3377:3378   */\n      dup1\n        /* \"#utility.yul\":3370:3382   */\n      revert\n        /* \"#utility.yul\":3394:3574   */\n    tag_82:\n        /* \"#utility.yul\":3442:3519   */\n      0x4e487b7100000000000000000000000000000000000000000000000000000000\n        /* \"#utility.yul\":3439:3440   */\n      0x00\n        /* \"#utility.yul\":3432:3520   */\n      mstore\n        /* \"#utility.yul\":3539:3543   */\n      0x41\n        /* \"#utility.yul\":3536:3537   */\n      0x04\n        /* \"#utility.yul\":3529:3544   */\n      mstore\n        /* \"#utility.yul\":3563:3567   */\n      0x24\n        /* \"#utility.yul\":3560:3561   */\n      0x00\n        /* \"#utility.yul\":3553:3568   */\n      revert\n        /* \"#utility.yul\":3580:3861   */\n    tag_83:\n        /* \"#utility.yul\":3663:3690   */\n      tag_152\n        /* \"#utility.yul\":3685:3689   */\n      dup3\n        /* \"#utility.yul\":3663:3690   */\n      tag_78\n      jump\t// in\n    tag_152:\n        /* \"#utility.yul\":3655:3661   */\n      dup2\n        /* \"#utility.yul\":3651:3691   */\n      add\n        /* \"#utility.yul\":3793:3799   */\n      dup2\n        /* \"#utility.yul\":3781:3791   */\n      dup2\n        /* \"#utility.yul\":3778:3800   */\n      lt\n        /* \"#utility.yul\":3757:3775   */\n      0xffffffffffffffff\n        /* \"#utility.yul\":3745:3755   */\n      dup3\n        /* \"#utility.yul\":3742:3776   */\n      gt\n        /* \"#utility.yul\":3739:3801   */\n      or\n        /* \"#utility.yul\":3736:3824   */\n      iszero\n      tag_153\n      jumpi\n        /* \"#utility.yul\":3804:3822   */\n      tag_154\n      tag_82\n      jump\t// in\n    tag_154:\n        /* \"#utility.yul\":3736:3824   */\n    tag_153:\n        /* \"#utility.yul\":3844:3854   */\n      dup1\n        /* \"#utility.yul\":3840:3842   */\n      0x40\n        /* \"#utility.yul\":3833:3855   */\n      mstore\n        /* \"#utility.yul\":3623:3861   */\n      pop\n        /* \"#utility.yul\":3580:3861   */\n      pop\n      pop\n      jump\t// out\n        /* \"#utility.yul\":3867:3996   */\n    tag_84:\n        /* \"#utility.yul\":3901:3907   */\n      0x00\n        /* \"#utility.yul\":3928:3948   */\n      tag_156\n      tag_68\n      jump\t// in\n    tag_156:\n        /* \"#utility.yul\":3918:3948   */\n      swap1\n      pop\n        /* \"#utility.yul\":3957:3990   */\n      tag_157\n        /* \"#utility.yul\":3985:3989   */\n      dup3\n        /* \"#utility.yul\":3977:3983   */\n      dup3\n        /* \"#utility.yul\":3957:3990   */\n      tag_83\n      jump\t// in\n    tag_157:\n        /* \"#utility.yul\":3867:3996   */\n      swap2\n      swap1\n      pop\n      jump\t// out\n        /* \"#utility.yul\":4002:4310   */\n    tag_85:\n        /* \"#utility.yul\":4064:4068   */\n      0x00\n        /* \"#utility.yul\":4154:4172   */\n      0xffffffffffffffff\n        /* \"#utility.yul\":4146:4152   */\n      dup3\n        /* \"#utility.yul\":4143:4173   */\n      gt\n        /* \"#utility.yul\":4140:4196   */\n      iszero\n      tag_159\n      jumpi\n        /* \"#utility.yul\":4176:4194   */\n      tag_160\n      tag_82\n      jump\t// in\n    tag_160:\n        /* \"#utility.yul\":4140:4196   */\n    tag_159:\n        /* \"#utility.yul\":4214:4243   */\n      tag_161\n        /* \"#utility.yul\":4236:4242   */\n      dup3\n        /* \"#utility.yul\":4214:4243   */\n      tag_78\n      jump\t// in\n    tag_161:\n        /* \"#utility.yul\":4206:4243   */\n      swap1\n      pop\n        /* \"#utility.yul\":4298:4302   */\n      0x20\n        /* \"#utility.yul\":4292:4296   */\n      dup2\n        /* \"#utility.yul\":4288:4303   */\n      add\n        /* \"#utility.yul\":4280:4303   */\n      swap1\n      pop\n        /* \"#utility.yul\":4002:4310   */\n      swap2\n      swap1\n      pop\n      jump\t// out\n        /* \"#utility.yul\":4316:4462   */\n    tag_86:\n        /* \"#utility.yul\":4413:4419   */\n      dup3\n        /* \"#utility.yul\":4408:4411   */\n      dup2\n        /* \"#utility.yul\":4403:4406   */\n      dup4\n        /* \"#utility.yul\":4390:4420   */\n      calldatacopy\n        /* \"#utility.yul\":4454:4455   */\n      0x00\n        /* \"#utility.yul\":4445:4451   */\n      dup4\n        /* \"#utility.yul\":4440:4443   */\n      dup4\n        /* \"#utility.yul\":4436:4452   */\n      add\n        /* \"#utility.yul\":4429:4456   */\n      mstore\n        /* \"#utility.yul\":4316:4462   */\n      pop\n      pop\n      pop\n      jump\t// out\n        /* \"#utility.yul\":4468:4893   */\n    tag_87:\n        /* \"#utility.yul\":4546:4551   */\n      0x00\n        /* \"#utility.yul\":4571:4637   */\n      tag_164\n        /* \"#utility.yul\":4587:4636   */\n      tag_165\n        /* \"#utility.yul\":4629:4635   */\n      dup5\n        /* \"#utility.yul\":4587:4636   */\n      tag_85\n      jump\t// in\n    tag_165:\n        /* \"#utility.yul\":4571:4637   */\n      tag_84\n      jump\t// in\n    tag_164:\n        /* \"#utility.yul\":4562:4637   */\n      swap1\n      pop\n        /* \"#utility.yul\":4660:4666   */\n      dup3\n        /* \"#utility.yul\":4653:4658   */\n      dup2\n        /* \"#utility.yul\":4646:4667   */\n      mstore\n        /* \"#utility.yul\":4698:4702   */\n      0x20\n        /* \"#utility.yul\":4691:4696   */\n      dup2\n        /* \"#utility.yul\":4687:4703   */\n      add\n        /* \"#utility.yul\":4736:4739   */\n      dup5\n        /* \"#utility.yul\":4727:4733   */\n      dup5\n        /* \"#utility.yul\":4722:4725   */\n      dup5\n        /* \"#utility.yul\":4718:4734   */\n      add\n        /* \"#utility.yul\":4715:4740   */\n      gt\n        /* \"#utility.yul\":4712:4824   */\n      iszero\n      tag_166\n      jumpi\n        /* \"#utility.yul\":4743:4822   */\n      tag_167\n      tag_81\n      jump\t// in\n    tag_167:\n        /* \"#utility.yul\":4712:4824   */\n    tag_166:\n        /* \"#utility.yul\":4833:4887   */\n      tag_168\n        /* \"#utility.yul\":4880:4886   */\n      dup5\n        /* \"#utility.yul\":4875:4878   */\n      dup3\n        /* \"#utility.yul\":4870:4873   */\n      dup6\n        /* \"#utility.yul\":4833:4887   */\n      tag_86\n      jump\t// in\n    tag_168:\n        /* \"#utility.yul\":4552:4893   */\n      pop\n        /* \"#utility.yul\":4468:4893   */\n      swap4\n      swap3\n      pop\n      pop\n      pop\n      jump\t// out\n        /* \"#utility.yul\":4913:5253   */\n    tag_88:\n        /* \"#utility.yul\":4969:4974   */\n      0x00\n        /* \"#utility.yul\":5018:5021   */\n      dup3\n        /* \"#utility.yul\":5011:5015   */\n      0x1f\n        /* \"#utility.yul\":5003:5009   */\n      dup4\n        /* \"#utility.yul\":4999:5016   */\n      add\n        /* \"#utility.yul\":4995:5022   */\n      slt\n        /* \"#utility.yul\":4985:5107   */\n      tag_170\n      jumpi\n        /* \"#utility.yul\":5026:5105   */\n      tag_171\n      tag_80\n      jump\t// in\n    tag_171:\n        /* \"#utility.yul\":4985:5107   */\n    tag_170:\n        /* \"#utility.yul\":5143:5149   */\n      dup2\n        /* \"#utility.yul\":5130:5150   */\n      calldataload\n        /* \"#utility.yul\":5168:5247   */\n      tag_172\n        /* \"#utility.yul\":5243:5246   */\n      dup5\n        /* \"#utility.yul\":5235:5241   */\n      dup3\n        /* \"#utility.yul\":5228:5232   */\n      0x20\n        /* \"#utility.yul\":5220:5226   */\n      dup7\n        /* \"#utility.yul\":5216:5233   */\n      add\n        /* \"#utility.yul\":5168:5247   */\n      tag_87\n      jump\t// in\n    tag_172:\n        /* \"#utility.yul\":5159:5247   */\n      swap2\n      pop\n        /* \"#utility.yul\":4975:5253   */\n      pop\n        /* \"#utility.yul\":4913:5253   */\n      swap3\n      swap2\n      pop\n      pop\n      jump\t// out\n        /* \"#utility.yul\":5259:5768   */\n    tag_28:\n        /* \"#utility.yul\":5328:5334   */\n      0x00\n        /* \"#utility.yul\":5377:5379   */\n      0x20\n        /* \"#utility.yul\":5365:5374   */\n      dup3\n        /* \"#utility.yul\":5356:5363   */\n      dup5\n        /* \"#utility.yul\":5352:5375   */\n      sub\n        /* \"#utility.yul\":5348:5380   */\n      slt\n        /* \"#utility.yul\":5345:5464   */\n      iszero\n      tag_174\n      jumpi\n        /* \"#utility.yul\":5383:5462   */\n      tag_175\n      tag_69\n      jump\t// in\n    tag_175:\n        /* \"#utility.yul\":5345:5464   */\n    tag_174:\n        /* \"#utility.yul\":5531:5532   */\n      0x00\n        /* \"#utility.yul\":5520:5529   */\n      dup3\n        /* \"#utility.yul\":5516:5533   */\n      add\n        /* \"#utility.yul\":5503:5534   */\n      calldataload\n        /* \"#utility.yul\":5561:5579   */\n      0xffffffffffffffff\n        /* \"#utility.yul\":5553:5559   */\n      dup2\n        /* \"#utility.yul\":5550:5580   */\n      gt\n        /* \"#utility.yul\":5547:5664   */\n      iszero\n      tag_176\n      jumpi\n        /* \"#utility.yul\":5583:5662   */\n      tag_177\n      tag_70\n      jump\t// in\n    tag_177:\n        /* \"#utility.yul\":5547:5664   */\n    tag_176:\n        /* \"#utility.yul\":5688:5751   */\n      tag_178\n        /* \"#utility.yul\":5743:5750   */\n      dup5\n        /* \"#utility.yul\":5734:5740   */\n      dup3\n        /* \"#utility.yul\":5723:5732   */\n      dup6\n        /* \"#utility.yul\":5719:5741   */\n      add\n        /* \"#utility.yul\":5688:5751   */\n      tag_88\n      jump\t// in\n    tag_178:\n        /* \"#utility.yul\":5678:5751   */\n      swap2\n      pop\n        /* \"#utility.yul\":5474:5761   */\n      pop\n        /* \"#utility.yul\":5259:5768   */\n      swap3\n      swap2\n      pop\n      pop\n      jump\t// out\n        /* \"#utility.yul\":5774:5900   */\n    tag_89:\n        /* \"#utility.yul\":5811:5818   */\n      0x00\n        /* \"#utility.yul\":5851:5893   */\n      0xffffffffffffffffffffffffffffffffffffffff\n        /* \"#utility.yul\":5844:5849   */\n      dup3\n        /* \"#utility.yul\":5840:5894   */\n      and\n        /* \"#utility.yul\":5829:5894   */\n      swap1\n      pop\n        /* \"#utility.yul\":5774:5900   */\n      swap2\n      swap1\n      pop\n      jump\t// out\n        /* \"#utility.yul\":5906:6002   */\n    tag_90:\n        /* \"#utility.yul\":5943:5950   */\n      0x00\n        /* \"#utility.yul\":5972:5996   */\n      tag_181\n        /* \"#utility.yul\":5990:5995   */\n      dup3\n        /* \"#utility.yul\":5972:5996   */\n      tag_89\n      jump\t// in\n    tag_181:\n        /* \"#utility.yul\":5961:5996   */\n      swap1\n      pop\n        /* \"#utility.yul\":5906:6002   */\n      swap2\n      swap1\n      pop\n      jump\t// out\n        /* \"#utility.yul\":6008:6126   */\n    tag_91:\n        /* \"#utility.yul\":6095:6119   */\n      tag_183\n        /* \"#utility.yul\":6113:6118   */\n      dup2\n        /* \"#utility.yul\":6095:6119   */\n      tag_90\n      jump\t// in\n    tag_183:\n        /* \"#utility.yul\":6090:6093   */\n      dup3\n        /* \"#utility.yul\":6083:6120   */\n      mstore\n        /* \"#utility.yul\":6008:6126   */\n      pop\n      pop\n      jump\t// out\n        /* \"#utility.yul\":6132:6354   */\n    tag_33:\n        /* \"#utility.yul\":6225:6229   */\n      0x00\n        /* \"#utility.yul\":6263:6265   */\n      0x20\n        /* \"#utility.yul\":6252:6261   */\n      dup3\n        /* \"#utility.yul\":6248:6266   */\n      add\n        /* \"#utility.yul\":6240:6266   */\n      swap1\n      pop\n        /* \"#utility.yul\":6276:6347   */\n      tag_185\n        /* \"#utility.yul\":6344:6345   */\n      0x00\n        /* \"#utility.yul\":6333:6342   */\n      dup4\n        /* \"#utility.yul\":6329:6346   */\n      add\n        /* \"#utility.yul\":6320:6326   */\n      dup5\n        /* \"#utility.yul\":6276:6347   */\n      tag_91\n      jump\t// in\n    tag_185:\n        /* \"#utility.yul\":6132:6354   */\n      swap3\n      swap2\n      pop\n      pop\n      jump\t// out\n        /* \"#utility.yul\":6360:6533   */\n    tag_92:\n        /* \"#utility.yul\":6500:6525   */\n      0x596f75206861766520616c726561647920766f7465642e000000000000000000\n        /* \"#utility.yul\":6496:6497   */\n      0x00\n        /* \"#utility.yul\":6488:6494   */\n      dup3\n        /* \"#utility.yul\":6484:6498   */\n      add\n        /* \"#utility.yul\":6477:6526   */\n      mstore\n        /* \"#utility.yul\":6360:6533   */\n      pop\n      jump\t// out\n        /* \"#utility.yul\":6539:6905   */\n    tag_93:\n        /* \"#utility.yul\":6681:6684   */\n      0x00\n        /* \"#utility.yul\":6702:6769   */\n      tag_188\n        /* \"#utility.yul\":6766:6768   */\n      0x17\n        /* \"#utility.yul\":6761:6764   */\n      dup4\n        /* \"#utility.yul\":6702:6769   */\n      tag_76\n      jump\t// in\n    tag_188:\n        /* \"#utility.yul\":6695:6769   */\n      swap2\n      pop\n        /* \"#utility.yul\":6778:6871   */\n      tag_189\n        /* \"#utility.yul\":6867:6870   */\n      dup3\n        /* \"#utility.yul\":6778:6871   */\n      tag_92\n      jump\t// in\n    tag_189:\n        /* \"#utility.yul\":6896:6898   */\n      0x20\n        /* \"#utility.yul\":6891:6894   */\n      dup3\n        /* \"#utility.yul\":6887:6899   */\n      add\n        /* \"#utility.yul\":6880:6899   */\n      swap1\n      pop\n        /* \"#utility.yul\":6539:6905   */\n      swap2\n      swap1\n      pop\n      jump\t// out\n        /* \"#utility.yul\":6911:7330   */\n    tag_37:\n        /* \"#utility.yul\":7077:7081   */\n      0x00\n        /* \"#utility.yul\":7115:7117   */\n      0x20\n        /* \"#utility.yul\":7104:7113   */\n      dup3\n        /* \"#utility.yul\":7100:7118   */\n      add\n        /* \"#utility.yul\":7092:7118   */\n      swap1\n      pop\n        /* \"#utility.yul\":7164:7173   */\n      dup2\n        /* \"#utility.yul\":7158:7162   */\n      dup2\n        /* \"#utility.yul\":7154:7174   */\n      sub\n        /* \"#utility.yul\":7150:7151   */\n      0x00\n        /* \"#utility.yul\":7139:7148   */\n      dup4\n        /* \"#utility.yul\":7135:7152   */\n      add\n        /* \"#utility.yul\":7128:7175   */\n      mstore\n        /* \"#utility.yul\":7192:7323   */\n      tag_191\n        /* \"#utility.yul\":7318:7322   */\n      dup2\n        /* \"#utility.yul\":7192:7323   */\n      tag_93\n      jump\t// in\n    tag_191:\n        /* \"#utility.yul\":7184:7323   */\n      swap1\n      pop\n        /* \"#utility.yul\":6911:7330   */\n      swap2\n      swap1\n      pop\n      jump\t// out\n        /* \"#utility.yul\":7336:7516   */\n    tag_94:\n        /* \"#utility.yul\":7384:7461   */\n      0x4e487b7100000000000000000000000000000000000000000000000000000000\n        /* \"#utility.yul\":7381:7382   */\n      0x00\n        /* \"#utility.yul\":7374:7462   */\n      mstore\n        /* \"#utility.yul\":7481:7485   */\n      0x11\n        /* \"#utility.yul\":7478:7479   */\n      0x04\n        /* \"#utility.yul\":7471:7486   */\n      mstore\n        /* \"#utility.yul\":7505:7509   */\n      0x24\n        /* \"#utility.yul\":7502:7503   */\n      0x00\n        /* \"#utility.yul\":7495:7510   */\n      revert\n        /* \"#utility.yul\":7522:7755   */\n    tag_40:\n        /* \"#utility.yul\":7561:7564   */\n      0x00\n        /* \"#utility.yul\":7584:7608   */\n      tag_194\n        /* \"#utility.yul\":7602:7607   */\n      dup3\n        /* \"#utility.yul\":7584:7608   */\n      tag_71\n      jump\t// in\n    tag_194:\n        /* \"#utility.yul\":7575:7608   */\n      swap2\n      pop\n        /* \"#utility.yul\":7630:7696   */\n      0xffffffffffffffffffffffffffffffffffffffffffffffffffffffffffffffff\n        /* \"#utility.yul\":7623:7628   */\n      dup3\n        /* \"#utility.yul\":7620:7697   */\n      sub\n        /* \"#utility.yul\":7617:7720   */\n      tag_195\n      jumpi\n        /* \"#utility.yul\":7700:7718   */\n      tag_196\n      tag_94\n      jump\t// in\n    tag_196:\n        /* \"#utility.yul\":7617:7720   */\n    tag_195:\n        /* \"#utility.yul\":7747:7748   */\n      0x01\n        /* \"#utility.yul\":7740:7745   */\n      dup3\n        /* \"#utility.yul\":7736:7749   */\n      add\n        /* \"#utility.yul\":7729:7749   */\n      swap1\n      pop\n        /* \"#utility.yul\":7522:7755   */\n      swap2\n      swap1\n      pop\n      jump\t// out\n        /* \"#utility.yul\":7761:7941   */\n    tag_95:\n        /* \"#utility.yul\":7809:7886   */\n      0x4e487b7100000000000000000000000000000000000000000000000000000000\n        /* \"#utility.yul\":7806:7807   */\n      0x00\n        /* \"#utility.yul\":7799:7887   */\n      mstore\n        /* \"#utility.yul\":7906:7910   */\n      0x22\n        /* \"#utility.yul\":7903:7904   */\n      0x04\n        /* \"#utility.yul\":7896:7911   */\n      mstore\n        /* \"#utility.yul\":7930:7934   */\n      0x24\n        /* \"#utility.yul\":7927:7928   */\n      0x00\n        /* \"#utility.yul\":7920:7935   */\n      revert\n        /* \"#utility.yul\":7947:8267   */\n    tag_43:\n        /* \"#utility.yul\":7991:7997   */\n      0x00\n        /* \"#utility.yul\":8028:8029   */\n      0x02\n        /* \"#utility.yul\":8022:8026   */\n      dup3\n        /* \"#utility.yul\":8018:8030   */\n      div\n        /* \"#utility.yul\":8008:8030   */\n      swap1\n      pop\n        /* \"#utility.yul\":8075:8076   */\n      0x01\n        /* \"#utility.yul\":8069:8073   */\n      dup3\n        /* \"#utility.yul\":8065:8077   */\n      and\n        /* \"#utility.yul\":8096:8114   */\n      dup1\n        /* \"#utility.yul\":8086:8167   */\n      tag_199\n      jumpi\n        /* \"#utility.yul\":8152:8156   */\n      0x7f\n        /* \"#utility.yul\":8144:8150   */\n      dup3\n        /* \"#utility.yul\":8140:8157   */\n      and\n        /* \"#utility.yul\":8130:8157   */\n      swap2\n      pop\n        /* \"#utility.yul\":8086:8167   */\n    tag_199:\n        /* \"#utility.yul\":8214:8216   */\n      0x20\n        /* \"#utility.yul\":8206:8212   */\n      dup3\n        /* \"#utility.yul\":8203:8217   */\n      lt\n        /* \"#utility.yul\":8183:8201   */\n      dup2\n        /* \"#utility.yul\":8180:8218   */\n      sub\n        /* \"#utility.yul\":8177:8261   */\n      tag_200\n      jumpi\n        /* \"#utility.yul\":8233:8251   */\n      tag_201\n      tag_95\n      jump\t// in\n    tag_201:\n        /* \"#utility.yul\":8177:8261   */\n    tag_200:\n        /* \"#utility.yul\":7998:8267   */\n      pop\n        /* \"#utility.yul\":7947:8267   */\n      swap2\n      swap1\n      pop\n      jump\t// out\n        /* \"#utility.yul\":8273:8444   */\n    tag_96:\n        /* \"#utility.yul\":8413:8436   */\n      0x596f752068617665206e6f20617574686f726974790000000000000000000000\n        /* \"#utility.yul\":8409:8410   */\n      0x00\n        /* \"#utility.yul\":8401:8407   */\n      dup3\n        /* \"#utility.yul\":8397:8411   */\n      add\n        /* \"#utility.yul\":8390:8437   */\n      mstore\n        /* \"#utility.yul\":8273:8444   */\n      pop\n      jump\t// out\n        /* \"#utility.yul\":8450:8816   */\n    tag_97:\n        /* \"#utility.yul\":8592:8595   */\n      0x00\n        /* \"#utility.yul\":8613:8680   */\n      tag_204\n        /* \"#utility.yul\":8677:8679   */\n      0x15\n        /* \"#utility.yul\":8672:8675   */\n      dup4\n        /* \"#utility.yul\":8613:8680   */\n      tag_76\n      jump\t// in\n    tag_204:\n        /* \"#utility.yul\":8606:8680   */\n      swap2\n      pop\n        /* \"#utility.yul\":8689:8782   */\n      tag_205\n        /* \"#utility.yul\":8778:8781   */\n      dup3\n        /* \"#utility.yul\":8689:8782   */\n      tag_96\n      jump\t// in\n    tag_205:\n        /* \"#utility.yul\":8807:8809   */\n      0x20\n        /* \"#utility.yul\":8802:8805   */\n      dup3\n        /* \"#utility.yul\":8798:8810   */\n      add\n        /* \"#utility.yul\":8791:8810   */\n      swap1\n      pop\n        /* \"#utility.yul\":8450:8816   */\n      swap2\n      swap1\n      pop\n      jump\t// out\n        /* \"#utility.yul\":8822:9241   */\n    tag_63:\n        /* \"#utility.yul\":8988:8992   */\n      0x00\n        /* \"#utility.yul\":9026:9028   */\n      0x20\n        /* \"#utility.yul\":9015:9024   */\n      dup3\n        /* \"#utility.yul\":9011:9029   */\n      add\n        /* \"#utility.yul\":9003:9029   */\n      swap1\n      pop\n        /* \"#utility.yul\":9075:9084   */\n      dup2\n        /* \"#utility.yul\":9069:9073   */\n      dup2\n        /* \"#utility.yul\":9065:9085   */\n      sub\n        /* \"#utility.yul\":9061:9062   */\n      0x00\n        /* \"#utility.yul\":9050:9059   */\n      dup4\n        /* \"#utility.yul\":9046:9063   */\n      add\n        /* \"#utility.yul\":9039:9086   */\n      mstore\n        /* \"#utility.yul\":9103:9234   */\n      tag_207\n        /* \"#utility.yul\":9229:9233   */\n      dup2\n        /* \"#utility.yul\":9103:9234   */\n      tag_97\n      jump\t// in\n    tag_207:\n        /* \"#utility.yul\":9095:9234   */\n      swap1\n      pop\n        /* \"#utility.yul\":8822:9241   */\n      swap2\n      swap1\n      pop\n      jump\t// out\n        /* \"#utility.yul\":9247:9388   */\n    tag_98:\n        /* \"#utility.yul\":9296:9300   */\n      0x00\n        /* \"#utility.yul\":9319:9322   */\n      dup2\n        /* \"#utility.yul\":9311:9322   */\n      swap1\n      pop\n        /* \"#utility.yul\":9342:9345   */\n      dup2\n        /* \"#utility.yul\":9339:9340   */\n      0x00\n        /* \"#utility.yul\":9332:9346   */\n      mstore\n        /* \"#utility.yul\":9376:9380   */\n      0x20\n        /* \"#utility.yul\":9373:9374   */\n      0x00\n        /* \"#utility.yul\":9363:9381   */\n      keccak256\n        /* \"#utility.yul\":9355:9381   */\n      swap1\n      pop\n        /* \"#utility.yul\":9247:9388   */\n      swap2\n      swap1\n      pop\n      jump\t// out\n        /* \"#utility.yul\":9394:9487   */\n    tag_99:\n        /* \"#utility.yul\":9431:9437   */\n      0x00\n        /* \"#utility.yul\":9478:9480   */\n      0x20\n        /* \"#utility.yul\":9473:9475   */\n      0x1f\n        /* \"#utility.yul\":9466:9471   */\n      dup4\n        /* \"#utility.yul\":9462:9476   */\n      add\n        /* \"#utility.yul\":9458:9481   */\n      div\n        /* \"#utility.yul\":9448:9481   */\n      swap1\n      pop\n        /* \"#utility.yul\":9394:9487   */\n      swap2\n      swap1\n      pop\n      jump\t// out\n        /* \"#utility.yul\":9493:9600   */\n    tag_100:\n        /* \"#utility.yul\":9537:9545   */\n      0x00\n        /* \"#utility.yul\":9587:9592   */\n      dup3\n        /* \"#utility.yul\":9581:9585   */\n      dup3\n        /* \"#utility.yul\":9577:9593   */\n      shl\n        /* \"#utility.yul\":9556:9593   */\n      swap1\n      pop\n        /* \"#utility.yul\":9493:9600   */\n      swap3\n      swap2\n      pop\n      pop\n      jump\t// out\n        /* \"#utility.yul\":9606:9999   */\n    tag_101:\n        /* \"#utility.yul\":9675:9681   */\n      0x00\n        /* \"#utility.yul\":9725:9726   */\n      0x08\n        /* \"#utility.yul\":9713:9723   */\n      dup4\n        /* \"#utility.yul\":9709:9727   */\n      mul\n        /* \"#utility.yul\":9748:9845   */\n      tag_212\n        /* \"#utility.yul\":9778:9844   */\n      0xffffffffffffffffffffffffffffffffffffffffffffffffffffffffffffffff\n        /* \"#utility.yul\":9767:9776   */\n      dup3\n        /* \"#utility.yul\":9748:9845   */\n      tag_100\n      jump\t// in\n    tag_212:\n        /* \"#utility.yul\":9866:9905   */\n      tag_213\n        /* \"#utility.yul\":9896:9904   */\n      dup7\n        /* \"#utility.yul\":9885:9894   */\n      dup4\n        /* \"#utility.yul\":9866:9905   */\n      tag_100\n      jump\t// in\n    tag_213:\n        /* \"#utility.yul\":9854:9905   */\n      swap6\n      pop\n        /* \"#utility.yul\":9938:9942   */\n      dup1\n        /* \"#utility.yul\":9934:9943   */\n      not\n        /* \"#utility.yul\":9927:9932   */\n      dup5\n        /* \"#utility.yul\":9923:9944   */\n      and\n        /* \"#utility.yul\":9914:9944   */\n      swap4\n      pop\n        /* \"#utility.yul\":9987:9991   */\n      dup1\n        /* \"#utility.yul\":9977:9985   */\n      dup7\n        /* \"#utility.yul\":9973:9992   */\n      and\n        /* \"#utility.yul\":9966:9971   */\n      dup5\n        /* \"#utility.yul\":9963:9993   */\n      or\n        /* \"#utility.yul\":9953:9993   */\n      swap3\n      pop\n        /* \"#utility.yul\":9682:9999   */\n      pop\n      pop\n        /* \"#utility.yul\":9606:9999   */\n      swap4\n      swap3\n      pop\n      pop\n      pop\n      jump\t// out\n        /* \"#utility.yul\":10005:10065   */\n    tag_102:\n        /* \"#utility.yul\":10033:10036   */\n      0x00\n        /* \"#utility.yul\":10054:10059   */\n      dup2\n        /* \"#utility.yul\":10047:10059   */\n      swap1\n      pop\n        /* \"#utility.yul\":10005:10065   */\n      swap2\n      swap1\n      pop\n      jump\t// out\n        /* \"#utility.yul\":10071:10213   */\n    tag_103:\n        /* \"#utility.yul\":10121:10130   */\n      0x00\n        /* \"#utility.yul\":10154:10207   */\n      tag_216\n        /* \"#utility.yul\":10172:10206   */\n      tag_217\n        /* \"#utility.yul\":10181:10205   */\n      tag_218\n        /* \"#utility.yul\":10199:10204   */\n      dup5\n        /* \"#utility.yul\":10181:10205   */\n      tag_71\n      jump\t// in\n    tag_218:\n        /* \"#utility.yul\":10172:10206   */\n      tag_102\n      jump\t// in\n    tag_217:\n        /* \"#utility.yul\":10154:10207   */\n      tag_71\n      jump\t// in\n    tag_216:\n        /* \"#utility.yul\":10141:10207   */\n      swap1\n      pop\n        /* \"#utility.yul\":10071:10213   */\n      swap2\n      swap1\n      pop\n      jump\t// out\n        /* \"#utility.yul\":10219:10294   */\n    tag_104:\n        /* \"#utility.yul\":10262:10265   */\n      0x00\n        /* \"#utility.yul\":10283:10288   */\n      dup2\n        /* \"#utility.yul\":10276:10288   */\n      swap1\n      pop\n        /* \"#utility.yul\":10219:10294   */\n      swap2\n      swap1\n      pop\n      jump\t// out\n        /* \"#utility.yul\":10300:10569   */\n    tag_105:\n        /* \"#utility.yul\":10410:10449   */\n      tag_221\n        /* \"#utility.yul\":10441:10448   */\n      dup4\n        /* \"#utility.yul\":10410:10449   */\n      tag_103\n      jump\t// in\n    tag_221:\n        /* \"#utility.yul\":10471:10562   */\n      tag_222\n        /* \"#utility.yul\":10520:10561   */\n      tag_223\n        /* \"#utility.yul\":10544:10560   */\n      dup3\n        /* \"#utility.yul\":10520:10561   */\n      tag_104\n      jump\t// in\n    tag_223:\n        /* \"#utility.yul\":10512:10518   */\n      dup5\n        /* \"#utility.yul\":10505:10509   */\n      dup5\n        /* \"#utility.yul\":10499:10510   */\n      sload\n        /* \"#utility.yul\":10471:10562   */\n      tag_101\n      jump\t// in\n    tag_222:\n        /* \"#utility.yul\":10465:10469   */\n      dup3\n        /* \"#utility.yul\":10458:10563   */\n      sstore\n        /* \"#utility.yul\":10376:10569   */\n      pop\n        /* \"#utility.yul\":10300:10569   */\n      pop\n      pop\n      pop\n      jump\t// out\n        /* \"#utility.yul\":10575:10648   */\n    tag_106:\n        /* \"#utility.yul\":10620:10623   */\n      0x00\n        /* \"#utility.yul\":10575:10648   */\n      swap1\n      jump\t// out\n        /* \"#utility.yul\":10654:10843   */\n    tag_107:\n        /* \"#utility.yul\":10731:10763   */\n      tag_226\n      tag_106\n      jump\t// in\n    tag_226:\n        /* \"#utility.yul\":10772:10837   */\n      tag_227\n        /* \"#utility.yul\":10830:10836   */\n      dup2\n        /* \"#utility.yul\":10822:10828   */\n      dup5\n        /* \"#utility.yul\":10816:10820   */\n      dup5\n        /* \"#utility.yul\":10772:10837   */\n      tag_105\n      jump\t// in\n    tag_227:\n        /* \"#utility.yul\":10707:10843   */\n      pop\n        /* \"#utility.yul\":10654:10843   */\n      pop\n      pop\n      jump\t// out\n        /* \"#utility.yul\":10849:11035   */\n    tag_108:\n        /* \"#utility.yul\":10909:11029   */\n    tag_229:\n        /* \"#utility.yul\":10926:10929   */\n      dup2\n        /* \"#utility.yul\":10919:10924   */\n      dup2\n        /* \"#utility.yul\":10916:10930   */\n      lt\n        /* \"#utility.yul\":10909:11029   */\n      iszero\n      tag_231\n      jumpi\n        /* \"#utility.yul\":10980:11019   */\n      tag_232\n        /* \"#utility.yul\":11017:11018   */\n      0x00\n        /* \"#utility.yul\":11010:11015   */\n      dup3\n        /* \"#utility.yul\":10980:11019   */\n      tag_107\n      jump\t// in\n    tag_232:\n        /* \"#utility.yul\":10953:10954   */\n      0x01\n        /* \"#utility.yul\":10946:10951   */\n      dup2\n        /* \"#utility.yul\":10942:10955   */\n      add\n        /* \"#utility.yul\":10933:10955   */\n      swap1\n      pop\n        /* \"#utility.yul\":10909:11029   */\n      jump(tag_229)\n    tag_231:\n        /* \"#utility.yul\":10849:11035   */\n      pop\n      pop\n      jump\t// out\n        /* \"#utility.yul\":11041:11584   */\n    tag_109:\n        /* \"#utility.yul\":11142:11144   */\n      0x1f\n        /* \"#utility.yul\":11137:11140   */\n      dup3\n        /* \"#utility.yul\":11134:11145   */\n      gt\n        /* \"#utility.yul\":11131:11577   */\n      iszero\n      tag_234\n      jumpi\n        /* \"#utility.yul\":11176:11214   */\n      tag_235\n        /* \"#utility.yul\":11208:11213   */\n      dup2\n        /* \"#utility.yul\":11176:11214   */\n      tag_98\n      jump\t// in\n    tag_235:\n        /* \"#utility.yul\":11260:11289   */\n      tag_236\n        /* \"#utility.yul\":11278:11288   */\n      dup5\n        /* \"#utility.yul\":11260:11289   */\n      tag_99\n      jump\t// in\n    tag_236:\n        /* \"#utility.yul\":11250:11258   */\n      dup2\n        /* \"#utility.yul\":11246:11290   */\n      add\n        /* \"#utility.yul\":11443:11445   */\n      0x20\n        /* \"#utility.yul\":11431:11441   */\n      dup6\n        /* \"#utility.yul\":11428:11446   */\n      lt\n        /* \"#utility.yul\":11425:11474   */\n      iszero\n      tag_237\n      jumpi\n        /* \"#utility.yul\":11464:11472   */\n      dup2\n        /* \"#utility.yul\":11449:11472   */\n      swap1\n      pop\n        /* \"#utility.yul\":11425:11474   */\n    tag_237:\n        /* \"#utility.yul\":11487:11567   */\n      tag_238\n        /* \"#utility.yul\":11543:11565   */\n      tag_239\n        /* \"#utility.yul\":11561:11564   */\n      dup6\n        /* \"#utility.yul\":11543:11565   */\n      tag_99\n      jump\t// in\n    tag_239:\n        /* \"#utility.yul\":11533:11541   */\n      dup4\n        /* \"#utility.yul\":11529:11566   */\n      add\n        /* \"#utility.yul\":11516:11527   */\n      dup3\n        /* \"#utility.yul\":11487:11567   */\n      tag_108\n      jump\t// in\n    tag_238:\n        /* \"#utility.yul\":11146:11577   */\n      pop\n      pop\n        /* \"#utility.yul\":11131:11577   */\n    tag_234:\n        /* \"#utility.yul\":11041:11584   */\n      pop\n      pop\n      pop\n      jump\t// out\n        /* \"#utility.yul\":11590:11707   */\n    tag_110:\n        /* \"#utility.yul\":11644:11652   */\n      0x00\n        /* \"#utility.yul\":11694:11699   */\n      dup3\n        /* \"#utility.yul\":11688:11692   */\n      dup3\n        /* \"#utility.yul\":11684:11700   */\n      shr\n        /* \"#utility.yul\":11663:11700   */\n      swap1\n      pop\n        /* \"#utility.yul\":11590:11707   */\n      swap3\n      swap2\n      pop\n      pop\n      jump\t// out\n        /* \"#utility.yul\":11713:11882   */\n    tag_111:\n        /* \"#utility.yul\":11757:11763   */\n      0x00\n        /* \"#utility.yul\":11790:11841   */\n      tag_242\n        /* \"#utility.yul\":11838:11839   */\n      0x00\n        /* \"#utility.yul\":11834:11840   */\n      not\n        /* \"#utility.yul\":11826:11831   */\n      dup5\n        /* \"#utility.yul\":11823:11824   */\n      0x08\n        /* \"#utility.yul\":11819:11832   */\n      mul\n        /* \"#utility.yul\":11790:11841   */\n      tag_110\n      jump\t// in\n    tag_242:\n        /* \"#utility.yul\":11786:11842   */\n      not\n        /* \"#utility.yul\":11871:11875   */\n      dup1\n        /* \"#utility.yul\":11865:11869   */\n      dup4\n        /* \"#utility.yul\":11861:11876   */\n      and\n        /* \"#utility.yul\":11851:11876   */\n      swap2\n      pop\n        /* \"#utility.yul\":11764:11882   */\n      pop\n        /* \"#utility.yul\":11713:11882   */\n      swap3\n      swap2\n      pop\n      pop\n      jump\t// out\n        /* \"#utility.yul\":11887:12182   */\n    tag_112:\n        /* \"#utility.yul\":11963:11967   */\n      0x00\n        /* \"#utility.yul\":12109:12138   */\n      tag_244\n        /* \"#utility.yul\":12134:12137   */\n      dup4\n        /* \"#utility.yul\":12128:12132   */\n      dup4\n        /* \"#utility.yul\":12109:12138   */\n      tag_111\n      jump\t// in\n    tag_244:\n        /* \"#utility.yul\":12101:12138   */\n      swap2\n      pop\n        /* \"#utility.yul\":12171:12174   */\n      dup3\n        /* \"#utility.yul\":12168:12169   */\n      0x02\n        /* \"#utility.yul\":12164:12175   */\n      mul\n        /* \"#utility.yul\":12158:12162   */\n      dup3\n        /* \"#utility.yul\":12155:12176   */\n      or\n        /* \"#utility.yul\":12147:12176   */\n      swap1\n      pop\n        /* \"#utility.yul\":11887:12182   */\n      swap3\n      swap2\n      pop\n      pop\n      jump\t// out\n        /* \"#utility.yul\":12187:13582   */\n    tag_67:\n        /* \"#utility.yul\":12304:12341   */\n      tag_246\n        /* \"#utility.yul\":12337:12340   */\n      dup3\n        /* \"#utility.yul\":12304:12341   */\n      tag_75\n      jump\t// in\n    tag_246:\n        /* \"#utility.yul\":12406:12424   */\n      0xffffffffffffffff\n        /* \"#utility.yul\":12398:12404   */\n      dup2\n        /* \"#utility.yul\":12395:12425   */\n      gt\n        /* \"#utility.yul\":12392:12448   */\n      iszero\n      tag_247\n      jumpi\n        /* \"#utility.yul\":12428:12446   */\n      tag_248\n      tag_82\n      jump\t// in\n    tag_248:\n        /* \"#utility.yul\":12392:12448   */\n    tag_247:\n        /* \"#utility.yul\":12472:12510   */\n      tag_249\n        /* \"#utility.yul\":12504:12508   */\n      dup3\n        /* \"#utility.yul\":12498:12509   */\n      sload\n        /* \"#utility.yul\":12472:12510   */\n      tag_43\n      jump\t// in\n    tag_249:\n        /* \"#utility.yul\":12557:12624   */\n      tag_250\n        /* \"#utility.yul\":12617:12623   */\n      dup3\n        /* \"#utility.yul\":12609:12615   */\n      dup3\n        /* \"#utility.yul\":12603:12607   */\n      dup6\n        /* \"#utility.yul\":12557:12624   */\n      tag_109\n      jump\t// in\n    tag_250:\n        /* \"#utility.yul\":12651:12652   */\n      0x00\n        /* \"#utility.yul\":12675:12679   */\n      0x20\n        /* \"#utility.yul\":12662:12679   */\n      swap1\n      pop\n        /* \"#utility.yul\":12707:12709   */\n      0x1f\n        /* \"#utility.yul\":12699:12705   */\n      dup4\n        /* \"#utility.yul\":12696:12710   */\n      gt\n        /* \"#utility.yul\":12724:12725   */\n      0x01\n        /* \"#utility.yul\":12719:13337   */\n      dup2\n      eq\n      tag_252\n      jumpi\n        /* \"#utility.yul\":13381:13382   */\n      0x00\n        /* \"#utility.yul\":13398:13404   */\n      dup5\n        /* \"#utility.yul\":13395:13472   */\n      iszero\n      tag_253\n      jumpi\n        /* \"#utility.yul\":13447:13456   */\n      dup3\n        /* \"#utility.yul\":13442:13445   */\n      dup8\n        /* \"#utility.yul\":13438:13457   */\n      add\n        /* \"#utility.yul\":13432:13458   */\n      mload\n        /* \"#utility.yul\":13423:13458   */\n      swap1\n      pop\n        /* \"#utility.yul\":13395:13472   */\n    tag_253:\n        /* \"#utility.yul\":13498:13565   */\n      tag_254\n        /* \"#utility.yul\":13558:13564   */\n      dup6\n        /* \"#utility.yul\":13551:13556   */\n      dup3\n        /* \"#utility.yul\":13498:13565   */\n      tag_112\n      jump\t// in\n    tag_254:\n        /* \"#utility.yul\":13492:13496   */\n      dup7\n        /* \"#utility.yul\":13485:13566   */\n      sstore\n        /* \"#utility.yul\":13354:13576   */\n      pop\n        /* \"#utility.yul\":12689:13576   */\n      jump(tag_251)\n        /* \"#utility.yul\":12719:13337   */\n    tag_252:\n        /* \"#utility.yul\":12771:12775   */\n      0x1f\n        /* \"#utility.yul\":12767:12776   */\n      not\n        /* \"#utility.yul\":12759:12765   */\n      dup5\n        /* \"#utility.yul\":12755:12777   */\n      and\n        /* \"#utility.yul\":12805:12842   */\n      tag_255\n        /* \"#utility.yul\":12837:12841   */\n      dup7\n        /* \"#utility.yul\":12805:12842   */\n      tag_98\n      jump\t// in\n    tag_255:\n        /* \"#utility.yul\":12864:12865   */\n      0x00\n        /* \"#utility.yul\":12878:13086   */\n    tag_256:\n        /* \"#utility.yul\":12892:12899   */\n      dup3\n        /* \"#utility.yul\":12889:12890   */\n      dup2\n        /* \"#utility.yul\":12886:12900   */\n      lt\n        /* \"#utility.yul\":12878:13086   */\n      iszero\n      tag_258\n      jumpi\n        /* \"#utility.yul\":12971:12980   */\n      dup5\n        /* \"#utility.yul\":12966:12969   */\n      dup10\n        /* \"#utility.yul\":12962:12981   */\n      add\n        /* \"#utility.yul\":12956:12982   */\n      mload\n        /* \"#utility.yul\":12948:12954   */\n      dup3\n        /* \"#utility.yul\":12941:12983   */\n      sstore\n        /* \"#utility.yul\":13022:13023   */\n      0x01\n        /* \"#utility.yul\":13014:13020   */\n      dup3\n        /* \"#utility.yul\":13010:13024   */\n      add\n        /* \"#utility.yul\":13000:13024   */\n      swap2\n      pop\n        /* \"#utility.yul\":13069:13071   */\n      0x20\n        /* \"#utility.yul\":13058:13067   */\n      dup6\n        /* \"#utility.yul\":13054:13072   */\n      add\n        /* \"#utility.yul\":13041:13072   */\n      swap5\n      pop\n        /* \"#utility.yul\":12915:12919   */\n      0x20\n        /* \"#utility.yul\":12912:12913   */\n      dup2\n        /* \"#utility.yul\":12908:12920   */\n      add\n        /* \"#utility.yul\":12903:12920   */\n      swap1\n      pop\n        /* \"#utility.yul\":12878:13086   */\n      jump(tag_256)\n    tag_258:\n        /* \"#utility.yul\":13114:13120   */\n      dup7\n        /* \"#utility.yul\":13105:13112   */\n      dup4\n        /* \"#utility.yul\":13102:13121   */\n      lt\n        /* \"#utility.yul\":13099:13278   */\n      iszero\n      tag_259\n      jumpi\n        /* \"#utility.yul\":13172:13181   */\n      dup5\n        /* \"#utility.yul\":13167:13170   */\n      dup10\n        /* \"#utility.yul\":13163:13182   */\n      add\n        /* \"#utility.yul\":13157:13183   */\n      mload\n        /* \"#utility.yul\":13215:13263   */\n      tag_260\n        /* \"#utility.yul\":13257:13261   */\n      0x1f\n        /* \"#utility.yul\":13249:13255   */\n      dup10\n        /* \"#utility.yul\":13245:13262   */\n      and\n        /* \"#utility.yul\":13234:13243   */\n      dup3\n        /* \"#utility.yul\":13215:13263   */\n      tag_111\n      jump\t// in\n    tag_260:\n        /* \"#utility.yul\":13207:13213   */\n      dup4\n        /* \"#utility.yul\":13200:13264   */\n      sstore\n        /* \"#utility.yul\":13122:13278   */\n      pop\n        /* \"#utility.yul\":13099:13278   */\n    tag_259:\n        /* \"#utility.yul\":13324:13325   */\n      0x01\n        /* \"#utility.yul\":13320:13321   */\n      0x02\n        /* \"#utility.yul\":13312:13318   */\n      dup9\n        /* \"#utility.yul\":13308:13322   */\n      mul\n        /* \"#utility.yul\":13304:13326   */\n      add\n        /* \"#utility.yul\":13298:13302   */\n      dup9\n        /* \"#utility.yul\":13291:13327   */\n      sstore\n        /* \"#utility.yul\":12726:13337   */\n      pop\n      pop\n      pop\n        /* \"#utility.yul\":12689:13576   */\n    tag_251:\n      pop\n        /* \"#utility.yul\":12279:13582   */\n      pop\n      pop\n      pop\n        /* \"#utility.yul\":12187:13582   */\n      pop\n      pop\n      jump\t// out\n\n    auxdata: 0xa2646970667358221220937f6a352ec1c9170c539eda6ed8fdf3e66a96d9f39cae38ee6d09b9596dfaa164736f6c63430008120033\n}\n",
				"bytecode": {
					"linkReferences": {},
					"object": "608060405234801561001057600080fd5b50336000806101000a81548173ffffffffffffffffffffffffffffffffffffffff021916908373ffffffffffffffffffffffffffffffffffffffff160217905550610d6a806100606000396000f3fe608060405234801561001057600080fd5b50600436106100625760003560e01c80630121b93f146100675780632d35a8a214610083578063322a0318146100a15780634b9c0967146100d157806362604e96146100f05780638da5cb5b1461010c575b600080fd5b610081600480360381019061007c91906105f4565b61012a565b005b61008b610243565b6040516100989190610630565b60405180910390f35b6100bb60048036038101906100b691906105f4565b610249565b6040516100c891906106db565b60405180910390f35b6100d9610316565b6040516100e79291906106fd565b60405180910390f35b61010a60048036038101906101059190610862565b61048f565b005b610114610586565b60405161012191906108ec565b60405180910390f35b600160003373ffffffffffffffffffffffffffffffffffffffff1673ffffffffffffffffffffffffffffffffffffffff16815260200190815260200160002060009054906101000a900460ff16156101b7576040517f08c379a00000000000000000000000000000000000000000000000000000000081526004016101ae90610953565b60405180910390fd5b60018060003373ffffffffffffffffffffffffffffffffffffffff1673ffffffffffffffffffffffffffffffffffffffff16815260200190815260200160002060006101000a81548160ff021916908315150217905550600060026000838152602001908152602001600020905080600101600081548092919061023a906109a2565b91905055505050565b60035481565b606060006002600084815260200190815260200160002060405180604001604052908160008201805461027b90610a19565b80601f01602080910402602001604051908101604052809291908181526020018280546102a790610a19565b80156102f45780601f106102c9576101008083540402835291602001916102f4565b820191906000526020600020905b8154815290600101906020018083116102d757829003601f168201915b5050505050815260200160018201548152505090508060000151915050919050565b606060008060009050600080600190505b600354811161037e57826002600083815260200190815260200160002060010154111561036b57600260008281526020019081526020016000206001015492508091505b8080610376906109a2565b915050610327565b50600081036103cb5760006040518060400160405280600d81526020017f4e6f2063616e64696461746573000000000000000000000000000000000000008152509093509350505061048b565b60026000828152602001908152602001600020600001600260008381526020019081526020016000206001015481805461040490610a19565b80601f016020809104026020016040519081016040528092919081815260200182805461043090610a19565b801561047d5780601f106104525761010080835404028352916020019161047d565b820191906000526020600020905b81548152906001019060200180831161046057829003601f168201915b505050505091509350935050505b9091565b60008054906101000a900473ffffffffffffffffffffffffffffffffffffffff1673ffffffffffffffffffffffffffffffffffffffff163373ffffffffffffffffffffffffffffffffffffffff161461051d576040517f08c379a000000000000000000000000000000000000000000000000000000000815260040161051490610a96565b60405180910390fd5b60036000815480929190610530906109a2565b91905055506040518060400160405280828152602001600081525060026000600354815260200190815260200160002060008201518160000190816105759190610c62565b506020820151816001015590505050565b60008054906101000a900473ffffffffffffffffffffffffffffffffffffffff1681565b6000604051905090565b600080fd5b600080fd5b6000819050919050565b6105d1816105be565b81146105dc57600080fd5b50565b6000813590506105ee816105c8565b92915050565b60006020828403121561060a576106096105b4565b5b6000610618848285016105df565b91505092915050565b61062a816105be565b82525050565b60006020820190506106456000830184610621565b92915050565b600081519050919050565b600082825260208201905092915050565b60005b8381101561068557808201518184015260208101905061066a565b60008484015250505050565b6000601f19601f8301169050919050565b60006106ad8261064b565b6106b78185610656565b93506106c7818560208601610667565b6106d081610691565b840191505092915050565b600060208201905081810360008301526106f581846106a2565b905092915050565b6000604082019050818103600083015261071781856106a2565b90506107266020830184610621565b9392505050565b600080fd5b600080fd5b7f4e487b7100000000000000000000000000000000000000000000000000000000600052604160045260246000fd5b61076f82610691565b810181811067ffffffffffffffff8211171561078e5761078d610737565b5b80604052505050565b60006107a16105aa565b90506107ad8282610766565b919050565b600067ffffffffffffffff8211156107cd576107cc610737565b5b6107d682610691565b9050602081019050919050565b82818337600083830152505050565b6000610805610800846107b2565b610797565b90508281526020810184848401111561082157610820610732565b5b61082c8482856107e3565b509392505050565b600082601f8301126108495761084861072d565b5b81356108598482602086016107f2565b91505092915050565b600060208284031215610878576108776105b4565b5b600082013567ffffffffffffffff811115610896576108956105b9565b5b6108a284828501610834565b91505092915050565b600073ffffffffffffffffffffffffffffffffffffffff82169050919050565b60006108d6826108ab565b9050919050565b6108e6816108cb565b82525050565b600060208201905061090160008301846108dd565b92915050565b7f596f75206861766520616c726561647920766f7465642e000000000000000000600082015250565b600061093d601783610656565b915061094882610907565b602082019050919050565b6000602082019050818103600083015261096c81610930565b9050919050565b7f4e487b7100000000000000000000000000000000000000000000000000000000600052601160045260246000fd5b60006109ad826105be565b91507fffffffffffffffffffffffffffffffffffffffffffffffffffffffffffffffff82036109df576109de610973565b5b600182019050919050565b7f4e487b7100000000000000000000000000000000000000000000000000000000600052602260045260246000fd5b60006002820490506001821680610a3157607f821691505b602082108103610a4457610a436109ea565b5b50919050565b7f596f752068617665206e6f20617574686f726974790000000000000000000000600082015250565b6000610a80601583610656565b9150610a8b82610a4a565b602082019050919050565b60006020820190508181036000830152610aaf81610a73565b9050919050565b60008190508160005260206000209050919050565b60006020601f8301049050919050565b600082821b905092915050565b600060088302610b187fffffffffffffffffffffffffffffffffffffffffffffffffffffffffffffffff82610adb565b610b228683610adb565b95508019841693508086168417925050509392505050565b6000819050919050565b6000610b5f610b5a610b55846105be565b610b3a565b6105be565b9050919050565b6000819050919050565b610b7983610b44565b610b8d610b8582610b66565b848454610ae8565b825550505050565b600090565b610ba2610b95565b610bad818484610b70565b505050565b5b81811015610bd157610bc6600082610b9a565b600181019050610bb3565b5050565b601f821115610c1657610be781610ab6565b610bf084610acb565b81016020851015610bff578190505b610c13610c0b85610acb565b830182610bb2565b50505b505050565b600082821c905092915050565b6000610c3960001984600802610c1b565b1980831691505092915050565b6000610c528383610c28565b9150826002028217905092915050565b610c6b8261064b565b67ffffffffffffffff811115610c8457610c83610737565b5b610c8e8254610a19565b610c99828285610bd5565b600060209050601f831160018114610ccc5760008415610cba578287015190505b610cc48582610c46565b865550610d2c565b601f198416610cda86610ab6565b60005b82811015610d0257848901518255600182019150602085019450602081019050610cdd565b86831015610d1f5784890151610d1b601f891682610c28565b8355505b6001600288020188555050505b50505050505056fea2646970667358221220937f6a352ec1c9170c539eda6ed8fdf3e66a96d9f39cae38ee6d09b9596dfaa164736f6c63430008120033",
					"opcodes": "PUSH1 0x80 PUSH1 0x40 MSTORE CALLVALUE DUP1 ISZERO PUSH2 0x10 JUMPI PUSH1 0x0 DUP1 REVERT JUMPDEST POP CALLER PUSH1 0x0 DUP1 PUSH2 0x100 EXP DUP2 SLOAD DUP2 PUSH20 0xFFFFFFFFFFFFFFFFFFFFFFFFFFFFFFFFFFFFFFFF MUL NOT AND SWAP1 DUP4 PUSH20 0xFFFFFFFFFFFFFFFFFFFFFFFFFFFFFFFFFFFFFFFF AND MUL OR SWAP1 SSTORE POP PUSH2 0xD6A DUP1 PUSH2 0x60 PUSH1 0x0 CODECOPY PUSH1 0x0 RETURN INVALID PUSH1 0x80 PUSH1 0x40 MSTORE CALLVALUE DUP1 ISZERO PUSH2 0x10 JUMPI PUSH1 0x0 DUP1 REVERT JUMPDEST POP PUSH1 0x4 CALLDATASIZE LT PUSH2 0x62 JUMPI PUSH1 0x0 CALLDATALOAD PUSH1 0xE0 SHR DUP1 PUSH4 0x121B93F EQ PUSH2 0x67 JUMPI DUP1 PUSH4 0x2D35A8A2 EQ PUSH2 0x83 JUMPI DUP1 PUSH4 0x322A0318 EQ PUSH2 0xA1 JUMPI DUP1 PUSH4 0x4B9C0967 EQ PUSH2 0xD1 JUMPI DUP1 PUSH4 0x62604E96 EQ PUSH2 0xF0 JUMPI DUP1 PUSH4 0x8DA5CB5B EQ PUSH2 0x10C JUMPI JUMPDEST PUSH1 0x0 DUP1 REVERT JUMPDEST PUSH2 0x81 PUSH1 0x4 DUP1 CALLDATASIZE SUB DUP2 ADD SWAP1 PUSH2 0x7C SWAP2 SWAP1 PUSH2 0x5F4 JUMP JUMPDEST PUSH2 0x12A JUMP JUMPDEST STOP JUMPDEST PUSH2 0x8B PUSH2 0x243 JUMP JUMPDEST PUSH1 0x40 MLOAD PUSH2 0x98 SWAP2 SWAP1 PUSH2 0x630 JUMP JUMPDEST PUSH1 0x40 MLOAD DUP1 SWAP2 SUB SWAP1 RETURN JUMPDEST PUSH2 0xBB PUSH1 0x4 DUP1 CALLDATASIZE SUB DUP2 ADD SWAP1 PUSH2 0xB6 SWAP2 SWAP1 PUSH2 0x5F4 JUMP JUMPDEST PUSH2 0x249 JUMP JUMPDEST PUSH1 0x40 MLOAD PUSH2 0xC8 SWAP2 SWAP1 PUSH2 0x6DB JUMP JUMPDEST PUSH1 0x40 MLOAD DUP1 SWAP2 SUB SWAP1 RETURN JUMPDEST PUSH2 0xD9 PUSH2 0x316 JUMP JUMPDEST PUSH1 0x40 MLOAD PUSH2 0xE7 SWAP3 SWAP2 SWAP1 PUSH2 0x6FD JUMP JUMPDEST PUSH1 0x40 MLOAD DUP1 SWAP2 SUB SWAP1 RETURN JUMPDEST PUSH2 0x10A PUSH1 0x4 DUP1 CALLDATASIZE SUB DUP2 ADD SWAP1 PUSH2 0x105 SWAP2 SWAP1 PUSH2 0x862 JUMP JUMPDEST PUSH2 0x48F JUMP JUMPDEST STOP JUMPDEST PUSH2 0x114 PUSH2 0x586 JUMP JUMPDEST PUSH1 0x40 MLOAD PUSH2 0x121 SWAP2 SWAP1 PUSH2 0x8EC JUMP JUMPDEST PUSH1 0x40 MLOAD DUP1 SWAP2 SUB SWAP1 RETURN JUMPDEST PUSH1 0x1 PUSH1 0x0 CALLER PUSH20 0xFFFFFFFFFFFFFFFFFFFFFFFFFFFFFFFFFFFFFFFF AND PUSH20 0xFFFFFFFFFFFFFFFFFFFFFFFFFFFFFFFFFFFFFFFF AND DUP2 MSTORE PUSH1 0x20 ADD SWAP1 DUP2 MSTORE PUSH1 0x20 ADD PUSH1 0x0 KECCAK256 PUSH1 0x0 SWAP1 SLOAD SWAP1 PUSH2 0x100 EXP SWAP1 DIV PUSH1 0xFF AND ISZERO PUSH2 0x1B7 JUMPI PUSH1 0x40 MLOAD PUSH32 0x8C379A000000000000000000000000000000000000000000000000000000000 DUP2 MSTORE PUSH1 0x4 ADD PUSH2 0x1AE SWAP1 PUSH2 0x953 JUMP JUMPDEST PUSH1 0x40 MLOAD DUP1 SWAP2 SUB SWAP1 REVERT JUMPDEST PUSH1 0x1 DUP1 PUSH1 0x0 CALLER PUSH20 0xFFFFFFFFFFFFFFFFFFFFFFFFFFFFFFFFFFFFFFFF AND PUSH20 0xFFFFFFFFFFFFFFFFFFFFFFFFFFFFFFFFFFFFFFFF AND DUP2 MSTORE PUSH1 0x20 ADD SWAP1 DUP2 MSTORE PUSH1 0x20 ADD PUSH1 0x0 KECCAK256 PUSH1 0x0 PUSH2 0x100 EXP DUP2 SLOAD DUP2 PUSH1 0xFF MUL NOT AND SWAP1 DUP4 ISZERO ISZERO MUL OR SWAP1 SSTORE POP PUSH1 0x0 PUSH1 0x2 PUSH1 0x0 DUP4 DUP2 MSTORE PUSH1 0x20 ADD SWAP1 DUP2 MSTORE PUSH1 0x20 ADD PUSH1 0x0 KECCAK256 SWAP1 POP DUP1 PUSH1 0x1 ADD PUSH1 0x0 DUP2 SLOAD DUP1 SWAP3 SWAP2 SWAP1 PUSH2 0x23A SWAP1 PUSH2 0x9A2 JUMP JUMPDEST SWAP2 SWAP1 POP SSTORE POP POP POP JUMP JUMPDEST PUSH1 0x3 SLOAD DUP2 JUMP JUMPDEST PUSH1 0x60 PUSH1 0x0 PUSH1 0x2 PUSH1 0x0 DUP5 DUP2 MSTORE PUSH1 0x20 ADD SWAP1 DUP2 MSTORE PUSH1 0x20 ADD PUSH1 0x0 KECCAK256 PUSH1 0x40 MLOAD DUP1 PUSH1 0x40 ADD PUSH1 0x40 MSTORE SWAP1 DUP2 PUSH1 0x0 DUP3 ADD DUP1 SLOAD PUSH2 0x27B SWAP1 PUSH2 0xA19 JUMP JUMPDEST DUP1 PUSH1 0x1F ADD PUSH1 0x20 DUP1 SWAP2 DIV MUL PUSH1 0x20 ADD PUSH1 0x40 MLOAD SWAP1 DUP2 ADD PUSH1 0x40 MSTORE DUP1 SWAP3 SWAP2 SWAP1 DUP2 DUP2 MSTORE PUSH1 0x20 ADD DUP3 DUP1 SLOAD PUSH2 0x2A7 SWAP1 PUSH2 0xA19 JUMP JUMPDEST DUP1 ISZERO PUSH2 0x2F4 JUMPI DUP1 PUSH1 0x1F LT PUSH2 0x2C9 JUMPI PUSH2 0x100 DUP1 DUP4 SLOAD DIV MUL DUP4 MSTORE SWAP2 PUSH1 0x20 ADD SWAP2 PUSH2 0x2F4 JUMP JUMPDEST DUP3 ADD SWAP2 SWAP1 PUSH1 0x0 MSTORE PUSH1 0x20 PUSH1 0x0 KECCAK256 SWAP1 JUMPDEST DUP2 SLOAD DUP2 MSTORE SWAP1 PUSH1 0x1 ADD SWAP1 PUSH1 0x20 ADD DUP1 DUP4 GT PUSH2 0x2D7 JUMPI DUP3 SWAP1 SUB PUSH1 0x1F AND DUP3 ADD SWAP2 JUMPDEST POP POP POP POP POP DUP2 MSTORE PUSH1 0x20 ADD PUSH1 0x1 DUP3 ADD SLOAD DUP2 MSTORE POP POP SWAP1 POP DUP1 PUSH1 0x0 ADD MLOAD SWAP2 POP POP SWAP2 SWAP1 POP JUMP JUMPDEST PUSH1 0x60 PUSH1 0x0 DUP1 PUSH1 0x0 SWAP1 POP PUSH1 0x0 DUP1 PUSH1 0x1 SWAP1 POP JUMPDEST PUSH1 0x3 SLOAD DUP2 GT PUSH2 0x37E JUMPI DUP3 PUSH1 0x2 PUSH1 0x0 DUP4 DUP2 MSTORE PUSH1 0x20 ADD SWAP1 DUP2 MSTORE PUSH1 0x20 ADD PUSH1 0x0 KECCAK256 PUSH1 0x1 ADD SLOAD GT ISZERO PUSH2 0x36B JUMPI PUSH1 0x2 PUSH1 0x0 DUP3 DUP2 MSTORE PUSH1 0x20 ADD SWAP1 DUP2 MSTORE PUSH1 0x20 ADD PUSH1 0x0 KECCAK256 PUSH1 0x1 ADD SLOAD SWAP3 POP DUP1 SWAP2 POP JUMPDEST DUP1 DUP1 PUSH2 0x376 SWAP1 PUSH2 0x9A2 JUMP JUMPDEST SWAP2 POP POP PUSH2 0x327 JUMP JUMPDEST POP PUSH1 0x0 DUP2 SUB PUSH2 0x3CB JUMPI PUSH1 0x0 PUSH1 0x40 MLOAD DUP1 PUSH1 0x40 ADD PUSH1 0x40 MSTORE DUP1 PUSH1 0xD DUP2 MSTORE PUSH1 0x20 ADD PUSH32 0x4E6F2063616E6469646174657300000000000000000000000000000000000000 DUP2 MSTORE POP SWAP1 SWAP4 POP SWAP4 POP POP POP PUSH2 0x48B JUMP JUMPDEST PUSH1 0x2 PUSH1 0x0 DUP3 DUP2 MSTORE PUSH1 0x20 ADD SWAP1 DUP2 MSTORE PUSH1 0x20 ADD PUSH1 0x0 KECCAK256 PUSH1 0x0 ADD PUSH1 0x2 PUSH1 0x0 DUP4 DUP2 MSTORE PUSH1 0x20 ADD SWAP1 DUP2 MSTORE PUSH1 0x20 ADD PUSH1 0x0 KECCAK256 PUSH1 0x1 ADD SLOAD DUP2 DUP1 SLOAD PUSH2 0x404 SWAP1 PUSH2 0xA19 JUMP JUMPDEST DUP1 PUSH1 0x1F ADD PUSH1 0x20 DUP1 SWAP2 DIV MUL PUSH1 0x20 ADD PUSH1 0x40 MLOAD SWAP1 DUP2 ADD PUSH1 0x40 MSTORE DUP1 SWAP3 SWAP2 SWAP1 DUP2 DUP2 MSTORE PUSH1 0x20 ADD DUP3 DUP1 SLOAD PUSH2 0x430 SWAP1 PUSH2 0xA19 JUMP JUMPDEST DUP1 ISZERO PUSH2 0x47D JUMPI DUP1 PUSH1 0x1F LT PUSH2 0x452 JUMPI PUSH2 0x100 DUP1 DUP4 SLOAD DIV MUL DUP4 MSTORE SWAP2 PUSH1 0x20 ADD SWAP2 PUSH2 0x47D JUMP JUMPDEST DUP3 ADD SWAP2 SWAP1 PUSH1 0x0 MSTORE PUSH1 0x20 PUSH1 0x0 KECCAK256 SWAP1 JUMPDEST DUP2 SLOAD DUP2 MSTORE SWAP1 PUSH1 0x1 ADD SWAP1 PUSH1 0x20 ADD DUP1 DUP4 GT PUSH2 0x460 JUMPI DUP3 SWAP1 SUB PUSH1 0x1F AND DUP3 ADD SWAP2 JUMPDEST POP POP POP POP POP SWAP2 POP SWAP4 POP SWAP4 POP POP POP JUMPDEST SWAP1 SWAP2 JUMP JUMPDEST PUSH1 0x0 DUP1 SLOAD SWAP1 PUSH2 0x100 EXP SWAP1 DIV PUSH20 0xFFFFFFFFFFFFFFFFFFFFFFFFFFFFFFFFFFFFFFFF AND PUSH20 0xFFFFFFFFFFFFFFFFFFFFFFFFFFFFFFFFFFFFFFFF AND CALLER PUSH20 0xFFFFFFFFFFFFFFFFFFFFFFFFFFFFFFFFFFFFFFFF AND EQ PUSH2 0x51D JUMPI PUSH1 0x40 MLOAD PUSH32 0x8C379A000000000000000000000000000000000000000000000000000000000 DUP2 MSTORE PUSH1 0x4 ADD PUSH2 0x514 SWAP1 PUSH2 0xA96 JUMP JUMPDEST PUSH1 0x40 MLOAD DUP1 SWAP2 SUB SWAP1 REVERT JUMPDEST PUSH1 0x3 PUSH1 0x0 DUP2 SLOAD DUP1 SWAP3 SWAP2 SWAP1 PUSH2 0x530 SWAP1 PUSH2 0x9A2 JUMP JUMPDEST SWAP2 SWAP1 POP SSTORE POP PUSH1 0x40 MLOAD DUP1 PUSH1 0x40 ADD PUSH1 0x40 MSTORE DUP1 DUP3 DUP2 MSTORE PUSH1 0x20 ADD PUSH1 0x0 DUP2 MSTORE POP PUSH1 0x2 PUSH1 0x0 PUSH1 0x3 SLOAD DUP2 MSTORE PUSH1 0x20 ADD SWAP1 DUP2 MSTORE PUSH1 0x20 ADD PUSH1 0x0 KECCAK256 PUSH1 0x0 DUP3 ADD MLOAD DUP2 PUSH1 0x0 ADD SWAP1 DUP2 PUSH2 0x575 SWAP2 SWAP1 PUSH2 0xC62 JUMP JUMPDEST POP PUSH1 0x20 DUP3 ADD MLOAD DUP2 PUSH1 0x1 ADD SSTORE SWAP1 POP POP POP JUMP JUMPDEST PUSH1 0x0 DUP1 SLOAD SWAP1 PUSH2 0x100 EXP SWAP1 DIV PUSH20 0xFFFFFFFFFFFFFFFFFFFFFFFFFFFFFFFFFFFFFFFF AND DUP2 JUMP JUMPDEST PUSH1 0x0 PUSH1 0x40 MLOAD SWAP1 POP SWAP1 JUMP JUMPDEST PUSH1 0x0 DUP1 REVERT JUMPDEST PUSH1 0x0 DUP1 REVERT JUMPDEST PUSH1 0x0 DUP2 SWAP1 POP SWAP2 SWAP1 POP JUMP JUMPDEST PUSH2 0x5D1 DUP2 PUSH2 0x5BE JUMP JUMPDEST DUP2 EQ PUSH2 0x5DC JUMPI PUSH1 0x0 DUP1 REVERT JUMPDEST POP JUMP JUMPDEST PUSH1 0x0 DUP2 CALLDATALOAD SWAP1 POP PUSH2 0x5EE DUP2 PUSH2 0x5C8 JUMP JUMPDEST SWAP3 SWAP2 POP POP JUMP JUMPDEST PUSH1 0x0 PUSH1 0x20 DUP3 DUP5 SUB SLT ISZERO PUSH2 0x60A JUMPI PUSH2 0x609 PUSH2 0x5B4 JUMP JUMPDEST JUMPDEST PUSH1 0x0 PUSH2 0x618 DUP5 DUP3 DUP6 ADD PUSH2 0x5DF JUMP JUMPDEST SWAP2 POP POP SWAP3 SWAP2 POP POP JUMP JUMPDEST PUSH2 0x62A DUP2 PUSH2 0x5BE JUMP JUMPDEST DUP3 MSTORE POP POP JUMP JUMPDEST PUSH1 0x0 PUSH1 0x20 DUP3 ADD SWAP1 POP PUSH2 0x645 PUSH1 0x0 DUP4 ADD DUP5 PUSH2 0x621 JUMP JUMPDEST SWAP3 SWAP2 POP POP JUMP JUMPDEST PUSH1 0x0 DUP2 MLOAD SWAP1 POP SWAP2 SWAP1 POP JUMP JUMPDEST PUSH1 0x0 DUP3 DUP3 MSTORE PUSH1 0x20 DUP3 ADD SWAP1 POP SWAP3 SWAP2 POP POP JUMP JUMPDEST PUSH1 0x0 JUMPDEST DUP4 DUP2 LT ISZERO PUSH2 0x685 JUMPI DUP1 DUP3 ADD MLOAD DUP2 DUP5 ADD MSTORE PUSH1 0x20 DUP2 ADD SWAP1 POP PUSH2 0x66A JUMP JUMPDEST PUSH1 0x0 DUP5 DUP5 ADD MSTORE POP POP POP POP JUMP JUMPDEST PUSH1 0x0 PUSH1 0x1F NOT PUSH1 0x1F DUP4 ADD AND SWAP1 POP SWAP2 SWAP1 POP JUMP JUMPDEST PUSH1 0x0 PUSH2 0x6AD DUP3 PUSH2 0x64B JUMP JUMPDEST PUSH2 0x6B7 DUP2 DUP6 PUSH2 0x656 JUMP JUMPDEST SWAP4 POP PUSH2 0x6C7 DUP2 DUP6 PUSH1 0x20 DUP7 ADD PUSH2 0x667 JUMP JUMPDEST PUSH2 0x6D0 DUP2 PUSH2 0x691 JUMP JUMPDEST DUP5 ADD SWAP2 POP POP SWAP3 SWAP2 POP POP JUMP JUMPDEST PUSH1 0x0 PUSH1 0x20 DUP3 ADD SWAP1 POP DUP2 DUP2 SUB PUSH1 0x0 DUP4 ADD MSTORE PUSH2 0x6F5 DUP2 DUP5 PUSH2 0x6A2 JUMP JUMPDEST SWAP1 POP SWAP3 SWAP2 POP POP JUMP JUMPDEST PUSH1 0x0 PUSH1 0x40 DUP3 ADD SWAP1 POP DUP2 DUP2 SUB PUSH1 0x0 DUP4 ADD MSTORE PUSH2 0x717 DUP2 DUP6 PUSH2 0x6A2 JUMP JUMPDEST SWAP1 POP PUSH2 0x726 PUSH1 0x20 DUP4 ADD DUP5 PUSH2 0x621 JUMP JUMPDEST SWAP4 SWAP3 POP POP POP JUMP JUMPDEST PUSH1 0x0 DUP1 REVERT JUMPDEST PUSH1 0x0 DUP1 REVERT JUMPDEST PUSH32 0x4E487B7100000000000000000000000000000000000000000000000000000000 PUSH1 0x0 MSTORE PUSH1 0x41 PUSH1 0x4 MSTORE PUSH1 0x24 PUSH1 0x0 REVERT JUMPDEST PUSH2 0x76F DUP3 PUSH2 0x691 JUMP JUMPDEST DUP2 ADD DUP2 DUP2 LT PUSH8 0xFFFFFFFFFFFFFFFF DUP3 GT OR ISZERO PUSH2 0x78E JUMPI PUSH2 0x78D PUSH2 0x737 JUMP JUMPDEST JUMPDEST DUP1 PUSH1 0x40 MSTORE POP POP POP JUMP JUMPDEST PUSH1 0x0 PUSH2 0x7A1 PUSH2 0x5AA JUMP JUMPDEST SWAP1 POP PUSH2 0x7AD DUP3 DUP3 PUSH2 0x766 JUMP JUMPDEST SWAP2 SWAP1 POP JUMP JUMPDEST PUSH1 0x0 PUSH8 0xFFFFFFFFFFFFFFFF DUP3 GT ISZERO PUSH2 0x7CD JUMPI PUSH2 0x7CC PUSH2 0x737 JUMP JUMPDEST JUMPDEST PUSH2 0x7D6 DUP3 PUSH2 0x691 JUMP JUMPDEST SWAP1 POP PUSH1 0x20 DUP2 ADD SWAP1 POP SWAP2 SWAP1 POP JUMP JUMPDEST DUP3 DUP2 DUP4 CALLDATACOPY PUSH1 0x0 DUP4 DUP4 ADD MSTORE POP POP POP JUMP JUMPDEST PUSH1 0x0 PUSH2 0x805 PUSH2 0x800 DUP5 PUSH2 0x7B2 JUMP JUMPDEST PUSH2 0x797 JUMP JUMPDEST SWAP1 POP DUP3 DUP2 MSTORE PUSH1 0x20 DUP2 ADD DUP5 DUP5 DUP5 ADD GT ISZERO PUSH2 0x821 JUMPI PUSH2 0x820 PUSH2 0x732 JUMP JUMPDEST JUMPDEST PUSH2 0x82C DUP5 DUP3 DUP6 PUSH2 0x7E3 JUMP JUMPDEST POP SWAP4 SWAP3 POP POP POP JUMP JUMPDEST PUSH1 0x0 DUP3 PUSH1 0x1F DUP4 ADD SLT PUSH2 0x849 JUMPI PUSH2 0x848 PUSH2 0x72D JUMP JUMPDEST JUMPDEST DUP2 CALLDATALOAD PUSH2 0x859 DUP5 DUP3 PUSH1 0x20 DUP7 ADD PUSH2 0x7F2 JUMP JUMPDEST SWAP2 POP POP SWAP3 SWAP2 POP POP JUMP JUMPDEST PUSH1 0x0 PUSH1 0x20 DUP3 DUP5 SUB SLT ISZERO PUSH2 0x878 JUMPI PUSH2 0x877 PUSH2 0x5B4 JUMP JUMPDEST JUMPDEST PUSH1 0x0 DUP3 ADD CALLDATALOAD PUSH8 0xFFFFFFFFFFFFFFFF DUP2 GT ISZERO PUSH2 0x896 JUMPI PUSH2 0x895 PUSH2 0x5B9 JUMP JUMPDEST JUMPDEST PUSH2 0x8A2 DUP5 DUP3 DUP6 ADD PUSH2 0x834 JUMP JUMPDEST SWAP2 POP POP SWAP3 SWAP2 POP POP JUMP JUMPDEST PUSH1 0x0 PUSH20 0xFFFFFFFFFFFFFFFFFFFFFFFFFFFFFFFFFFFFFFFF DUP3 AND SWAP1 POP SWAP2 SWAP1 POP JUMP JUMPDEST PUSH1 0x0 PUSH2 0x8D6 DUP3 PUSH2 0x8AB JUMP JUMPDEST SWAP1 POP SWAP2 SWAP1 POP JUMP JUMPDEST PUSH2 0x8E6 DUP2 PUSH2 0x8CB JUMP JUMPDEST DUP3 MSTORE POP POP JUMP JUMPDEST PUSH1 0x0 PUSH1 0x20 DUP3 ADD SWAP1 POP PUSH2 0x901 PUSH1 0x0 DUP4 ADD DUP5 PUSH2 0x8DD JUMP JUMPDEST SWAP3 SWAP2 POP POP JUMP JUMPDEST PUSH32 0x596F75206861766520616C726561647920766F7465642E000000000000000000 PUSH1 0x0 DUP3 ADD MSTORE POP JUMP JUMPDEST PUSH1 0x0 PUSH2 0x93D PUSH1 0x17 DUP4 PUSH2 0x656 JUMP JUMPDEST SWAP2 POP PUSH2 0x948 DUP3 PUSH2 0x907 JUMP JUMPDEST PUSH1 0x20 DUP3 ADD SWAP1 POP SWAP2 SWAP1 POP JUMP JUMPDEST PUSH1 0x0 PUSH1 0x20 DUP3 ADD SWAP1 POP DUP2 DUP2 SUB PUSH1 0x0 DUP4 ADD MSTORE PUSH2 0x96C DUP2 PUSH2 0x930 JUMP JUMPDEST SWAP1 POP SWAP2 SWAP1 POP JUMP JUMPDEST PUSH32 0x4E487B7100000000000000000000000000000000000000000000000000000000 PUSH1 0x0 MSTORE PUSH1 0x11 PUSH1 0x4 MSTORE PUSH1 0x24 PUSH1 0x0 REVERT JUMPDEST PUSH1 0x0 PUSH2 0x9AD DUP3 PUSH2 0x5BE JUMP JUMPDEST SWAP2 POP PUSH32 0xFFFFFFFFFFFFFFFFFFFFFFFFFFFFFFFFFFFFFFFFFFFFFFFFFFFFFFFFFFFFFFFF DUP3 SUB PUSH2 0x9DF JUMPI PUSH2 0x9DE PUSH2 0x973 JUMP JUMPDEST JUMPDEST PUSH1 0x1 DUP3 ADD SWAP1 POP SWAP2 SWAP1 POP JUMP JUMPDEST PUSH32 0x4E487B7100000000000000000000000000000000000000000000000000000000 PUSH1 0x0 MSTORE PUSH1 0x22 PUSH1 0x4 MSTORE PUSH1 0x24 PUSH1 0x0 REVERT JUMPDEST PUSH1 0x0 PUSH1 0x2 DUP3 DIV SWAP1 POP PUSH1 0x1 DUP3 AND DUP1 PUSH2 0xA31 JUMPI PUSH1 0x7F DUP3 AND SWAP2 POP JUMPDEST PUSH1 0x20 DUP3 LT DUP2 SUB PUSH2 0xA44 JUMPI PUSH2 0xA43 PUSH2 0x9EA JUMP JUMPDEST JUMPDEST POP SWAP2 SWAP1 POP JUMP JUMPDEST PUSH32 0x596F752068617665206E6F20617574686F726974790000000000000000000000 PUSH1 0x0 DUP3 ADD MSTORE POP JUMP JUMPDEST PUSH1 0x0 PUSH2 0xA80 PUSH1 0x15 DUP4 PUSH2 0x656 JUMP JUMPDEST SWAP2 POP PUSH2 0xA8B DUP3 PUSH2 0xA4A JUMP JUMPDEST PUSH1 0x20 DUP3 ADD SWAP1 POP SWAP2 SWAP1 POP JUMP JUMPDEST PUSH1 0x0 PUSH1 0x20 DUP3 ADD SWAP1 POP DUP2 DUP2 SUB PUSH1 0x0 DUP4 ADD MSTORE PUSH2 0xAAF DUP2 PUSH2 0xA73 JUMP JUMPDEST SWAP1 POP SWAP2 SWAP1 POP JUMP JUMPDEST PUSH1 0x0 DUP2 SWAP1 POP DUP2 PUSH1 0x0 MSTORE PUSH1 0x20 PUSH1 0x0 KECCAK256 SWAP1 POP SWAP2 SWAP1 POP JUMP JUMPDEST PUSH1 0x0 PUSH1 0x20 PUSH1 0x1F DUP4 ADD DIV SWAP1 POP SWAP2 SWAP1 POP JUMP JUMPDEST PUSH1 0x0 DUP3 DUP3 SHL SWAP1 POP SWAP3 SWAP2 POP POP JUMP JUMPDEST PUSH1 0x0 PUSH1 0x8 DUP4 MUL PUSH2 0xB18 PUSH32 0xFFFFFFFFFFFFFFFFFFFFFFFFFFFFFFFFFFFFFFFFFFFFFFFFFFFFFFFFFFFFFFFF DUP3 PUSH2 0xADB JUMP JUMPDEST PUSH2 0xB22 DUP7 DUP4 PUSH2 0xADB JUMP JUMPDEST SWAP6 POP DUP1 NOT DUP5 AND SWAP4 POP DUP1 DUP7 AND DUP5 OR SWAP3 POP POP POP SWAP4 SWAP3 POP POP POP JUMP JUMPDEST PUSH1 0x0 DUP2 SWAP1 POP SWAP2 SWAP1 POP JUMP JUMPDEST PUSH1 0x0 PUSH2 0xB5F PUSH2 0xB5A PUSH2 0xB55 DUP5 PUSH2 0x5BE JUMP JUMPDEST PUSH2 0xB3A JUMP JUMPDEST PUSH2 0x5BE JUMP JUMPDEST SWAP1 POP SWAP2 SWAP1 POP JUMP JUMPDEST PUSH1 0x0 DUP2 SWAP1 POP SWAP2 SWAP1 POP JUMP JUMPDEST PUSH2 0xB79 DUP4 PUSH2 0xB44 JUMP JUMPDEST PUSH2 0xB8D PUSH2 0xB85 DUP3 PUSH2 0xB66 JUMP JUMPDEST DUP5 DUP5 SLOAD PUSH2 0xAE8 JUMP JUMPDEST DUP3 SSTORE POP POP POP POP JUMP JUMPDEST PUSH1 0x0 SWAP1 JUMP JUMPDEST PUSH2 0xBA2 PUSH2 0xB95 JUMP JUMPDEST PUSH2 0xBAD DUP2 DUP5 DUP5 PUSH2 0xB70 JUMP JUMPDEST POP POP POP JUMP JUMPDEST JUMPDEST DUP2 DUP2 LT ISZERO PUSH2 0xBD1 JUMPI PUSH2 0xBC6 PUSH1 0x0 DUP3 PUSH2 0xB9A JUMP JUMPDEST PUSH1 0x1 DUP2 ADD SWAP1 POP PUSH2 0xBB3 JUMP JUMPDEST POP POP JUMP JUMPDEST PUSH1 0x1F DUP3 GT ISZERO PUSH2 0xC16 JUMPI PUSH2 0xBE7 DUP2 PUSH2 0xAB6 JUMP JUMPDEST PUSH2 0xBF0 DUP5 PUSH2 0xACB JUMP JUMPDEST DUP2 ADD PUSH1 0x20 DUP6 LT ISZERO PUSH2 0xBFF JUMPI DUP2 SWAP1 POP JUMPDEST PUSH2 0xC13 PUSH2 0xC0B DUP6 PUSH2 0xACB JUMP JUMPDEST DUP4 ADD DUP3 PUSH2 0xBB2 JUMP JUMPDEST POP POP JUMPDEST POP POP POP JUMP JUMPDEST PUSH1 0x0 DUP3 DUP3 SHR SWAP1 POP SWAP3 SWAP2 POP POP JUMP JUMPDEST PUSH1 0x0 PUSH2 0xC39 PUSH1 0x0 NOT DUP5 PUSH1 0x8 MUL PUSH2 0xC1B JUMP JUMPDEST NOT DUP1 DUP4 AND SWAP2 POP POP SWAP3 SWAP2 POP POP JUMP JUMPDEST PUSH1 0x0 PUSH2 0xC52 DUP4 DUP4 PUSH2 0xC28 JUMP JUMPDEST SWAP2 POP DUP3 PUSH1 0x2 MUL DUP3 OR SWAP1 POP SWAP3 SWAP2 POP POP JUMP JUMPDEST PUSH2 0xC6B DUP3 PUSH2 0x64B JUMP JUMPDEST PUSH8 0xFFFFFFFFFFFFFFFF DUP2 GT ISZERO PUSH2 0xC84 JUMPI PUSH2 0xC83 PUSH2 0x737 JUMP JUMPDEST JUMPDEST PUSH2 0xC8E DUP3 SLOAD PUSH2 0xA19 JUMP JUMPDEST PUSH2 0xC99 DUP3 DUP3 DUP6 PUSH2 0xBD5 JUMP JUMPDEST PUSH1 0x0 PUSH1 0x20 SWAP1 POP PUSH1 0x1F DUP4 GT PUSH1 0x1 DUP2 EQ PUSH2 0xCCC JUMPI PUSH1 0x0 DUP5 ISZERO PUSH2 0xCBA JUMPI DUP3 DUP8 ADD MLOAD SWAP1 POP JUMPDEST PUSH2 0xCC4 DUP6 DUP3 PUSH2 0xC46 JUMP JUMPDEST DUP7 SSTORE POP PUSH2 0xD2C JUMP JUMPDEST PUSH1 0x1F NOT DUP5 AND PUSH2 0xCDA DUP7 PUSH2 0xAB6 JUMP JUMPDEST PUSH1 0x0 JUMPDEST DUP3 DUP2 LT ISZERO PUSH2 0xD02 JUMPI DUP5 DUP10 ADD MLOAD DUP3 SSTORE PUSH1 0x1 DUP3 ADD SWAP2 POP PUSH1 0x20 DUP6 ADD SWAP5 POP PUSH1 0x20 DUP2 ADD SWAP1 POP PUSH2 0xCDD JUMP JUMPDEST DUP7 DUP4 LT ISZERO PUSH2 0xD1F JUMPI DUP5 DUP10 ADD MLOAD PUSH2 0xD1B PUSH1 0x1F DUP10 AND DUP3 PUSH2 0xC28 JUMP JUMPDEST DUP4 SSTORE POP JUMPDEST PUSH1 0x1 PUSH1 0x2 DUP9 MUL ADD DUP9 SSTORE POP POP POP JUMPDEST POP POP POP POP POP POP JUMP INVALID LOG2 PUSH5 0x6970667358 0x22 SLT KECCAK256 SWAP4 PUSH32 0x6A352EC1C9170C539EDA6ED8FDF3E66A96D9F39CAE38EE6D09B9596DFAA16473 PUSH16 0x6C634300081200330000000000000000 "
				},
				"gasEstimates": {
					"creation": {
						"codeDepositCost": "686800",
						"executionCost": "24987",
						"totalCost": "711787"
					},
					"external": {
						"Seecandidatedetail(uint256)": "infinite",
						"addCandidates(string)": "infinite",
						"candidatesCount()": "2429",
						"owner()": "2599",
						"seewhoWon()": "infinite",
						"vote(uint256)": "infinite"
					}
				},
				"methodIdentifiers": {
					"Seecandidatedetail(uint256)": "322a0318",
					"addCandidates(string)": "62604e96",
					"candidatesCount()": "2d35a8a2",
					"owner()": "8da5cb5b",
					"seewhoWon()": "4b9c0967",
					"vote(uint256)": "0121b93f"
				}
			},
			"storageLayout": {
				"storage": [
					{
						"astId": 3,
						"contract": "contract/Vt.sol:VotingSystem",
						"label": "owner",
						"offset": 0,
						"slot": "0",
						"type": "t_address"
					},
					{
						"astId": 7,
						"contract": "contract/Vt.sol:VotingSystem",
						"label": "alreadyVoted",
						"offset": 0,
						"slot": "1",
						"type": "t_mapping(t_address,t_bool)"
					},
					{
						"astId": 51,
						"contract": "contract/Vt.sol:VotingSystem",
						"label": "candidates",
						"offset": 0,
						"slot": "2",
						"type": "t_mapping(t_uint256,t_struct(Candidate)12_storage)"
					},
					{
						"astId": 53,
						"contract": "contract/Vt.sol:VotingSystem",
						"label": "candidatesCount",
						"offset": 0,
						"slot": "3",
						"type": "t_uint256"
					}
				],
				"types": {
					"t_address": {
						"encoding": "inplace",
						"label": "address",
						"numberOfBytes": "20"
					},
					"t_bool": {
						"encoding": "inplace",
						"label": "bool",
						"numberOfBytes": "1"
					},
					"t_mapping(t_address,t_bool)": {
						"encoding": "mapping",
						"key": "t_address",
						"label": "mapping(address => bool)",
						"numberOfBytes": "32",
						"value": "t_bool"
					},
					"t_mapping(t_uint256,t_struct(Candidate)12_storage)": {
						"encoding": "mapping",
						"key": "t_uint256",
						"label": "mapping(uint256 => struct VotingSystem.Candidate)",
						"numberOfBytes": "32",
						"value": "t_struct(Candidate)12_storage"
					},
					"t_string_storage": {
						"encoding": "bytes",
						"label": "string",
						"numberOfBytes": "32"
					},
					"t_struct(Candidate)12_storage": {
						"encoding": "inplace",
						"label": "struct VotingSystem.Candidate",
						"members": [
							{
								"astId": 9,
								"contract": "contract/Vt.sol:VotingSystem",
								"label": "name",
								"offset": 0,
								"slot": "0",
								"type": "t_string_storage"
							},
							{
								"astId": 11,
								"contract": "contract/Vt.sol:VotingSystem",
								"label": "voteCount",
								"offset": 0,
								"slot": "1",
								"type": "t_uint256"
							}
						],
						"numberOfBytes": "64"
					},
					"t_uint256": {
						"encoding": "inplace",
						"label": "uint256",
						"numberOfBytes": "32"
					}
				}
			},
			"userdoc": {
				"kind": "user",
				"methods": {},
				"version": 1
			}
		}
	}
}