{
	"contract/candidatedetail.sol": {
		"CommitmentContract": {
			"abi": [
				{
					"inputs": [
						{
							"internalType": "uint256",
							"name": "_cnic",
							"type": "uint256"
						},
						{
							"internalType": "string",
							"name": "_randomNo",
							"type": "string"
						}
					],
					"name": "calculateHash",
					"outputs": [
						{
							"internalType": "bytes32",
							"name": "",
							"type": "bytes32"
						}
					],
					"stateMutability": "pure",
					"type": "function"
				}
			],
			"devdoc": {
				"kind": "dev",
				"methods": {},
				"version": 1
			},
			"evm": {
				"assembly": "    /* \"contract/candidatedetail.sol\":60:1015  contract CommitmentContract {... */\n  mstore(0x40, 0x80)\n  callvalue\n  dup1\n  iszero\n  tag_1\n  jumpi\n  0x00\n  dup1\n  revert\ntag_1:\n  pop\n  dataSize(sub_0)\n  dup1\n  dataOffset(sub_0)\n  0x00\n  codecopy\n  0x00\n  return\nstop\n\nsub_0: assembly {\n        /* \"contract/candidatedetail.sol\":60:1015  contract CommitmentContract {... */\n      mstore(0x40, 0x80)\n      callvalue\n      dup1\n      iszero\n      tag_1\n      jumpi\n      0x00\n      dup1\n      revert\n    tag_1:\n      pop\n      jumpi(tag_2, lt(calldatasize, 0x04))\n      shr(0xe0, calldataload(0x00))\n      dup1\n      0xf0b42f74\n      eq\n      tag_3\n      jumpi\n    tag_2:\n      0x00\n      dup1\n      revert\n        /* \"contract/candidatedetail.sol\":706:1012  function calculateHash(uint256 _cnic, string memory _randomNo) public pure returns (bytes32) {... */\n    tag_3:\n      tag_4\n      0x04\n      dup1\n      calldatasize\n      sub\n      dup2\n      add\n      swap1\n      tag_5\n      swap2\n      swap1\n      tag_6\n      jump\t// in\n    tag_5:\n      tag_7\n      jump\t// in\n    tag_4:\n      mload(0x40)\n      tag_8\n      swap2\n      swap1\n      tag_9\n      jump\t// in\n    tag_8:\n      mload(0x40)\n      dup1\n      swap2\n      sub\n      swap1\n      return\n    tag_7:\n        /* \"contract/candidatedetail.sol\":790:797  bytes32 */\n      0x00\n        /* \"contract/candidatedetail.sol\":810:834  string memory cnicString */\n      dup1\n        /* \"contract/candidatedetail.sol\":837:856  uintToString(_cnic) */\n      tag_11\n        /* \"contract/candidatedetail.sol\":850:855  _cnic */\n      dup5\n        /* \"contract/candidatedetail.sol\":837:849  uintToString */\n      tag_12\n        /* \"contract/candidatedetail.sol\":837:856  uintToString(_cnic) */\n      jump\t// in\n    tag_11:\n        /* \"contract/candidatedetail.sol\":810:856  string memory cnicString = uintToString(_cnic) */\n      swap1\n      pop\n        /* \"contract/candidatedetail.sol\":867:893  string memory concatenated */\n      0x00\n        /* \"contract/candidatedetail.sol\":920:930  cnicString */\n      dup2\n        /* \"contract/candidatedetail.sol\":932:941  _randomNo */\n      dup5\n        /* \"contract/candidatedetail.sol\":903:942  abi.encodePacked(cnicString, _randomNo) */\n      add(0x20, mload(0x40))\n      tag_13\n      swap3\n      swap2\n      swap1\n      tag_14\n      jump\t// in\n    tag_13:\n      mload(0x40)\n      0x20\n      dup2\n      dup4\n      sub\n      sub\n      dup2\n      mstore\n      swap1\n      0x40\n      mstore\n        /* \"contract/candidatedetail.sol\":867:943  string memory concatenated = string(abi.encodePacked(cnicString, _randomNo)) */\n      swap1\n      pop\n        /* \"contract/candidatedetail.sol\":989:1001  concatenated */\n      dup1\n        /* \"contract/candidatedetail.sol\":972:1002  abi.encodePacked(concatenated) */\n      add(0x20, mload(0x40))\n      tag_15\n      swap2\n      swap1\n      tag_16\n      jump\t// in\n    tag_15:\n      mload(0x40)\n      0x20\n      dup2\n      dup4\n      sub\n      sub\n      dup2\n      mstore\n      swap1\n      0x40\n      mstore\n        /* \"contract/candidatedetail.sol\":962:1003  keccak256(abi.encodePacked(concatenated)) */\n      dup1\n      mload\n      swap1\n      0x20\n      add\n      keccak256\n        /* \"contract/candidatedetail.sol\":954:1004  return (keccak256(abi.encodePacked(concatenated))) */\n      swap3\n      pop\n      pop\n      pop\n        /* \"contract/candidatedetail.sol\":706:1012  function calculateHash(uint256 _cnic, string memory _randomNo) public pure returns (bytes32) {... */\n      swap3\n      swap2\n      pop\n      pop\n      jump\t// out\n        /* \"contract/candidatedetail.sol\":99:697  function uintToString(uint256 _value) internal pure returns (string memory) {... */\n    tag_12:\n        /* \"contract/candidatedetail.sol\":160:173  string memory */\n      0x60\n        /* \"contract/candidatedetail.sol\":200:201  0 */\n      0x00\n        /* \"contract/candidatedetail.sol\":190:196  _value */\n      dup3\n        /* \"contract/candidatedetail.sol\":190:201  _value == 0 */\n      sub\n        /* \"contract/candidatedetail.sol\":186:240  if (_value == 0) {... */\n      tag_18\n      jumpi\n        /* \"contract/candidatedetail.sol\":218:228  return \"0\" */\n      mload(0x40)\n      dup1\n      0x40\n      add\n      0x40\n      mstore\n      dup1\n      0x01\n      dup2\n      mstore\n      0x20\n      add\n      0x3000000000000000000000000000000000000000000000000000000000000000\n      dup2\n      mstore\n      pop\n      swap1\n      pop\n      jump(tag_17)\n        /* \"contract/candidatedetail.sol\":186:240  if (_value == 0) {... */\n    tag_18:\n        /* \"contract/candidatedetail.sol\":250:267  uint256 tempValue */\n      0x00\n        /* \"contract/candidatedetail.sol\":270:276  _value */\n      dup3\n        /* \"contract/candidatedetail.sol\":250:276  uint256 tempValue = _value */\n      swap1\n      pop\n        /* \"contract/candidatedetail.sol\":287:301  uint256 digits */\n      0x00\n        /* \"contract/candidatedetail.sol\":312:400  while (tempValue != 0) {... */\n    tag_19:\n        /* \"contract/candidatedetail.sol\":332:333  0 */\n      0x00\n        /* \"contract/candidatedetail.sol\":319:328  tempValue */\n      dup3\n        /* \"contract/candidatedetail.sol\":319:333  tempValue != 0 */\n      eq\n        /* \"contract/candidatedetail.sol\":312:400  while (tempValue != 0) {... */\n      tag_20\n      jumpi\n        /* \"contract/candidatedetail.sol\":350:358  digits++ */\n      dup1\n      dup1\n      tag_21\n      swap1\n      tag_22\n      jump\t// in\n    tag_21:\n      swap2\n      pop\n      pop\n        /* \"contract/candidatedetail.sol\":386:388  10 */\n      0x0a\n        /* \"contract/candidatedetail.sol\":373:388  tempValue /= 10 */\n      dup3\n      tag_23\n      swap2\n      swap1\n      tag_24\n      jump\t// in\n    tag_23:\n      swap2\n      pop\n        /* \"contract/candidatedetail.sol\":312:400  while (tempValue != 0) {... */\n      jump(tag_19)\n    tag_20:\n        /* \"contract/candidatedetail.sol\":410:429  bytes memory buffer */\n      0x00\n        /* \"contract/candidatedetail.sol\":442:448  digits */\n      dup2\n        /* \"contract/candidatedetail.sol\":432:449  new bytes(digits) */\n      0xffffffffffffffff\n      dup2\n      gt\n      iszero\n      tag_25\n      jumpi\n      tag_26\n      tag_27\n      jump\t// in\n    tag_26:\n    tag_25:\n      mload(0x40)\n      swap1\n      dup1\n      dup3\n      mstore\n      dup1\n      0x1f\n      add\n      not(0x1f)\n      and\n      0x20\n      add\n      dup3\n      add\n      0x40\n      mstore\n      dup1\n      iszero\n      tag_28\n      jumpi\n      dup2\n      0x20\n      add\n      0x01\n      dup3\n      mul\n      dup1\n      calldatasize\n      dup4\n      calldatacopy\n      dup1\n      dup3\n      add\n      swap2\n      pop\n      pop\n      swap1\n      pop\n    tag_28:\n      pop\n        /* \"contract/candidatedetail.sol\":410:449  bytes memory buffer = new bytes(digits) */\n      swap1\n      pop\n        /* \"contract/candidatedetail.sol\":460:473  uint256 index */\n      0x00\n        /* \"contract/candidatedetail.sol\":485:486  1 */\n      0x01\n        /* \"contract/candidatedetail.sol\":476:482  digits */\n      dup4\n        /* \"contract/candidatedetail.sol\":476:486  digits - 1 */\n      tag_29\n      swap2\n      swap1\n      tag_30\n      jump\t// in\n    tag_29:\n        /* \"contract/candidatedetail.sol\":460:486  uint256 index = digits - 1 */\n      swap1\n      pop\n        /* \"contract/candidatedetail.sol\":509:515  _value */\n      dup6\n        /* \"contract/candidatedetail.sol\":497:515  tempValue = _value */\n      swap4\n      pop\n        /* \"contract/candidatedetail.sol\":526:658  while (tempValue != 0) {... */\n    tag_31:\n        /* \"contract/candidatedetail.sol\":546:547  0 */\n      0x00\n        /* \"contract/candidatedetail.sol\":533:542  tempValue */\n      dup5\n        /* \"contract/candidatedetail.sol\":533:547  tempValue != 0 */\n      eq\n        /* \"contract/candidatedetail.sol\":526:658  while (tempValue != 0) {... */\n      tag_32\n      jumpi\n        /* \"contract/candidatedetail.sol\":612:614  10 */\n      0x0a\n        /* \"contract/candidatedetail.sol\":600:609  tempValue */\n      dup5\n        /* \"contract/candidatedetail.sol\":600:614  tempValue % 10 */\n      tag_33\n      swap2\n      swap1\n      tag_34\n      jump\t// in\n    tag_33:\n        /* \"contract/candidatedetail.sol\":595:597  48 */\n      0x30\n        /* \"contract/candidatedetail.sol\":595:614  48 + tempValue % 10 */\n      tag_35\n      swap2\n      swap1\n      tag_36\n      jump\t// in\n    tag_35:\n        /* \"contract/candidatedetail.sol\":582:616  bytes1(uint8(48 + tempValue % 10)) */\n      0xf8\n      shl\n        /* \"contract/candidatedetail.sol\":564:570  buffer */\n      dup3\n        /* \"contract/candidatedetail.sol\":571:578  index-- */\n      dup3\n      dup1\n      tag_37\n      swap1\n      tag_38\n      jump\t// in\n    tag_37:\n      swap4\n      pop\n        /* \"contract/candidatedetail.sol\":564:579  buffer[index--] */\n      dup2\n      mload\n      dup2\n      lt\n      tag_39\n      jumpi\n      tag_40\n      tag_41\n      jump\t// in\n    tag_40:\n    tag_39:\n      0x20\n      add\n      add\n        /* \"contract/candidatedetail.sol\":564:616  buffer[index--] = bytes1(uint8(48 + tempValue % 10)) */\n      swap1\n      not(0xffffffffffffffffffffffffffffffffffffffffffffffffffffffffffffff)\n      and\n      swap1\n      dup2\n      0x00\n      byte\n      swap1\n      mstore8\n      pop\n        /* \"contract/candidatedetail.sol\":644:646  10 */\n      0x0a\n        /* \"contract/candidatedetail.sol\":631:646  tempValue /= 10 */\n      dup5\n      tag_42\n      swap2\n      swap1\n      tag_24\n      jump\t// in\n    tag_42:\n      swap4\n      pop\n        /* \"contract/candidatedetail.sol\":526:658  while (tempValue != 0) {... */\n      jump(tag_31)\n    tag_32:\n        /* \"contract/candidatedetail.sol\":682:688  buffer */\n      dup2\n        /* \"contract/candidatedetail.sol\":668:689  return string(buffer) */\n      swap5\n      pop\n      pop\n      pop\n      pop\n      pop\n        /* \"contract/candidatedetail.sol\":99:697  function uintToString(uint256 _value) internal pure returns (string memory) {... */\n    tag_17:\n      swap2\n      swap1\n      pop\n      jump\t// out\n        /* \"#utility.yul\":7:82   */\n    tag_43:\n        /* \"#utility.yul\":40:46   */\n      0x00\n        /* \"#utility.yul\":73:75   */\n      0x40\n        /* \"#utility.yul\":67:76   */\n      mload\n        /* \"#utility.yul\":57:76   */\n      swap1\n      pop\n        /* \"#utility.yul\":7:82   */\n      swap1\n      jump\t// out\n        /* \"#utility.yul\":88:205   */\n    tag_44:\n        /* \"#utility.yul\":197:198   */\n      0x00\n        /* \"#utility.yul\":194:195   */\n      dup1\n        /* \"#utility.yul\":187:199   */\n      revert\n        /* \"#utility.yul\":211:328   */\n    tag_45:\n        /* \"#utility.yul\":320:321   */\n      0x00\n        /* \"#utility.yul\":317:318   */\n      dup1\n        /* \"#utility.yul\":310:322   */\n      revert\n        /* \"#utility.yul\":334:411   */\n    tag_46:\n        /* \"#utility.yul\":371:378   */\n      0x00\n        /* \"#utility.yul\":400:405   */\n      dup2\n        /* \"#utility.yul\":389:405   */\n      swap1\n      pop\n        /* \"#utility.yul\":334:411   */\n      swap2\n      swap1\n      pop\n      jump\t// out\n        /* \"#utility.yul\":417:539   */\n    tag_47:\n        /* \"#utility.yul\":490:514   */\n      tag_72\n        /* \"#utility.yul\":508:513   */\n      dup2\n        /* \"#utility.yul\":490:514   */\n      tag_46\n      jump\t// in\n    tag_72:\n        /* \"#utility.yul\":483:488   */\n      dup2\n        /* \"#utility.yul\":480:515   */\n      eq\n        /* \"#utility.yul\":470:533   */\n      tag_73\n      jumpi\n        /* \"#utility.yul\":529:530   */\n      0x00\n        /* \"#utility.yul\":526:527   */\n      dup1\n        /* \"#utility.yul\":519:531   */\n      revert\n        /* \"#utility.yul\":470:533   */\n    tag_73:\n        /* \"#utility.yul\":417:539   */\n      pop\n      jump\t// out\n        /* \"#utility.yul\":545:684   */\n    tag_48:\n        /* \"#utility.yul\":591:596   */\n      0x00\n        /* \"#utility.yul\":629:635   */\n      dup2\n        /* \"#utility.yul\":616:636   */\n      calldataload\n        /* \"#utility.yul\":607:636   */\n      swap1\n      pop\n        /* \"#utility.yul\":645:678   */\n      tag_75\n        /* \"#utility.yul\":672:677   */\n      dup2\n        /* \"#utility.yul\":645:678   */\n      tag_47\n      jump\t// in\n    tag_75:\n        /* \"#utility.yul\":545:684   */\n      swap3\n      swap2\n      pop\n      pop\n      jump\t// out\n        /* \"#utility.yul\":690:807   */\n    tag_49:\n        /* \"#utility.yul\":799:800   */\n      0x00\n        /* \"#utility.yul\":796:797   */\n      dup1\n        /* \"#utility.yul\":789:801   */\n      revert\n        /* \"#utility.yul\":813:930   */\n    tag_50:\n        /* \"#utility.yul\":922:923   */\n      0x00\n        /* \"#utility.yul\":919:920   */\n      dup1\n        /* \"#utility.yul\":912:924   */\n      revert\n        /* \"#utility.yul\":936:1038   */\n    tag_51:\n        /* \"#utility.yul\":977:983   */\n      0x00\n        /* \"#utility.yul\":1028:1030   */\n      0x1f\n        /* \"#utility.yul\":1024:1031   */\n      not\n        /* \"#utility.yul\":1019:1021   */\n      0x1f\n        /* \"#utility.yul\":1012:1017   */\n      dup4\n        /* \"#utility.yul\":1008:1022   */\n      add\n        /* \"#utility.yul\":1004:1032   */\n      and\n        /* \"#utility.yul\":994:1032   */\n      swap1\n      pop\n        /* \"#utility.yul\":936:1038   */\n      swap2\n      swap1\n      pop\n      jump\t// out\n        /* \"#utility.yul\":1044:1224   */\n    tag_27:\n        /* \"#utility.yul\":1092:1169   */\n      0x4e487b7100000000000000000000000000000000000000000000000000000000\n        /* \"#utility.yul\":1089:1090   */\n      0x00\n        /* \"#utility.yul\":1082:1170   */\n      mstore\n        /* \"#utility.yul\":1189:1193   */\n      0x41\n        /* \"#utility.yul\":1186:1187   */\n      0x04\n        /* \"#utility.yul\":1179:1194   */\n      mstore\n        /* \"#utility.yul\":1213:1217   */\n      0x24\n        /* \"#utility.yul\":1210:1211   */\n      0x00\n        /* \"#utility.yul\":1203:1218   */\n      revert\n        /* \"#utility.yul\":1230:1511   */\n    tag_52:\n        /* \"#utility.yul\":1313:1340   */\n      tag_81\n        /* \"#utility.yul\":1335:1339   */\n      dup3\n        /* \"#utility.yul\":1313:1340   */\n      tag_51\n      jump\t// in\n    tag_81:\n        /* \"#utility.yul\":1305:1311   */\n      dup2\n        /* \"#utility.yul\":1301:1341   */\n      add\n        /* \"#utility.yul\":1443:1449   */\n      dup2\n        /* \"#utility.yul\":1431:1441   */\n      dup2\n        /* \"#utility.yul\":1428:1450   */\n      lt\n        /* \"#utility.yul\":1407:1425   */\n      0xffffffffffffffff\n        /* \"#utility.yul\":1395:1405   */\n      dup3\n        /* \"#utility.yul\":1392:1426   */\n      gt\n        /* \"#utility.yul\":1389:1451   */\n      or\n        /* \"#utility.yul\":1386:1474   */\n      iszero\n      tag_82\n      jumpi\n        /* \"#utility.yul\":1454:1472   */\n      tag_83\n      tag_27\n      jump\t// in\n    tag_83:\n        /* \"#utility.yul\":1386:1474   */\n    tag_82:\n        /* \"#utility.yul\":1494:1504   */\n      dup1\n        /* \"#utility.yul\":1490:1492   */\n      0x40\n        /* \"#utility.yul\":1483:1505   */\n      mstore\n        /* \"#utility.yul\":1273:1511   */\n      pop\n        /* \"#utility.yul\":1230:1511   */\n      pop\n      pop\n      jump\t// out\n        /* \"#utility.yul\":1517:1646   */\n    tag_53:\n        /* \"#utility.yul\":1551:1557   */\n      0x00\n        /* \"#utility.yul\":1578:1598   */\n      tag_85\n      tag_43\n      jump\t// in\n    tag_85:\n        /* \"#utility.yul\":1568:1598   */\n      swap1\n      pop\n        /* \"#utility.yul\":1607:1640   */\n      tag_86\n        /* \"#utility.yul\":1635:1639   */\n      dup3\n        /* \"#utility.yul\":1627:1633   */\n      dup3\n        /* \"#utility.yul\":1607:1640   */\n      tag_52\n      jump\t// in\n    tag_86:\n        /* \"#utility.yul\":1517:1646   */\n      swap2\n      swap1\n      pop\n      jump\t// out\n        /* \"#utility.yul\":1652:1960   */\n    tag_54:\n        /* \"#utility.yul\":1714:1718   */\n      0x00\n        /* \"#utility.yul\":1804:1822   */\n      0xffffffffffffffff\n        /* \"#utility.yul\":1796:1802   */\n      dup3\n        /* \"#utility.yul\":1793:1823   */\n      gt\n        /* \"#utility.yul\":1790:1846   */\n      iszero\n      tag_88\n      jumpi\n        /* \"#utility.yul\":1826:1844   */\n      tag_89\n      tag_27\n      jump\t// in\n    tag_89:\n        /* \"#utility.yul\":1790:1846   */\n    tag_88:\n        /* \"#utility.yul\":1864:1893   */\n      tag_90\n        /* \"#utility.yul\":1886:1892   */\n      dup3\n        /* \"#utility.yul\":1864:1893   */\n      tag_51\n      jump\t// in\n    tag_90:\n        /* \"#utility.yul\":1856:1893   */\n      swap1\n      pop\n        /* \"#utility.yul\":1948:1952   */\n      0x20\n        /* \"#utility.yul\":1942:1946   */\n      dup2\n        /* \"#utility.yul\":1938:1953   */\n      add\n        /* \"#utility.yul\":1930:1953   */\n      swap1\n      pop\n        /* \"#utility.yul\":1652:1960   */\n      swap2\n      swap1\n      pop\n      jump\t// out\n        /* \"#utility.yul\":1966:2112   */\n    tag_55:\n        /* \"#utility.yul\":2063:2069   */\n      dup3\n        /* \"#utility.yul\":2058:2061   */\n      dup2\n        /* \"#utility.yul\":2053:2056   */\n      dup4\n        /* \"#utility.yul\":2040:2070   */\n      calldatacopy\n        /* \"#utility.yul\":2104:2105   */\n      0x00\n        /* \"#utility.yul\":2095:2101   */\n      dup4\n        /* \"#utility.yul\":2090:2093   */\n      dup4\n        /* \"#utility.yul\":2086:2102   */\n      add\n        /* \"#utility.yul\":2079:2106   */\n      mstore\n        /* \"#utility.yul\":1966:2112   */\n      pop\n      pop\n      pop\n      jump\t// out\n        /* \"#utility.yul\":2118:2543   */\n    tag_56:\n        /* \"#utility.yul\":2196:2201   */\n      0x00\n        /* \"#utility.yul\":2221:2287   */\n      tag_93\n        /* \"#utility.yul\":2237:2286   */\n      tag_94\n        /* \"#utility.yul\":2279:2285   */\n      dup5\n        /* \"#utility.yul\":2237:2286   */\n      tag_54\n      jump\t// in\n    tag_94:\n        /* \"#utility.yul\":2221:2287   */\n      tag_53\n      jump\t// in\n    tag_93:\n        /* \"#utility.yul\":2212:2287   */\n      swap1\n      pop\n        /* \"#utility.yul\":2310:2316   */\n      dup3\n        /* \"#utility.yul\":2303:2308   */\n      dup2\n        /* \"#utility.yul\":2296:2317   */\n      mstore\n        /* \"#utility.yul\":2348:2352   */\n      0x20\n        /* \"#utility.yul\":2341:2346   */\n      dup2\n        /* \"#utility.yul\":2337:2353   */\n      add\n        /* \"#utility.yul\":2386:2389   */\n      dup5\n        /* \"#utility.yul\":2377:2383   */\n      dup5\n        /* \"#utility.yul\":2372:2375   */\n      dup5\n        /* \"#utility.yul\":2368:2384   */\n      add\n        /* \"#utility.yul\":2365:2390   */\n      gt\n        /* \"#utility.yul\":2362:2474   */\n      iszero\n      tag_95\n      jumpi\n        /* \"#utility.yul\":2393:2472   */\n      tag_96\n      tag_50\n      jump\t// in\n    tag_96:\n        /* \"#utility.yul\":2362:2474   */\n    tag_95:\n        /* \"#utility.yul\":2483:2537   */\n      tag_97\n        /* \"#utility.yul\":2530:2536   */\n      dup5\n        /* \"#utility.yul\":2525:2528   */\n      dup3\n        /* \"#utility.yul\":2520:2523   */\n      dup6\n        /* \"#utility.yul\":2483:2537   */\n      tag_55\n      jump\t// in\n    tag_97:\n        /* \"#utility.yul\":2202:2543   */\n      pop\n        /* \"#utility.yul\":2118:2543   */\n      swap4\n      swap3\n      pop\n      pop\n      pop\n      jump\t// out\n        /* \"#utility.yul\":2563:2903   */\n    tag_57:\n        /* \"#utility.yul\":2619:2624   */\n      0x00\n        /* \"#utility.yul\":2668:2671   */\n      dup3\n        /* \"#utility.yul\":2661:2665   */\n      0x1f\n        /* \"#utility.yul\":2653:2659   */\n      dup4\n        /* \"#utility.yul\":2649:2666   */\n      add\n        /* \"#utility.yul\":2645:2672   */\n      slt\n        /* \"#utility.yul\":2635:2757   */\n      tag_99\n      jumpi\n        /* \"#utility.yul\":2676:2755   */\n      tag_100\n      tag_49\n      jump\t// in\n    tag_100:\n        /* \"#utility.yul\":2635:2757   */\n    tag_99:\n        /* \"#utility.yul\":2793:2799   */\n      dup2\n        /* \"#utility.yul\":2780:2800   */\n      calldataload\n        /* \"#utility.yul\":2818:2897   */\n      tag_101\n        /* \"#utility.yul\":2893:2896   */\n      dup5\n        /* \"#utility.yul\":2885:2891   */\n      dup3\n        /* \"#utility.yul\":2878:2882   */\n      0x20\n        /* \"#utility.yul\":2870:2876   */\n      dup7\n        /* \"#utility.yul\":2866:2883   */\n      add\n        /* \"#utility.yul\":2818:2897   */\n      tag_56\n      jump\t// in\n    tag_101:\n        /* \"#utility.yul\":2809:2897   */\n      swap2\n      pop\n        /* \"#utility.yul\":2625:2903   */\n      pop\n        /* \"#utility.yul\":2563:2903   */\n      swap3\n      swap2\n      pop\n      pop\n      jump\t// out\n        /* \"#utility.yul\":2909:3563   */\n    tag_6:\n        /* \"#utility.yul\":2987:2993   */\n      0x00\n        /* \"#utility.yul\":2995:3001   */\n      dup1\n        /* \"#utility.yul\":3044:3046   */\n      0x40\n        /* \"#utility.yul\":3032:3041   */\n      dup4\n        /* \"#utility.yul\":3023:3030   */\n      dup6\n        /* \"#utility.yul\":3019:3042   */\n      sub\n        /* \"#utility.yul\":3015:3047   */\n      slt\n        /* \"#utility.yul\":3012:3131   */\n      iszero\n      tag_103\n      jumpi\n        /* \"#utility.yul\":3050:3129   */\n      tag_104\n      tag_44\n      jump\t// in\n    tag_104:\n        /* \"#utility.yul\":3012:3131   */\n    tag_103:\n        /* \"#utility.yul\":3170:3171   */\n      0x00\n        /* \"#utility.yul\":3195:3248   */\n      tag_105\n        /* \"#utility.yul\":3240:3247   */\n      dup6\n        /* \"#utility.yul\":3231:3237   */\n      dup3\n        /* \"#utility.yul\":3220:3229   */\n      dup7\n        /* \"#utility.yul\":3216:3238   */\n      add\n        /* \"#utility.yul\":3195:3248   */\n      tag_48\n      jump\t// in\n    tag_105:\n        /* \"#utility.yul\":3185:3248   */\n      swap3\n      pop\n        /* \"#utility.yul\":3141:3258   */\n      pop\n        /* \"#utility.yul\":3325:3327   */\n      0x20\n        /* \"#utility.yul\":3314:3323   */\n      dup4\n        /* \"#utility.yul\":3310:3328   */\n      add\n        /* \"#utility.yul\":3297:3329   */\n      calldataload\n        /* \"#utility.yul\":3356:3374   */\n      0xffffffffffffffff\n        /* \"#utility.yul\":3348:3354   */\n      dup2\n        /* \"#utility.yul\":3345:3375   */\n      gt\n        /* \"#utility.yul\":3342:3459   */\n      iszero\n      tag_106\n      jumpi\n        /* \"#utility.yul\":3378:3457   */\n      tag_107\n      tag_45\n      jump\t// in\n    tag_107:\n        /* \"#utility.yul\":3342:3459   */\n    tag_106:\n        /* \"#utility.yul\":3483:3546   */\n      tag_108\n        /* \"#utility.yul\":3538:3545   */\n      dup6\n        /* \"#utility.yul\":3529:3535   */\n      dup3\n        /* \"#utility.yul\":3518:3527   */\n      dup7\n        /* \"#utility.yul\":3514:3536   */\n      add\n        /* \"#utility.yul\":3483:3546   */\n      tag_57\n      jump\t// in\n    tag_108:\n        /* \"#utility.yul\":3473:3546   */\n      swap2\n      pop\n        /* \"#utility.yul\":3268:3556   */\n      pop\n        /* \"#utility.yul\":2909:3563   */\n      swap3\n      pop\n      swap3\n      swap1\n      pop\n      jump\t// out\n        /* \"#utility.yul\":3569:3646   */\n    tag_58:\n        /* \"#utility.yul\":3606:3613   */\n      0x00\n        /* \"#utility.yul\":3635:3640   */\n      dup2\n        /* \"#utility.yul\":3624:3640   */\n      swap1\n      pop\n        /* \"#utility.yul\":3569:3646   */\n      swap2\n      swap1\n      pop\n      jump\t// out\n        /* \"#utility.yul\":3652:3770   */\n    tag_59:\n        /* \"#utility.yul\":3739:3763   */\n      tag_111\n        /* \"#utility.yul\":3757:3762   */\n      dup2\n        /* \"#utility.yul\":3739:3763   */\n      tag_58\n      jump\t// in\n    tag_111:\n        /* \"#utility.yul\":3734:3737   */\n      dup3\n        /* \"#utility.yul\":3727:3764   */\n      mstore\n        /* \"#utility.yul\":3652:3770   */\n      pop\n      pop\n      jump\t// out\n        /* \"#utility.yul\":3776:3998   */\n    tag_9:\n        /* \"#utility.yul\":3869:3873   */\n      0x00\n        /* \"#utility.yul\":3907:3909   */\n      0x20\n        /* \"#utility.yul\":3896:3905   */\n      dup3\n        /* \"#utility.yul\":3892:3910   */\n      add\n        /* \"#utility.yul\":3884:3910   */\n      swap1\n      pop\n        /* \"#utility.yul\":3920:3991   */\n      tag_113\n        /* \"#utility.yul\":3988:3989   */\n      0x00\n        /* \"#utility.yul\":3977:3986   */\n      dup4\n        /* \"#utility.yul\":3973:3990   */\n      add\n        /* \"#utility.yul\":3964:3970   */\n      dup5\n        /* \"#utility.yul\":3920:3991   */\n      tag_59\n      jump\t// in\n    tag_113:\n        /* \"#utility.yul\":3776:3998   */\n      swap3\n      swap2\n      pop\n      pop\n      jump\t// out\n        /* \"#utility.yul\":4004:4103   */\n    tag_60:\n        /* \"#utility.yul\":4056:4062   */\n      0x00\n        /* \"#utility.yul\":4090:4095   */\n      dup2\n        /* \"#utility.yul\":4084:4096   */\n      mload\n        /* \"#utility.yul\":4074:4096   */\n      swap1\n      pop\n        /* \"#utility.yul\":4004:4103   */\n      swap2\n      swap1\n      pop\n      jump\t// out\n        /* \"#utility.yul\":4109:4257   */\n    tag_61:\n        /* \"#utility.yul\":4211:4222   */\n      0x00\n        /* \"#utility.yul\":4248:4251   */\n      dup2\n        /* \"#utility.yul\":4233:4251   */\n      swap1\n      pop\n        /* \"#utility.yul\":4109:4257   */\n      swap3\n      swap2\n      pop\n      pop\n      jump\t// out\n        /* \"#utility.yul\":4263:4509   */\n    tag_62:\n        /* \"#utility.yul\":4344:4345   */\n      0x00\n        /* \"#utility.yul\":4354:4467   */\n    tag_117:\n        /* \"#utility.yul\":4368:4374   */\n      dup4\n        /* \"#utility.yul\":4365:4366   */\n      dup2\n        /* \"#utility.yul\":4362:4375   */\n      lt\n        /* \"#utility.yul\":4354:4467   */\n      iszero\n      tag_119\n      jumpi\n        /* \"#utility.yul\":4453:4454   */\n      dup1\n        /* \"#utility.yul\":4448:4451   */\n      dup3\n        /* \"#utility.yul\":4444:4455   */\n      add\n        /* \"#utility.yul\":4438:4456   */\n      mload\n        /* \"#utility.yul\":4434:4435   */\n      dup2\n        /* \"#utility.yul\":4429:4432   */\n      dup5\n        /* \"#utility.yul\":4425:4436   */\n      add\n        /* \"#utility.yul\":4418:4457   */\n      mstore\n        /* \"#utility.yul\":4390:4392   */\n      0x20\n        /* \"#utility.yul\":4387:4388   */\n      dup2\n        /* \"#utility.yul\":4383:4393   */\n      add\n        /* \"#utility.yul\":4378:4393   */\n      swap1\n      pop\n        /* \"#utility.yul\":4354:4467   */\n      jump(tag_117)\n    tag_119:\n        /* \"#utility.yul\":4501:4502   */\n      0x00\n        /* \"#utility.yul\":4492:4498   */\n      dup5\n        /* \"#utility.yul\":4487:4490   */\n      dup5\n        /* \"#utility.yul\":4483:4499   */\n      add\n        /* \"#utility.yul\":4476:4503   */\n      mstore\n        /* \"#utility.yul\":4325:4509   */\n      pop\n        /* \"#utility.yul\":4263:4509   */\n      pop\n      pop\n      pop\n      jump\t// out\n        /* \"#utility.yul\":4515:4905   */\n    tag_63:\n        /* \"#utility.yul\":4621:4624   */\n      0x00\n        /* \"#utility.yul\":4649:4688   */\n      tag_121\n        /* \"#utility.yul\":4682:4687   */\n      dup3\n        /* \"#utility.yul\":4649:4688   */\n      tag_60\n      jump\t// in\n    tag_121:\n        /* \"#utility.yul\":4704:4793   */\n      tag_122\n        /* \"#utility.yul\":4786:4792   */\n      dup2\n        /* \"#utility.yul\":4781:4784   */\n      dup6\n        /* \"#utility.yul\":4704:4793   */\n      tag_61\n      jump\t// in\n    tag_122:\n        /* \"#utility.yul\":4697:4793   */\n      swap4\n      pop\n        /* \"#utility.yul\":4802:4867   */\n      tag_123\n        /* \"#utility.yul\":4860:4866   */\n      dup2\n        /* \"#utility.yul\":4855:4858   */\n      dup6\n        /* \"#utility.yul\":4848:4852   */\n      0x20\n        /* \"#utility.yul\":4841:4846   */\n      dup7\n        /* \"#utility.yul\":4837:4853   */\n      add\n        /* \"#utility.yul\":4802:4867   */\n      tag_62\n      jump\t// in\n    tag_123:\n        /* \"#utility.yul\":4892:4898   */\n      dup1\n        /* \"#utility.yul\":4887:4890   */\n      dup5\n        /* \"#utility.yul\":4883:4899   */\n      add\n        /* \"#utility.yul\":4876:4899   */\n      swap2\n      pop\n        /* \"#utility.yul\":4625:4905   */\n      pop\n        /* \"#utility.yul\":4515:4905   */\n      swap3\n      swap2\n      pop\n      pop\n      jump\t// out\n        /* \"#utility.yul\":4911:5346   */\n    tag_14:\n        /* \"#utility.yul\":5091:5094   */\n      0x00\n        /* \"#utility.yul\":5113:5208   */\n      tag_125\n        /* \"#utility.yul\":5204:5207   */\n      dup3\n        /* \"#utility.yul\":5195:5201   */\n      dup6\n        /* \"#utility.yul\":5113:5208   */\n      tag_63\n      jump\t// in\n    tag_125:\n        /* \"#utility.yul\":5106:5208   */\n      swap2\n      pop\n        /* \"#utility.yul\":5225:5320   */\n      tag_126\n        /* \"#utility.yul\":5316:5319   */\n      dup3\n        /* \"#utility.yul\":5307:5313   */\n      dup5\n        /* \"#utility.yul\":5225:5320   */\n      tag_63\n      jump\t// in\n    tag_126:\n        /* \"#utility.yul\":5218:5320   */\n      swap2\n      pop\n        /* \"#utility.yul\":5337:5340   */\n      dup2\n        /* \"#utility.yul\":5330:5340   */\n      swap1\n      pop\n        /* \"#utility.yul\":4911:5346   */\n      swap4\n      swap3\n      pop\n      pop\n      pop\n      jump\t// out\n        /* \"#utility.yul\":5352:5627   */\n    tag_16:\n        /* \"#utility.yul\":5484:5487   */\n      0x00\n        /* \"#utility.yul\":5506:5601   */\n      tag_128\n        /* \"#utility.yul\":5597:5600   */\n      dup3\n        /* \"#utility.yul\":5588:5594   */\n      dup5\n        /* \"#utility.yul\":5506:5601   */\n      tag_63\n      jump\t// in\n    tag_128:\n        /* \"#utility.yul\":5499:5601   */\n      swap2\n      pop\n        /* \"#utility.yul\":5618:5621   */\n      dup2\n        /* \"#utility.yul\":5611:5621   */\n      swap1\n      pop\n        /* \"#utility.yul\":5352:5627   */\n      swap3\n      swap2\n      pop\n      pop\n      jump\t// out\n        /* \"#utility.yul\":5633:5813   */\n    tag_64:\n        /* \"#utility.yul\":5681:5758   */\n      0x4e487b7100000000000000000000000000000000000000000000000000000000\n        /* \"#utility.yul\":5678:5679   */\n      0x00\n        /* \"#utility.yul\":5671:5759   */\n      mstore\n        /* \"#utility.yul\":5778:5782   */\n      0x11\n        /* \"#utility.yul\":5775:5776   */\n      0x04\n        /* \"#utility.yul\":5768:5783   */\n      mstore\n        /* \"#utility.yul\":5802:5806   */\n      0x24\n        /* \"#utility.yul\":5799:5800   */\n      0x00\n        /* \"#utility.yul\":5792:5807   */\n      revert\n        /* \"#utility.yul\":5819:6052   */\n    tag_22:\n        /* \"#utility.yul\":5858:5861   */\n      0x00\n        /* \"#utility.yul\":5881:5905   */\n      tag_131\n        /* \"#utility.yul\":5899:5904   */\n      dup3\n        /* \"#utility.yul\":5881:5905   */\n      tag_46\n      jump\t// in\n    tag_131:\n        /* \"#utility.yul\":5872:5905   */\n      swap2\n      pop\n        /* \"#utility.yul\":5927:5993   */\n      0xffffffffffffffffffffffffffffffffffffffffffffffffffffffffffffffff\n        /* \"#utility.yul\":5920:5925   */\n      dup3\n        /* \"#utility.yul\":5917:5994   */\n      sub\n        /* \"#utility.yul\":5914:6017   */\n      tag_132\n      jumpi\n        /* \"#utility.yul\":5997:6015   */\n      tag_133\n      tag_64\n      jump\t// in\n    tag_133:\n        /* \"#utility.yul\":5914:6017   */\n    tag_132:\n        /* \"#utility.yul\":6044:6045   */\n      0x01\n        /* \"#utility.yul\":6037:6042   */\n      dup3\n        /* \"#utility.yul\":6033:6046   */\n      add\n        /* \"#utility.yul\":6026:6046   */\n      swap1\n      pop\n        /* \"#utility.yul\":5819:6052   */\n      swap2\n      swap1\n      pop\n      jump\t// out\n        /* \"#utility.yul\":6058:6238   */\n    tag_65:\n        /* \"#utility.yul\":6106:6183   */\n      0x4e487b7100000000000000000000000000000000000000000000000000000000\n        /* \"#utility.yul\":6103:6104   */\n      0x00\n        /* \"#utility.yul\":6096:6184   */\n      mstore\n        /* \"#utility.yul\":6203:6207   */\n      0x12\n        /* \"#utility.yul\":6200:6201   */\n      0x04\n        /* \"#utility.yul\":6193:6208   */\n      mstore\n        /* \"#utility.yul\":6227:6231   */\n      0x24\n        /* \"#utility.yul\":6224:6225   */\n      0x00\n        /* \"#utility.yul\":6217:6232   */\n      revert\n        /* \"#utility.yul\":6244:6429   */\n    tag_24:\n        /* \"#utility.yul\":6284:6285   */\n      0x00\n        /* \"#utility.yul\":6301:6321   */\n      tag_136\n        /* \"#utility.yul\":6319:6320   */\n      dup3\n        /* \"#utility.yul\":6301:6321   */\n      tag_46\n      jump\t// in\n    tag_136:\n        /* \"#utility.yul\":6296:6321   */\n      swap2\n      pop\n        /* \"#utility.yul\":6335:6355   */\n      tag_137\n        /* \"#utility.yul\":6353:6354   */\n      dup4\n        /* \"#utility.yul\":6335:6355   */\n      tag_46\n      jump\t// in\n    tag_137:\n        /* \"#utility.yul\":6330:6355   */\n      swap3\n      pop\n        /* \"#utility.yul\":6374:6375   */\n      dup3\n        /* \"#utility.yul\":6364:6399   */\n      tag_138\n      jumpi\n        /* \"#utility.yul\":6379:6397   */\n      tag_139\n      tag_65\n      jump\t// in\n    tag_139:\n        /* \"#utility.yul\":6364:6399   */\n    tag_138:\n        /* \"#utility.yul\":6421:6422   */\n      dup3\n        /* \"#utility.yul\":6418:6419   */\n      dup3\n        /* \"#utility.yul\":6414:6423   */\n      div\n        /* \"#utility.yul\":6409:6423   */\n      swap1\n      pop\n        /* \"#utility.yul\":6244:6429   */\n      swap3\n      swap2\n      pop\n      pop\n      jump\t// out\n        /* \"#utility.yul\":6435:6629   */\n    tag_30:\n        /* \"#utility.yul\":6475:6479   */\n      0x00\n        /* \"#utility.yul\":6495:6515   */\n      tag_141\n        /* \"#utility.yul\":6513:6514   */\n      dup3\n        /* \"#utility.yul\":6495:6515   */\n      tag_46\n      jump\t// in\n    tag_141:\n        /* \"#utility.yul\":6490:6515   */\n      swap2\n      pop\n        /* \"#utility.yul\":6529:6549   */\n      tag_142\n        /* \"#utility.yul\":6547:6548   */\n      dup4\n        /* \"#utility.yul\":6529:6549   */\n      tag_46\n      jump\t// in\n    tag_142:\n        /* \"#utility.yul\":6524:6549   */\n      swap3\n      pop\n        /* \"#utility.yul\":6573:6574   */\n      dup3\n        /* \"#utility.yul\":6570:6571   */\n      dup3\n        /* \"#utility.yul\":6566:6575   */\n      sub\n        /* \"#utility.yul\":6558:6575   */\n      swap1\n      pop\n        /* \"#utility.yul\":6597:6598   */\n      dup2\n        /* \"#utility.yul\":6591:6595   */\n      dup2\n        /* \"#utility.yul\":6588:6599   */\n      gt\n        /* \"#utility.yul\":6585:6622   */\n      iszero\n      tag_143\n      jumpi\n        /* \"#utility.yul\":6602:6620   */\n      tag_144\n      tag_64\n      jump\t// in\n    tag_144:\n        /* \"#utility.yul\":6585:6622   */\n    tag_143:\n        /* \"#utility.yul\":6435:6629   */\n      swap3\n      swap2\n      pop\n      pop\n      jump\t// out\n        /* \"#utility.yul\":6635:6811   */\n    tag_34:\n        /* \"#utility.yul\":6667:6668   */\n      0x00\n        /* \"#utility.yul\":6684:6704   */\n      tag_146\n        /* \"#utility.yul\":6702:6703   */\n      dup3\n        /* \"#utility.yul\":6684:6704   */\n      tag_46\n      jump\t// in\n    tag_146:\n        /* \"#utility.yul\":6679:6704   */\n      swap2\n      pop\n        /* \"#utility.yul\":6718:6738   */\n      tag_147\n        /* \"#utility.yul\":6736:6737   */\n      dup4\n        /* \"#utility.yul\":6718:6738   */\n      tag_46\n      jump\t// in\n    tag_147:\n        /* \"#utility.yul\":6713:6738   */\n      swap3\n      pop\n        /* \"#utility.yul\":6757:6758   */\n      dup3\n        /* \"#utility.yul\":6747:6782   */\n      tag_148\n      jumpi\n        /* \"#utility.yul\":6762:6780   */\n      tag_149\n      tag_65\n      jump\t// in\n    tag_149:\n        /* \"#utility.yul\":6747:6782   */\n    tag_148:\n        /* \"#utility.yul\":6803:6804   */\n      dup3\n        /* \"#utility.yul\":6800:6801   */\n      dup3\n        /* \"#utility.yul\":6796:6805   */\n      mod\n        /* \"#utility.yul\":6791:6805   */\n      swap1\n      pop\n        /* \"#utility.yul\":6635:6811   */\n      swap3\n      swap2\n      pop\n      pop\n      jump\t// out\n        /* \"#utility.yul\":6817:7008   */\n    tag_36:\n        /* \"#utility.yul\":6857:6860   */\n      0x00\n        /* \"#utility.yul\":6876:6896   */\n      tag_151\n        /* \"#utility.yul\":6894:6895   */\n      dup3\n        /* \"#utility.yul\":6876:6896   */\n      tag_46\n      jump\t// in\n    tag_151:\n        /* \"#utility.yul\":6871:6896   */\n      swap2\n      pop\n        /* \"#utility.yul\":6910:6930   */\n      tag_152\n        /* \"#utility.yul\":6928:6929   */\n      dup4\n        /* \"#utility.yul\":6910:6930   */\n      tag_46\n      jump\t// in\n    tag_152:\n        /* \"#utility.yul\":6905:6930   */\n      swap3\n      pop\n        /* \"#utility.yul\":6953:6954   */\n      dup3\n        /* \"#utility.yul\":6950:6951   */\n      dup3\n        /* \"#utility.yul\":6946:6955   */\n      add\n        /* \"#utility.yul\":6939:6955   */\n      swap1\n      pop\n        /* \"#utility.yul\":6974:6977   */\n      dup1\n        /* \"#utility.yul\":6971:6972   */\n      dup3\n        /* \"#utility.yul\":6968:6978   */\n      gt\n        /* \"#utility.yul\":6965:7001   */\n      iszero\n      tag_153\n      jumpi\n        /* \"#utility.yul\":6981:6999   */\n      tag_154\n      tag_64\n      jump\t// in\n    tag_154:\n        /* \"#utility.yul\":6965:7001   */\n    tag_153:\n        /* \"#utility.yul\":6817:7008   */\n      swap3\n      swap2\n      pop\n      pop\n      jump\t// out\n        /* \"#utility.yul\":7014:7185   */\n    tag_38:\n        /* \"#utility.yul\":7053:7056   */\n      0x00\n        /* \"#utility.yul\":7076:7100   */\n      tag_156\n        /* \"#utility.yul\":7094:7099   */\n      dup3\n        /* \"#utility.yul\":7076:7100   */\n      tag_46\n      jump\t// in\n    tag_156:\n        /* \"#utility.yul\":7067:7100   */\n      swap2\n      pop\n        /* \"#utility.yul\":7122:7126   */\n      0x00\n        /* \"#utility.yul\":7115:7120   */\n      dup3\n        /* \"#utility.yul\":7112:7127   */\n      sub\n        /* \"#utility.yul\":7109:7150   */\n      tag_157\n      jumpi\n        /* \"#utility.yul\":7130:7148   */\n      tag_158\n      tag_64\n      jump\t// in\n    tag_158:\n        /* \"#utility.yul\":7109:7150   */\n    tag_157:\n        /* \"#utility.yul\":7177:7178   */\n      0x01\n        /* \"#utility.yul\":7170:7175   */\n      dup3\n        /* \"#utility.yul\":7166:7179   */\n      sub\n        /* \"#utility.yul\":7159:7179   */\n      swap1\n      pop\n        /* \"#utility.yul\":7014:7185   */\n      swap2\n      swap1\n      pop\n      jump\t// out\n        /* \"#utility.yul\":7191:7371   */\n    tag_41:\n        /* \"#utility.yul\":7239:7316   */\n      0x4e487b7100000000000000000000000000000000000000000000000000000000\n        /* \"#utility.yul\":7236:7237   */\n      0x00\n        /* \"#utility.yul\":7229:7317   */\n      mstore\n        /* \"#utility.yul\":7336:7340   */\n      0x32\n        /* \"#utility.yul\":7333:7334   */\n      0x04\n        /* \"#utility.yul\":7326:7341   */\n      mstore\n        /* \"#utility.yul\":7360:7364   */\n      0x24\n        /* \"#utility.yul\":7357:7358   */\n      0x00\n        /* \"#utility.yul\":7350:7365   */\n      revert\n\n    auxdata: 0xa26469706673582212204e94408ee3013005d34120f96840d44dc0f01048f5e2eb714629ec4b655c258464736f6c63430008120033\n}\n",
				"bytecode": {
					"linkReferences": {},
					"object": "608060405234801561001057600080fd5b50610701806100206000396000f3fe608060405234801561001057600080fd5b506004361061002b5760003560e01c8063f0b42f7414610030575b600080fd5b61004a600480360381019061004591906103c7565b610060565b604051610057919061043c565b60405180910390f35b60008061006c846100c5565b9050600081846040516020016100839291906104c8565b6040516020818303038152906040529050806040516020016100a591906104ec565b604051602081830303815290604052805190602001209250505092915050565b60606000820361010c576040518060400160405280600181526020017f30000000000000000000000000000000000000000000000000000000000000008152509050610232565b600082905060005b6000821461013e57808061012790610532565b915050600a8261013791906105a9565b9150610114565b60008167ffffffffffffffff81111561015a5761015961029c565b5b6040519080825280601f01601f19166020018201604052801561018c5781602001600182028036833780820191505090505b509050600060018361019e91906105da565b90508593505b6000841461022a57600a846101b9919061060e565b60306101c5919061063f565b60f81b8282806101d490610673565b9350815181106101e7576101e661069c565b5b60200101907effffffffffffffffffffffffffffffffffffffffffffffffffffffffffffff1916908160001a905350600a8461022391906105a9565b93506101a4565b819450505050505b919050565b6000604051905090565b600080fd5b600080fd5b6000819050919050565b61025e8161024b565b811461026957600080fd5b50565b60008135905061027b81610255565b92915050565b600080fd5b600080fd5b6000601f19601f8301169050919050565b7f4e487b7100000000000000000000000000000000000000000000000000000000600052604160045260246000fd5b6102d48261028b565b810181811067ffffffffffffffff821117156102f3576102f261029c565b5b80604052505050565b6000610306610237565b905061031282826102cb565b919050565b600067ffffffffffffffff8211156103325761033161029c565b5b61033b8261028b565b9050602081019050919050565b82818337600083830152505050565b600061036a61036584610317565b6102fc565b90508281526020810184848401111561038657610385610286565b5b610391848285610348565b509392505050565b600082601f8301126103ae576103ad610281565b5b81356103be848260208601610357565b91505092915050565b600080604083850312156103de576103dd610241565b5b60006103ec8582860161026c565b925050602083013567ffffffffffffffff81111561040d5761040c610246565b5b61041985828601610399565b9150509250929050565b6000819050919050565b61043681610423565b82525050565b6000602082019050610451600083018461042d565b92915050565b600081519050919050565b600081905092915050565b60005b8381101561048b578082015181840152602081019050610470565b60008484015250505050565b60006104a282610457565b6104ac8185610462565b93506104bc81856020860161046d565b80840191505092915050565b60006104d48285610497565b91506104e08284610497565b91508190509392505050565b60006104f88284610497565b915081905092915050565b7f4e487b7100000000000000000000000000000000000000000000000000000000600052601160045260246000fd5b600061053d8261024b565b91507fffffffffffffffffffffffffffffffffffffffffffffffffffffffffffffffff820361056f5761056e610503565b5b600182019050919050565b7f4e487b7100000000000000000000000000000000000000000000000000000000600052601260045260246000fd5b60006105b48261024b565b91506105bf8361024b565b9250826105cf576105ce61057a565b5b828204905092915050565b60006105e58261024b565b91506105f08361024b565b925082820390508181111561060857610607610503565b5b92915050565b60006106198261024b565b91506106248361024b565b9250826106345761063361057a565b5b828206905092915050565b600061064a8261024b565b91506106558361024b565b925082820190508082111561066d5761066c610503565b5b92915050565b600061067e8261024b565b91506000820361069157610690610503565b5b600182039050919050565b7f4e487b7100000000000000000000000000000000000000000000000000000000600052603260045260246000fdfea26469706673582212204e94408ee3013005d34120f96840d44dc0f01048f5e2eb714629ec4b655c258464736f6c63430008120033",
					"opcodes": "PUSH1 0x80 PUSH1 0x40 MSTORE CALLVALUE DUP1 ISZERO PUSH2 0x10 JUMPI PUSH1 0x0 DUP1 REVERT JUMPDEST POP PUSH2 0x701 DUP1 PUSH2 0x20 PUSH1 0x0 CODECOPY PUSH1 0x0 RETURN INVALID PUSH1 0x80 PUSH1 0x40 MSTORE CALLVALUE DUP1 ISZERO PUSH2 0x10 JUMPI PUSH1 0x0 DUP1 REVERT JUMPDEST POP PUSH1 0x4 CALLDATASIZE LT PUSH2 0x2B JUMPI PUSH1 0x0 CALLDATALOAD PUSH1 0xE0 SHR DUP1 PUSH4 0xF0B42F74 EQ PUSH2 0x30 JUMPI JUMPDEST PUSH1 0x0 DUP1 REVERT JUMPDEST PUSH2 0x4A PUSH1 0x4 DUP1 CALLDATASIZE SUB DUP2 ADD SWAP1 PUSH2 0x45 SWAP2 SWAP1 PUSH2 0x3C7 JUMP JUMPDEST PUSH2 0x60 JUMP JUMPDEST PUSH1 0x40 MLOAD PUSH2 0x57 SWAP2 SWAP1 PUSH2 0x43C JUMP JUMPDEST PUSH1 0x40 MLOAD DUP1 SWAP2 SUB SWAP1 RETURN JUMPDEST PUSH1 0x0 DUP1 PUSH2 0x6C DUP5 PUSH2 0xC5 JUMP JUMPDEST SWAP1 POP PUSH1 0x0 DUP2 DUP5 PUSH1 0x40 MLOAD PUSH1 0x20 ADD PUSH2 0x83 SWAP3 SWAP2 SWAP1 PUSH2 0x4C8 JUMP JUMPDEST PUSH1 0x40 MLOAD PUSH1 0x20 DUP2 DUP4 SUB SUB DUP2 MSTORE SWAP1 PUSH1 0x40 MSTORE SWAP1 POP DUP1 PUSH1 0x40 MLOAD PUSH1 0x20 ADD PUSH2 0xA5 SWAP2 SWAP1 PUSH2 0x4EC JUMP JUMPDEST PUSH1 0x40 MLOAD PUSH1 0x20 DUP2 DUP4 SUB SUB DUP2 MSTORE SWAP1 PUSH1 0x40 MSTORE DUP1 MLOAD SWAP1 PUSH1 0x20 ADD KECCAK256 SWAP3 POP POP POP SWAP3 SWAP2 POP POP JUMP JUMPDEST PUSH1 0x60 PUSH1 0x0 DUP3 SUB PUSH2 0x10C JUMPI PUSH1 0x40 MLOAD DUP1 PUSH1 0x40 ADD PUSH1 0x40 MSTORE DUP1 PUSH1 0x1 DUP2 MSTORE PUSH1 0x20 ADD PUSH32 0x3000000000000000000000000000000000000000000000000000000000000000 DUP2 MSTORE POP SWAP1 POP PUSH2 0x232 JUMP JUMPDEST PUSH1 0x0 DUP3 SWAP1 POP PUSH1 0x0 JUMPDEST PUSH1 0x0 DUP3 EQ PUSH2 0x13E JUMPI DUP1 DUP1 PUSH2 0x127 SWAP1 PUSH2 0x532 JUMP JUMPDEST SWAP2 POP POP PUSH1 0xA DUP3 PUSH2 0x137 SWAP2 SWAP1 PUSH2 0x5A9 JUMP JUMPDEST SWAP2 POP PUSH2 0x114 JUMP JUMPDEST PUSH1 0x0 DUP2 PUSH8 0xFFFFFFFFFFFFFFFF DUP2 GT ISZERO PUSH2 0x15A JUMPI PUSH2 0x159 PUSH2 0x29C JUMP JUMPDEST JUMPDEST PUSH1 0x40 MLOAD SWAP1 DUP1 DUP3 MSTORE DUP1 PUSH1 0x1F ADD PUSH1 0x1F NOT AND PUSH1 0x20 ADD DUP3 ADD PUSH1 0x40 MSTORE DUP1 ISZERO PUSH2 0x18C JUMPI DUP2 PUSH1 0x20 ADD PUSH1 0x1 DUP3 MUL DUP1 CALLDATASIZE DUP4 CALLDATACOPY DUP1 DUP3 ADD SWAP2 POP POP SWAP1 POP JUMPDEST POP SWAP1 POP PUSH1 0x0 PUSH1 0x1 DUP4 PUSH2 0x19E SWAP2 SWAP1 PUSH2 0x5DA JUMP JUMPDEST SWAP1 POP DUP6 SWAP4 POP JUMPDEST PUSH1 0x0 DUP5 EQ PUSH2 0x22A JUMPI PUSH1 0xA DUP5 PUSH2 0x1B9 SWAP2 SWAP1 PUSH2 0x60E JUMP JUMPDEST PUSH1 0x30 PUSH2 0x1C5 SWAP2 SWAP1 PUSH2 0x63F JUMP JUMPDEST PUSH1 0xF8 SHL DUP3 DUP3 DUP1 PUSH2 0x1D4 SWAP1 PUSH2 0x673 JUMP JUMPDEST SWAP4 POP DUP2 MLOAD DUP2 LT PUSH2 0x1E7 JUMPI PUSH2 0x1E6 PUSH2 0x69C JUMP JUMPDEST JUMPDEST PUSH1 0x20 ADD ADD SWAP1 PUSH31 0xFFFFFFFFFFFFFFFFFFFFFFFFFFFFFFFFFFFFFFFFFFFFFFFFFFFFFFFFFFFFFF NOT AND SWAP1 DUP2 PUSH1 0x0 BYTE SWAP1 MSTORE8 POP PUSH1 0xA DUP5 PUSH2 0x223 SWAP2 SWAP1 PUSH2 0x5A9 JUMP JUMPDEST SWAP4 POP PUSH2 0x1A4 JUMP JUMPDEST DUP2 SWAP5 POP POP POP POP POP JUMPDEST SWAP2 SWAP1 POP JUMP JUMPDEST PUSH1 0x0 PUSH1 0x40 MLOAD SWAP1 POP SWAP1 JUMP JUMPDEST PUSH1 0x0 DUP1 REVERT JUMPDEST PUSH1 0x0 DUP1 REVERT JUMPDEST PUSH1 0x0 DUP2 SWAP1 POP SWAP2 SWAP1 POP JUMP JUMPDEST PUSH2 0x25E DUP2 PUSH2 0x24B JUMP JUMPDEST DUP2 EQ PUSH2 0x269 JUMPI PUSH1 0x0 DUP1 REVERT JUMPDEST POP JUMP JUMPDEST PUSH1 0x0 DUP2 CALLDATALOAD SWAP1 POP PUSH2 0x27B DUP2 PUSH2 0x255 JUMP JUMPDEST SWAP3 SWAP2 POP POP JUMP JUMPDEST PUSH1 0x0 DUP1 REVERT JUMPDEST PUSH1 0x0 DUP1 REVERT JUMPDEST PUSH1 0x0 PUSH1 0x1F NOT PUSH1 0x1F DUP4 ADD AND SWAP1 POP SWAP2 SWAP1 POP JUMP JUMPDEST PUSH32 0x4E487B7100000000000000000000000000000000000000000000000000000000 PUSH1 0x0 MSTORE PUSH1 0x41 PUSH1 0x4 MSTORE PUSH1 0x24 PUSH1 0x0 REVERT JUMPDEST PUSH2 0x2D4 DUP3 PUSH2 0x28B JUMP JUMPDEST DUP2 ADD DUP2 DUP2 LT PUSH8 0xFFFFFFFFFFFFFFFF DUP3 GT OR ISZERO PUSH2 0x2F3 JUMPI PUSH2 0x2F2 PUSH2 0x29C JUMP JUMPDEST JUMPDEST DUP1 PUSH1 0x40 MSTORE POP POP POP JUMP JUMPDEST PUSH1 0x0 PUSH2 0x306 PUSH2 0x237 JUMP JUMPDEST SWAP1 POP PUSH2 0x312 DUP3 DUP3 PUSH2 0x2CB JUMP JUMPDEST SWAP2 SWAP1 POP JUMP JUMPDEST PUSH1 0x0 PUSH8 0xFFFFFFFFFFFFFFFF DUP3 GT ISZERO PUSH2 0x332 JUMPI PUSH2 0x331 PUSH2 0x29C JUMP JUMPDEST JUMPDEST PUSH2 0x33B DUP3 PUSH2 0x28B JUMP JUMPDEST SWAP1 POP PUSH1 0x20 DUP2 ADD SWAP1 POP SWAP2 SWAP1 POP JUMP JUMPDEST DUP3 DUP2 DUP4 CALLDATACOPY PUSH1 0x0 DUP4 DUP4 ADD MSTORE POP POP POP JUMP JUMPDEST PUSH1 0x0 PUSH2 0x36A PUSH2 0x365 DUP5 PUSH2 0x317 JUMP JUMPDEST PUSH2 0x2FC JUMP JUMPDEST SWAP1 POP DUP3 DUP2 MSTORE PUSH1 0x20 DUP2 ADD DUP5 DUP5 DUP5 ADD GT ISZERO PUSH2 0x386 JUMPI PUSH2 0x385 PUSH2 0x286 JUMP JUMPDEST JUMPDEST PUSH2 0x391 DUP5 DUP3 DUP6 PUSH2 0x348 JUMP JUMPDEST POP SWAP4 SWAP3 POP POP POP JUMP JUMPDEST PUSH1 0x0 DUP3 PUSH1 0x1F DUP4 ADD SLT PUSH2 0x3AE JUMPI PUSH2 0x3AD PUSH2 0x281 JUMP JUMPDEST JUMPDEST DUP2 CALLDATALOAD PUSH2 0x3BE DUP5 DUP3 PUSH1 0x20 DUP7 ADD PUSH2 0x357 JUMP JUMPDEST SWAP2 POP POP SWAP3 SWAP2 POP POP JUMP JUMPDEST PUSH1 0x0 DUP1 PUSH1 0x40 DUP4 DUP6 SUB SLT ISZERO PUSH2 0x3DE JUMPI PUSH2 0x3DD PUSH2 0x241 JUMP JUMPDEST JUMPDEST PUSH1 0x0 PUSH2 0x3EC DUP6 DUP3 DUP7 ADD PUSH2 0x26C JUMP JUMPDEST SWAP3 POP POP PUSH1 0x20 DUP4 ADD CALLDATALOAD PUSH8 0xFFFFFFFFFFFFFFFF DUP2 GT ISZERO PUSH2 0x40D JUMPI PUSH2 0x40C PUSH2 0x246 JUMP JUMPDEST JUMPDEST PUSH2 0x419 DUP6 DUP3 DUP7 ADD PUSH2 0x399 JUMP JUMPDEST SWAP2 POP POP SWAP3 POP SWAP3 SWAP1 POP JUMP JUMPDEST PUSH1 0x0 DUP2 SWAP1 POP SWAP2 SWAP1 POP JUMP JUMPDEST PUSH2 0x436 DUP2 PUSH2 0x423 JUMP JUMPDEST DUP3 MSTORE POP POP JUMP JUMPDEST PUSH1 0x0 PUSH1 0x20 DUP3 ADD SWAP1 POP PUSH2 0x451 PUSH1 0x0 DUP4 ADD DUP5 PUSH2 0x42D JUMP JUMPDEST SWAP3 SWAP2 POP POP JUMP JUMPDEST PUSH1 0x0 DUP2 MLOAD SWAP1 POP SWAP2 SWAP1 POP JUMP JUMPDEST PUSH1 0x0 DUP2 SWAP1 POP SWAP3 SWAP2 POP POP JUMP JUMPDEST PUSH1 0x0 JUMPDEST DUP4 DUP2 LT ISZERO PUSH2 0x48B JUMPI DUP1 DUP3 ADD MLOAD DUP2 DUP5 ADD MSTORE PUSH1 0x20 DUP2 ADD SWAP1 POP PUSH2 0x470 JUMP JUMPDEST PUSH1 0x0 DUP5 DUP5 ADD MSTORE POP POP POP POP JUMP JUMPDEST PUSH1 0x0 PUSH2 0x4A2 DUP3 PUSH2 0x457 JUMP JUMPDEST PUSH2 0x4AC DUP2 DUP6 PUSH2 0x462 JUMP JUMPDEST SWAP4 POP PUSH2 0x4BC DUP2 DUP6 PUSH1 0x20 DUP7 ADD PUSH2 0x46D JUMP JUMPDEST DUP1 DUP5 ADD SWAP2 POP POP SWAP3 SWAP2 POP POP JUMP JUMPDEST PUSH1 0x0 PUSH2 0x4D4 DUP3 DUP6 PUSH2 0x497 JUMP JUMPDEST SWAP2 POP PUSH2 0x4E0 DUP3 DUP5 PUSH2 0x497 JUMP JUMPDEST SWAP2 POP DUP2 SWAP1 POP SWAP4 SWAP3 POP POP POP JUMP JUMPDEST PUSH1 0x0 PUSH2 0x4F8 DUP3 DUP5 PUSH2 0x497 JUMP JUMPDEST SWAP2 POP DUP2 SWAP1 POP SWAP3 SWAP2 POP POP JUMP JUMPDEST PUSH32 0x4E487B7100000000000000000000000000000000000000000000000000000000 PUSH1 0x0 MSTORE PUSH1 0x11 PUSH1 0x4 MSTORE PUSH1 0x24 PUSH1 0x0 REVERT JUMPDEST PUSH1 0x0 PUSH2 0x53D DUP3 PUSH2 0x24B JUMP JUMPDEST SWAP2 POP PUSH32 0xFFFFFFFFFFFFFFFFFFFFFFFFFFFFFFFFFFFFFFFFFFFFFFFFFFFFFFFFFFFFFFFF DUP3 SUB PUSH2 0x56F JUMPI PUSH2 0x56E PUSH2 0x503 JUMP JUMPDEST JUMPDEST PUSH1 0x1 DUP3 ADD SWAP1 POP SWAP2 SWAP1 POP JUMP JUMPDEST PUSH32 0x4E487B7100000000000000000000000000000000000000000000000000000000 PUSH1 0x0 MSTORE PUSH1 0x12 PUSH1 0x4 MSTORE PUSH1 0x24 PUSH1 0x0 REVERT JUMPDEST PUSH1 0x0 PUSH2 0x5B4 DUP3 PUSH2 0x24B JUMP JUMPDEST SWAP2 POP PUSH2 0x5BF DUP4 PUSH2 0x24B JUMP JUMPDEST SWAP3 POP DUP3 PUSH2 0x5CF JUMPI PUSH2 0x5CE PUSH2 0x57A JUMP JUMPDEST JUMPDEST DUP3 DUP3 DIV SWAP1 POP SWAP3 SWAP2 POP POP JUMP JUMPDEST PUSH1 0x0 PUSH2 0x5E5 DUP3 PUSH2 0x24B JUMP JUMPDEST SWAP2 POP PUSH2 0x5F0 DUP4 PUSH2 0x24B JUMP JUMPDEST SWAP3 POP DUP3 DUP3 SUB SWAP1 POP DUP2 DUP2 GT ISZERO PUSH2 0x608 JUMPI PUSH2 0x607 PUSH2 0x503 JUMP JUMPDEST JUMPDEST SWAP3 SWAP2 POP POP JUMP JUMPDEST PUSH1 0x0 PUSH2 0x619 DUP3 PUSH2 0x24B JUMP JUMPDEST SWAP2 POP PUSH2 0x624 DUP4 PUSH2 0x24B JUMP JUMPDEST SWAP3 POP DUP3 PUSH2 0x634 JUMPI PUSH2 0x633 PUSH2 0x57A JUMP JUMPDEST JUMPDEST DUP3 DUP3 MOD SWAP1 POP SWAP3 SWAP2 POP POP JUMP JUMPDEST PUSH1 0x0 PUSH2 0x64A DUP3 PUSH2 0x24B JUMP JUMPDEST SWAP2 POP PUSH2 0x655 DUP4 PUSH2 0x24B JUMP JUMPDEST SWAP3 POP DUP3 DUP3 ADD SWAP1 POP DUP1 DUP3 GT ISZERO PUSH2 0x66D JUMPI PUSH2 0x66C PUSH2 0x503 JUMP JUMPDEST JUMPDEST SWAP3 SWAP2 POP POP JUMP JUMPDEST PUSH1 0x0 PUSH2 0x67E DUP3 PUSH2 0x24B JUMP JUMPDEST SWAP2 POP PUSH1 0x0 DUP3 SUB PUSH2 0x691 JUMPI PUSH2 0x690 PUSH2 0x503 JUMP JUMPDEST JUMPDEST PUSH1 0x1 DUP3 SUB SWAP1 POP SWAP2 SWAP1 POP JUMP JUMPDEST PUSH32 0x4E487B7100000000000000000000000000000000000000000000000000000000 PUSH1 0x0 MSTORE PUSH1 0x32 PUSH1 0x4 MSTORE PUSH1 0x24 PUSH1 0x0 REVERT INVALID LOG2 PUSH5 0x6970667358 0x22 SLT KECCAK256 0x4E SWAP5 BLOCKHASH DUP15 0xE3 ADD ADDRESS SDIV 0xD3 COINBASE KECCAK256 0xF9 PUSH9 0x40D44DC0F01048F5E2 0xEB PUSH18 0x4629EC4B655C258464736F6C634300081200 CALLER "
				},
				"gasEstimates": {
					"creation": {
						"codeDepositCost": "358600",
						"executionCost": "399",
						"totalCost": "358999"
					},
					"external": {
						"calculateHash(uint256,string)": "infinite"
					},
					"internal": {
						"uintToString(uint256)": "infinite"
					}
				},
				"methodIdentifiers": {
					"calculateHash(uint256,string)": "f0b42f74"
				}
			},
			"storageLayout": {
				"storage": [],
				"types": null
			},
			"userdoc": {
				"kind": "user",
				"methods": {},
				"version": 1
			}
		}
	}
}